{
  "_format": "hh-sol-artifact-1",
  "contractName": "CCIPSourceMinterMantle",
  "sourceName": "contracts/CCIPSourceMinterMantle.sol",
  "abi": [
    {
      "inputs": [
        {
          "internalType": "address",
          "name": "_router",
          "type": "address"
        },
        {
          "internalType": "address",
          "name": "_link",
          "type": "address"
        }
      ],
      "stateMutability": "nonpayable",
      "type": "constructor"
    },
    {
      "inputs": [
        {
          "internalType": "uint64",
          "name": "destinationChainSelector",
          "type": "uint64"
        }
      ],
      "name": "DestinationChainNotAllowlisted",
      "type": "error"
    },
    {
      "inputs": [
        {
          "internalType": "address",
          "name": "owner",
          "type": "address"
        },
        {
          "internalType": "address",
          "name": "target",
          "type": "address"
        },
        {
          "internalType": "uint256",
          "name": "value",
          "type": "uint256"
        }
      ],
      "name": "FailedToWithdrawEth",
      "type": "error"
    },
    {
      "inputs": [],
      "name": "InvalidInvoiceData",
      "type": "error"
    },
    {
      "inputs": [
        {
          "internalType": "address",
          "name": "router",
          "type": "address"
        }
      ],
      "name": "InvalidRouter",
      "type": "error"
    },
    {
      "inputs": [
        {
          "internalType": "uint256",
          "name": "currentBalance",
          "type": "uint256"
        },
        {
          "internalType": "uint256",
          "name": "calculatedFees",
          "type": "uint256"
        }
      ],
      "name": "NotEnoughBalance",
      "type": "error"
    },
    {
      "inputs": [],
      "name": "NothingToWithdraw",
      "type": "error"
    },
    {
      "inputs": [
        {
          "internalType": "address",
          "name": "sender",
          "type": "address"
        }
      ],
      "name": "SenderNotAllowlisted",
      "type": "error"
    },
    {
      "inputs": [
        {
          "internalType": "uint64",
          "name": "sourceChainSelector",
          "type": "uint64"
        }
      ],
      "name": "SourceChainNotAllowlisted",
      "type": "error"
    },
    {
      "inputs": [],
      "name": "UnauthorizedCaller",
      "type": "error"
    },
    {
      "anonymous": false,
      "inputs": [
        {
          "indexed": true,
          "internalType": "address",
          "name": "caller",
          "type": "address"
        },
        {
          "indexed": false,
          "internalType": "bool",
          "name": "authorized",
          "type": "bool"
        }
      ],
      "name": "AuthorizedCallerUpdated",
      "type": "event"
    },
    {
      "anonymous": false,
      "inputs": [
        {
          "indexed": true,
          "internalType": "address",
          "name": "oldMinter",
          "type": "address"
        },
        {
          "indexed": true,
          "internalType": "address",
          "name": "newMinter",
          "type": "address"
        }
      ],
      "name": "DestinationMinterUpdated",
      "type": "event"
    },
    {
      "anonymous": false,
      "inputs": [
        {
          "indexed": true,
          "internalType": "bytes32",
          "name": "messageId",
          "type": "bytes32"
        },
        {
          "indexed": true,
          "internalType": "uint64",
          "name": "destinationChainSelector",
          "type": "uint64"
        },
        {
          "indexed": true,
          "internalType": "address",
          "name": "receiver",
          "type": "address"
        },
        {
          "components": [
            {
              "internalType": "uint256",
              "name": "invoiceId",
              "type": "uint256"
            },
            {
              "internalType": "string",
              "name": "commodity",
              "type": "string"
            },
            {
              "internalType": "uint256",
              "name": "amount",
              "type": "uint256"
            },
            {
              "internalType": "string",
              "name": "supplierCountry",
              "type": "string"
            },
            {
              "internalType": "string",
              "name": "buyerCountry",
              "type": "string"
            },
            {
              "internalType": "string",
              "name": "exporterName",
              "type": "string"
            },
            {
              "internalType": "string",
              "name": "buyerName",
              "type": "string"
            },
            {
              "internalType": "address",
              "name": "supplier",
              "type": "address"
            },
            {
              "internalType": "uint256",
              "name": "dueDate",
              "type": "uint256"
            },
            {
              "internalType": "string",
              "name": "documentHash",
              "type": "string"
            },
            {
              "internalType": "uint256",
              "name": "riskScore",
              "type": "uint256"
            },
            {
              "internalType": "string",
              "name": "creditRating",
              "type": "string"
            },
            {
              "internalType": "bool",
              "name": "verified",
              "type": "bool"
            },
            {
              "internalType": "uint256",
              "name": "timestamp",
              "type": "uint256"
            }
          ],
          "indexed": false,
          "internalType": "struct CCIPSourceMinterMantle.InvoiceData",
          "name": "invoiceData",
          "type": "tuple"
        },
        {
          "indexed": false,
          "internalType": "uint256",
          "name": "fees",
          "type": "uint256"
        }
      ],
      "name": "InvoiceDataSent",
      "type": "event"
    },
    {
      "anonymous": false,
      "inputs": [
        {
          "indexed": true,
          "internalType": "bytes32",
          "name": "messageId",
          "type": "bytes32"
        },
        {
          "indexed": true,
          "internalType": "uint256",
          "name": "invoiceId",
          "type": "uint256"
        },
        {
          "indexed": true,
          "internalType": "uint256",
          "name": "tokenId",
          "type": "uint256"
        },
        {
          "indexed": false,
          "internalType": "address",
          "name": "nftContract",
          "type": "address"
        }
      ],
      "name": "NFTMintConfirmed",
      "type": "event"
    },
    {
      "anonymous": false,
      "inputs": [
        {
          "indexed": true,
          "internalType": "address",
          "name": "from",
          "type": "address"
        },
        {
          "indexed": true,
          "internalType": "address",
          "name": "to",
          "type": "address"
        }
      ],
      "name": "OwnershipTransferRequested",
      "type": "event"
    },
    {
      "anonymous": false,
      "inputs": [
        {
          "indexed": true,
          "internalType": "address",
          "name": "from",
          "type": "address"
        },
        {
          "indexed": true,
          "internalType": "address",
          "name": "to",
          "type": "address"
        }
      ],
      "name": "OwnershipTransferred",
      "type": "event"
    },
    {
      "inputs": [],
      "name": "acceptOwnership",
      "outputs": [],
      "stateMutability": "nonpayable",
      "type": "function"
    },
    {
      "inputs": [
        {
          "internalType": "address",
          "name": "",
          "type": "address"
        }
      ],
      "name": "authorizedCallers",
      "outputs": [
        {
          "internalType": "bool",
          "name": "",
          "type": "bool"
        }
      ],
      "stateMutability": "view",
      "type": "function"
    },
    {
      "inputs": [
        {
          "components": [
            {
              "internalType": "bytes32",
              "name": "messageId",
              "type": "bytes32"
            },
            {
              "internalType": "uint64",
              "name": "sourceChainSelector",
              "type": "uint64"
            },
            {
              "internalType": "bytes",
              "name": "sender",
              "type": "bytes"
            },
            {
              "internalType": "bytes",
              "name": "data",
              "type": "bytes"
            },
            {
              "components": [
                {
                  "internalType": "address",
                  "name": "token",
                  "type": "address"
                },
                {
                  "internalType": "uint256",
                  "name": "amount",
                  "type": "uint256"
                }
              ],
              "internalType": "struct Client.EVMTokenAmount[]",
              "name": "destTokenAmounts",
              "type": "tuple[]"
            }
          ],
          "internalType": "struct Client.Any2EVMMessage",
          "name": "message",
          "type": "tuple"
        }
      ],
      "name": "ccipReceive",
      "outputs": [],
      "stateMutability": "nonpayable",
      "type": "function"
    },
    {
      "inputs": [],
      "name": "destinationMinter",
      "outputs": [
        {
          "internalType": "address",
          "name": "",
          "type": "address"
        }
      ],
      "stateMutability": "view",
      "type": "function"
    },
    {
      "inputs": [
        {
          "internalType": "bytes32",
          "name": "messageId",
          "type": "bytes32"
        },
        {
          "internalType": "uint256",
          "name": "tokenId",
          "type": "uint256"
        },
        {
          "internalType": "address",
          "name": "nftContract",
          "type": "address"
        }
      ],
      "name": "emergencyConfirmNFTMinting",
      "outputs": [],
      "stateMutability": "nonpayable",
      "type": "function"
    },
    {
      "inputs": [
        {
          "components": [
            {
              "internalType": "uint256",
              "name": "invoiceId",
              "type": "uint256"
            },
            {
              "internalType": "string",
              "name": "commodity",
              "type": "string"
            },
            {
              "internalType": "uint256",
              "name": "amount",
              "type": "uint256"
            },
            {
              "internalType": "string",
              "name": "supplierCountry",
              "type": "string"
            },
            {
              "internalType": "string",
              "name": "buyerCountry",
              "type": "string"
            },
            {
              "internalType": "string",
              "name": "exporterName",
              "type": "string"
            },
            {
              "internalType": "string",
              "name": "buyerName",
              "type": "string"
            },
            {
              "internalType": "address",
              "name": "supplier",
              "type": "address"
            },
            {
              "internalType": "uint256",
              "name": "dueDate",
              "type": "uint256"
            },
            {
              "internalType": "string",
              "name": "documentHash",
              "type": "string"
            },
            {
              "internalType": "uint256",
              "name": "riskScore",
              "type": "uint256"
            },
            {
              "internalType": "string",
              "name": "creditRating",
              "type": "string"
            },
            {
              "internalType": "bool",
              "name": "verified",
              "type": "bool"
            },
            {
              "internalType": "uint256",
              "name": "timestamp",
              "type": "uint256"
            }
          ],
          "internalType": "struct CCIPSourceMinterMantle.InvoiceData",
          "name": "invoiceData",
          "type": "tuple"
        }
      ],
      "name": "getFeeEstimate",
      "outputs": [
        {
          "internalType": "uint256",
          "name": "",
          "type": "uint256"
        }
      ],
      "stateMutability": "view",
      "type": "function"
    },
    {
      "inputs": [
        {
          "internalType": "bytes32",
          "name": "messageId",
          "type": "bytes32"
        }
      ],
      "name": "getPendingInvoice",
      "outputs": [
        {
          "components": [
            {
              "internalType": "uint256",
              "name": "invoiceId",
              "type": "uint256"
            },
            {
              "internalType": "string",
              "name": "commodity",
              "type": "string"
            },
            {
              "internalType": "uint256",
              "name": "amount",
              "type": "uint256"
            },
            {
              "internalType": "string",
              "name": "supplierCountry",
              "type": "string"
            },
            {
              "internalType": "string",
              "name": "buyerCountry",
              "type": "string"
            },
            {
              "internalType": "string",
              "name": "exporterName",
              "type": "string"
            },
            {
              "internalType": "string",
              "name": "buyerName",
              "type": "string"
            },
            {
              "internalType": "address",
              "name": "supplier",
              "type": "address"
            },
            {
              "internalType": "uint256",
              "name": "dueDate",
              "type": "uint256"
            },
            {
              "internalType": "string",
              "name": "documentHash",
              "type": "string"
            },
            {
              "internalType": "uint256",
              "name": "riskScore",
              "type": "uint256"
            },
            {
              "internalType": "string",
              "name": "creditRating",
              "type": "string"
            },
            {
              "internalType": "bool",
              "name": "verified",
              "type": "bool"
            },
            {
              "internalType": "uint256",
              "name": "timestamp",
              "type": "uint256"
            }
          ],
          "internalType": "struct CCIPSourceMinterMantle.InvoiceData",
          "name": "",
          "type": "tuple"
        }
      ],
      "stateMutability": "view",
      "type": "function"
    },
    {
      "inputs": [],
      "name": "getRouter",
      "outputs": [
        {
          "internalType": "address",
          "name": "",
          "type": "address"
        }
      ],
      "stateMutability": "view",
      "type": "function"
    },
    {
      "inputs": [
        {
          "internalType": "address",
          "name": "caller",
          "type": "address"
        }
      ],
      "name": "isAuthorizedCaller",
      "outputs": [
        {
          "internalType": "bool",
          "name": "",
          "type": "bool"
        }
      ],
      "stateMutability": "view",
      "type": "function"
    },
    {
      "inputs": [],
      "name": "owner",
      "outputs": [
        {
          "internalType": "address",
          "name": "",
          "type": "address"
        }
      ],
      "stateMutability": "view",
      "type": "function"
    },
    {
      "inputs": [
        {
          "internalType": "bytes32",
          "name": "",
          "type": "bytes32"
        }
      ],
      "name": "pendingInvoices",
      "outputs": [
        {
          "internalType": "uint256",
          "name": "invoiceId",
          "type": "uint256"
        },
        {
          "internalType": "string",
          "name": "commodity",
          "type": "string"
        },
        {
          "internalType": "uint256",
          "name": "amount",
          "type": "uint256"
        },
        {
          "internalType": "string",
          "name": "supplierCountry",
          "type": "string"
        },
        {
          "internalType": "string",
          "name": "buyerCountry",
          "type": "string"
        },
        {
          "internalType": "string",
          "name": "exporterName",
          "type": "string"
        },
        {
          "internalType": "string",
          "name": "buyerName",
          "type": "string"
        },
        {
          "internalType": "address",
          "name": "supplier",
          "type": "address"
        },
        {
          "internalType": "uint256",
          "name": "dueDate",
          "type": "uint256"
        },
        {
          "internalType": "string",
          "name": "documentHash",
          "type": "string"
        },
        {
          "internalType": "uint256",
          "name": "riskScore",
          "type": "uint256"
        },
        {
          "internalType": "string",
          "name": "creditRating",
          "type": "string"
        },
        {
          "internalType": "bool",
          "name": "verified",
          "type": "bool"
        },
        {
          "internalType": "uint256",
          "name": "timestamp",
          "type": "uint256"
        }
      ],
      "stateMutability": "view",
      "type": "function"
    },
    {
      "inputs": [
        {
          "components": [
            {
              "internalType": "uint256",
              "name": "invoiceId",
              "type": "uint256"
            },
            {
              "internalType": "string",
              "name": "commodity",
              "type": "string"
            },
            {
              "internalType": "uint256",
              "name": "amount",
              "type": "uint256"
            },
            {
              "internalType": "string",
              "name": "supplierCountry",
              "type": "string"
            },
            {
              "internalType": "string",
              "name": "buyerCountry",
              "type": "string"
            },
            {
              "internalType": "string",
              "name": "exporterName",
              "type": "string"
            },
            {
              "internalType": "string",
              "name": "buyerName",
              "type": "string"
            },
            {
              "internalType": "address",
              "name": "supplier",
              "type": "address"
            },
            {
              "internalType": "uint256",
              "name": "dueDate",
              "type": "uint256"
            },
            {
              "internalType": "string",
              "name": "documentHash",
              "type": "string"
            },
            {
              "internalType": "uint256",
              "name": "riskScore",
              "type": "uint256"
            },
            {
              "internalType": "string",
              "name": "creditRating",
              "type": "string"
            },
            {
              "internalType": "bool",
              "name": "verified",
              "type": "bool"
            },
            {
              "internalType": "uint256",
              "name": "timestamp",
              "type": "uint256"
            }
          ],
          "internalType": "struct CCIPSourceMinterMantle.InvoiceData",
          "name": "invoiceData",
          "type": "tuple"
        }
      ],
      "name": "sendInvoiceForNFTMinting",
      "outputs": [
        {
          "internalType": "bytes32",
          "name": "messageId",
          "type": "bytes32"
        }
      ],
      "stateMutability": "nonpayable",
      "type": "function"
    },
    {
      "inputs": [
        {
          "internalType": "address",
          "name": "caller",
          "type": "address"
        },
        {
          "internalType": "bool",
          "name": "authorized",
          "type": "bool"
        }
      ],
      "name": "setAuthorizedCaller",
      "outputs": [],
      "stateMutability": "nonpayable",
      "type": "function"
    },
    {
      "inputs": [
        {
          "internalType": "address",
          "name": "_destinationMinter",
          "type": "address"
        }
      ],
      "name": "setDestinationMinter",
      "outputs": [],
      "stateMutability": "nonpayable",
      "type": "function"
    },
    {
      "inputs": [
        {
          "internalType": "bytes4",
          "name": "interfaceId",
          "type": "bytes4"
        }
      ],
      "name": "supportsInterface",
      "outputs": [
        {
          "internalType": "bool",
          "name": "",
          "type": "bool"
        }
      ],
      "stateMutability": "view",
      "type": "function"
    },
    {
      "inputs": [
        {
          "internalType": "address",
          "name": "to",
          "type": "address"
        }
      ],
      "name": "transferOwnership",
      "outputs": [],
      "stateMutability": "nonpayable",
      "type": "function"
    },
    {
      "inputs": [
        {
          "internalType": "address",
          "name": "_beneficiary",
          "type": "address"
        }
      ],
      "name": "withdraw",
      "outputs": [],
      "stateMutability": "nonpayable",
      "type": "function"
    },
    {
      "inputs": [
        {
          "internalType": "address",
          "name": "_beneficiary",
          "type": "address"
        },
        {
          "internalType": "address",
          "name": "_token",
          "type": "address"
        }
      ],
      "name": "withdrawToken",
      "outputs": [],
      "stateMutability": "nonpayable",
      "type": "function"
    },
    {
      "stateMutability": "payable",
      "type": "receive"
    }
  ],
  "bytecode": "0x60e03462000145576200259490601f38839003908101601f19168201906001600160401b038211838310176200014a578083916040958694855283398101031262000145576200005d6020620000558362000160565b920162000160565b6001600160a01b03918083169081156200012d576080523315620000e9573360018060a01b0319600054161760005560a0521660c05233600052600460205280600020600160ff198254161790555161241e9081620001768239608051818181610e3e0152611068015260a05181818161014f0152610dbb015260c0518181816101b701526121eb0152f35b835162461bcd60e51b815260206004820152601860248201527f43616e6e6f7420736574206f776e657220746f207a65726f00000000000000006044820152606490fd5b84516335fdcccd60e21b815260006004820152602490fd5b600080fd5b634e487b7160e01b600052604160045260246000fd5b51906001600160a01b0382168203620001455756fe608080604052600436101561001d575b50361561001b57600080fd5b005b60003560e01c90816301ffc9a7146119b9575080630b7e57ec146118465780631a8af8d51461181d5780631a974855146117635780633aeac4e1146115b7578063454bbd291461152f57806351cff8d9146114ab578063536fff6c1461146c57806359d14b4114611414578063614f2058146113aa57806379ba50971461130157806385572ffb1461102b578063859829b214610e965780638da5cb5b14610e6d578063b0f479a114610e28578063f286358314610d71578063f2fde38b14610cb95763fb204721146100f0573861000f565b34610b51576100fe36611ddc565b33600052600460205260ff604060002054161580610ca4575b610c92578051158015610c85575b610c73576002546101409082906001600160a01b031661209e565b6040516320487ded60e01b81527f00000000000000000000000000000000000000000000000000000000000000006001600160a01b031692602082806101898660048301611fa5565b0381875afa918215610b5e57600092610c3f575b506040516370a0823160e01b8082523060048301526024957f00000000000000000000000000000000000000000000000000000000000000006001600160a01b0316929091906020818981875afa908115610b5e57600091610c0d575b508511610b97575060405163095ea7b360e01b81526001600160a01b03821660048201526024810185905291602090839060449082906000905af1908115610b5e5760009560209361026893610b6a575b506040519687809481936396f4e9f960e01b835260048301611fa5565b03925af1928315610b5e57600093610b25575b508260005260036020526040600020938151855560208201518051906001600160401b0382116107965781906102b46001890154611b3c565b601f8111610af0575b50602090601f8311600114610a7e57600092610a73575b50508160011b916000199060031b1c19161760018601555b6040820151600286015560608201518051906001600160401b03821161079657819061031b6003890154611b3c565b601f8111610a3e575b50602090601f83116001146109cc576000926109c1575b50508160011b916000199060031b1c19161760038601555b60808201518051906001600160401b0382116107965781906103786004890154611b3c565b601f811161098c575b50602090601f831160011461091a5760009261090f575b50508160011b916000199060031b1c19161760048601555b60a08201518051906001600160401b0382116107965781906103d56005890154611b3c565b601f81116108da575b50602090601f83116001146108685760009261085d575b50508160011b916000199060031b1c19161760058601555b60c08201518051906001600160401b0382116107965781906104326006890154611b3c565b601f8111610828575b50602090601f83116001146107b6576000926107ab575b50508160011b916000199060031b1c19161760068601555b6007850160018060a01b0360e0840151166001600160601b0360a01b82541617905561010082015160088601556101208201518051906001600160401b0382116107965781906104bd6009890154611b3c565b601f8111610761575b50602090601f83116001146106ef576000926106e4575b50508160011b916000199060031b1c19161760098601555b610140820151600a860155600b8501906101608301518051916001600160401b0383116106d057509160209691869361052e8354611b3c565b601f8111610695575b508890601f83116001146105fc57928267de41ba4fc9d91ad997937fc4f55c98717f1b690597cfe29f4fd092557257aa89bd611c36bd782fdb38311096936105e1966000926105f1575b50508160011b916000199060031b1c19161790555b6105b66101808301511515600c83019060ff801983541691151516179055565b600d6101a083015191015560018060a01b036002541695604051928392604084526040840190611a4c565b90898301520390a4604051908152f35b015190503880610581565b90601f19831691846000528a6000209260005b81811061067b5750937fc4f55c98717f1b690597cfe29f4fd092557257aa89bd611c36bd782fdb38311096936105e196936001938367de41ba4fc9d91ad99c9810610662575b505050811b019055610596565b015160001960f88460031b161c19169055388080610655565b8284015185558b9850600190940193928c01928c0161060f565b6106c090846000528a600020601f850160051c8101918c86106106c6575b601f0160051c0190612087565b38610537565b90915081906106b3565b634e487b7160e01b60009081526041600452fd5b0151905038806104dd565b9250600988016000526020600020906000935b601f1984168510610746576001945083601f1981161061072d575b505050811b0160098601556104f5565b015160001960f88460031b161c1916905538808061071d565b81810151835560209485019460019093019290910190610702565b6107909060098a016000526020600020601f850160051c810191602086106106c657601f0160051c0190612087565b386104c6565b82634e487b7160e01b60005260416004526000fd5b015190503880610452565b9250600688016000526020600020906000935b601f198416851061080d576001945083601f198116106107f4575b505050811b01600686015561046a565b015160001960f88460031b161c191690553880806107e4565b818101518355602094850194600190930192909101906107c9565b6108579060068a016000526020600020601f850160051c810191602086106106c657601f0160051c0190612087565b3861043b565b0151905038806103f5565b9250600588016000526020600020906000935b601f19841685106108bf576001945083601f198116106108a6575b505050811b01600586015561040d565b015160001960f88460031b161c19169055388080610896565b8181015183556020948501946001909301929091019061087b565b6109099060058a016000526020600020601f850160051c810191602086106106c657601f0160051c0190612087565b386103de565b015190503880610398565b9250600488016000526020600020906000935b601f1984168510610971576001945083601f19811610610958575b505050811b0160048601556103b0565b015160001960f88460031b161c19169055388080610948565b8181015183556020948501946001909301929091019061092d565b6109bb9060048a016000526020600020601f850160051c810191602086106106c657601f0160051c0190612087565b38610381565b01519050388061033b565b9250600388016000526020600020906000935b601f1984168510610a23576001945083601f19811610610a0a575b505050811b016003860155610353565b015160001960f88460031b161c191690553880806109fa565b818101518355602094850194600190930192909101906109df565b610a6d9060038a016000526020600020601f850160051c810191602086106106c657601f0160051c0190612087565b38610324565b0151905038806102d4565b9250600188016000526020600020906000935b601f1984168510610ad5576001945083601f19811610610abc575b505050811b0160018601556102ec565b015160001960f88460031b161c19169055388080610aac565b81810151835560209485019460019093019290910190610a91565b610b1f9060018a016000526020600020601f850160051c810191602086106106c657601f0160051c0190612087565b386102bd565b9092506020813d602011610b56575b81610b4160209383611bc8565b81010312610b515751913861027b565b600080fd5b3d9150610b34565b6040513d6000823e3d90fd5b610b8990853d8711610b90575b610b818183611bc8565b81019061206f565b503861024b565b503d610b77565b60405190815230600482015286856020838381885afa918215610b5e57600092610bd8575b6044935060405192634787a10360e11b84526004840152820152fd5b91506020833d602011610c05575b81610bf360209383611bc8565b81010312610b51576044925191610bbc565b3d9150610be6565b90506020813d602011610c37575b81610c2860209383611bc8565b81010312610b515751386101fa565b3d9150610c1b565b9091506020813d602011610c6b575b81610c5b60209383611bc8565b81010312610b515751903861019d565b3d9150610c4e565b6040516302f5f50560e31b8152600490fd5b5060208101515115610125565b604051635c427cd960e01b8152600490fd5b506000546001600160a01b0316331415610117565b34610b51576020366003190112610b5157610cd2611d50565b610cda611f53565b6001600160a01b0390811690338214610d2c57816001600160601b0360a01b6001541617600155600054167fed8889f560326eb138920d842192f0eb3dd22b4f139c87a2c57538e05bae1278600080a3005b60405162461bcd60e51b815260206004820152601760248201527f43616e6e6f74207472616e7366657220746f2073656c660000000000000000006044820152606490fd5b34610b5157610db76020610d8436611ddc565b6002546001600160a01b0391610d9b91831661209e565b9060405180809581946320487ded60e01b835260048301611fa5565b03917f0000000000000000000000000000000000000000000000000000000000000000165afa8015610b5e57600090610df6575b602090604051908152f35b506020813d8211610e20575b81610e0f60209383611bc8565b81010312610b515760209051610deb565b3d9150610e02565b34610b51576000366003190112610b51576040517f00000000000000000000000000000000000000000000000000000000000000006001600160a01b03168152602090f35b34610b51576000366003190112610b51576000546040516001600160a01b039091168152602090f35b34610b51576060366003190112610b51576004356044356001600160a01b0381811691829003610b5157610ec8611f53565b826000526003602052600d604060002060405192610ee584611b76565b81548452610ef560018301611be9565b602085015260028201546040850152610f1060038301611be9565b6060850152610f2160048301611be9565b6080850152610f3260058301611be9565b60a0850152610f4360068301611be9565b60c085015260078201541660e08401526008810154610100840152610f6a60098201611be9565b610120840152600a810154610140840152610f87600b8201611be9565b61016084015260ff600c82015416151561018084015201546101a0820152805115610ff15751604051918252827f9bee4b12c675541223ed3170d91f6b6ee7b4be0e529a36f6a73052e1057ef0c4602060243594a4600052600360205261001b604060002061229d565b60405162461bcd60e51b8152602060048201526012602482015271125b9d985b1a59081b595cdcd859d948125160721b6044820152606490fd5b34610b515760031960203682018113610b51576004356001600160401b0392838211610b515760a0908236030112610b51576001600160a01b03927f0000000000000000000000000000000000000000000000000000000000000000841633036112e95760405161109b81611b92565b8260040135815260248301358281168103610b5157848201526044830135828111610b51576110d09060043691860101611d95565b60408201526064830135828111610b51576110f19060043691860101611d95565b9260608201938452608481013590838211610b5157019136602384011215610b515760048301359081116112d35760405192611132868360051b0185611bc8565b81845260248685019260061b82010190368211610b5157602401915b81831061129c575050506080015251606081805181010312610b5157818101519060606040820151910151848116809103610b5157827f9bee4b12c675541223ed3170d91f6b6ee7b4be0e529a36f6a73052e1057ef0c48560039783600052888252600d6040600020604051926111c484611b76565b815484526111d460018301611be9565b85850152600282015460408501526111ed8c8301611be9565b60608501526111fe60048301611be9565b608085015261120f60058301611be9565b60a085015261122060068301611be9565b60c085015260078201541660e0840152600881015461010084015261124760098201611be9565b610120840152600a810154610140840152611264600b8201611be9565b61016084015260ff600c82015416151561018084015201546101a08201525193604051908152a46000525261001b604060002061229d565b604083360312610b51578660409182516112b581611bad565b6112be86611d66565b8152828601358382015281520192019161114e565b634e487b7160e01b600052604160045260246000fd5b6040516335fdcccd60e21b8152336004820152602490fd5b34610b51576000366003190112610b51576001546001600160a01b03808216330361136c57600054916001600160601b0360a01b903382851617600055166001553391167f8be0079c531659141344cd1fd0a4f28419497f9722a3daafe3b4186f6b6457e0600080a3005b60405162461bcd60e51b815260206004820152601660248201527526bab9ba10313290383937b837b9b2b21037bbb732b960511b6044820152606490fd5b34610b51576020366003190112610b51576113c3611d50565b6113cb611f53565b600280546001600160a01b039283166001600160a01b0319821681179092559091167fcae8a7fe46713e5250dc2219f6ce0e5c60f0d3553a76d3eca0ba9fbbaaae3a8e600080a3005b34610b51576020366003190112610b515760206001600160a01b0380611438611d50565b16806000526004835260ff6040600020541691821561145e575b50506040519015158152f35b600054161490508280611452565b34610b51576020366003190112610b51576001600160a01b0361148d611d50565b166000526004602052602060ff604060002054166040519015158152f35b34610b51576020366003190112610b51576114c4611d50565b6114cc611f53565b4790811561151d57600080808085855af16114e561231b565b50156114ed57005b604051639d11f56360e01b81523360048201526001600160a01b0390911660248201526044810191909152606490fd5b604051630686827b60e51b8152600490fd5b34610b51576040366003190112610b5157611548611d50565b6024359081151590818303610b51577fad857fa38c9319cb80848f1ef2f924383b90297eb5d71755738ff037d100faa1916115ae602092611587611f53565b60018060a01b031694856000526004845260406000209060ff801983541691151516179055565b604051908152a2005b34610b51576040366003190112610b51576115d0611d50565b6024356001600160a01b0381169190829003610b51576115ee611f53565b6040516370a0823160e01b81523060048201526020928382602481845afa918215610b5e57600092611734575b50811561151d5760405163a9059cbb60e01b8582019081526001600160a01b039490941660248201526044808201939093529182526116ad926000908190611664606486611bc8565b6040519461167186611bad565b8786527f5361666545524332303a206c6f772d6c6576656c2063616c6c206661696c656488870152519082855af16116a761231b565b9161234b565b80519082821592831561171c575b505050156116c557005b6084906040519062461bcd60e51b82526004820152602a60248201527f5361666545524332303a204552433230206f7065726174696f6e20646964206e6044820152691bdd081cdd58d8d9595960b21b6064820152fd5b61172c935082018101910161206f565b8282816116bb565b9091508381813d831161175c575b61174c8183611bc8565b81010312610b515751908461161b565b503d611742565b34610b51576020366003190112610b515760043560005260036020526040600020805461181961179560018401611be9565b926002810154906117a860038201611be9565b6117b460048301611be9565b6117c060058401611be9565b6117cc60068501611be9565b60018060a01b036007860154166008860154916117eb60098801611be9565b93600a880154956117fe600b8a01611be9565b97600d60ff600c8c0154169a01549a6040519e8f9e8f611c8f565b0390f35b34610b51576000366003190112610b51576002546040516001600160a01b039091168152602090f35b34610b5157602080600319360112610b51576040519061186582611b76565b6000825260609182828201526000604082015282808201528260808201528260a08201528260c0820152600060e0820152600d61010060008184015261012085818501526101406000818601526101609087828701526101809260008488015260006101a08098015260043560005260038852604060002094604051996118eb8b611b76565b86548b526118fb60018801611be9565b8a8c0152600287015460408c015261191560038801611be9565b908b015261192560048701611be9565b60808b015261193660058701611be9565b60a08b015261194760068701611be9565b60c08b015260078601546001600160a01b031660e08b01526008860154908a015261197460098601611be9565b90890152600a8401549088015261198d600b8401611be9565b9087015260ff600c83015416151590860152015490830152611819604051928284938452830190611a4c565b34610b51576020366003190112610b51576004359063ffffffff60e01b8216809203610b51576020916385572ffb60e01b81149081156119fb575b5015158152f35b6301ffc9a760e01b149050836119f4565b919082519283825260005b848110611a38575050826000602080949584010152601f8019910116010190565b602081830181015184830182015201611a17565b9081518152611b21611b02611ace611abc611aaa611a98611a7c60208901516101c08060208b0152890190611a0c565b60408901516040890152606089015188820360608a0152611a0c565b60808801518782036080890152611a0c565b60a087015186820360a0880152611a0c565b60c086015185820360c0870152611a0c565b60e0858101516001600160a01b03169085015261010080860151908501526101208086015185830391860191909152611a0c565b6101408085015190840152610160808501519084830390850152611a0c565b91610180808201511515908301526101a08091015191015290565b90600182811c92168015611b6c575b6020831014611b5657565b634e487b7160e01b600052602260045260246000fd5b91607f1691611b4b565b6101c081019081106001600160401b038211176112d357604052565b60a081019081106001600160401b038211176112d357604052565b604081019081106001600160401b038211176112d357604052565b90601f801991011681019081106001600160401b038211176112d357604052565b9060405191826000825492611bfd84611b3c565b908184526001948581169081600014611c6c5750600114611c29575b5050611c2792500383611bc8565b565b9093915060005260209081600020936000915b818310611c54575050611c2793508201013880611c19565b85548884018501529485019487945091830191611c3c565b915050611c2794506020925060ff191682840152151560051b8201013880611c19565b9a9893959c9e9d9c611cee8c611d439c976101a09f9b99611d0a97611ce091611ccd611d2e9e99611cfc9987526101c0806020890152870190611a0c565b9160408601528482036060860152611a0c565b916080818403910152611a0c565b8c810360a08e015290611a0c565b908a820360c08c0152611a0c565b6001600160a01b0390931660e0890152610100880152868203610120880152611a0c565b91610140850152838203610160850152611a0c565b9415156101808201520152565b600435906001600160a01b0382168203610b5157565b35906001600160a01b0382168203610b5157565b6001600160401b0381116112d357601f01601f191660200190565b81601f82011215610b5157803590611dac82611d7a565b92611dba6040519485611bc8565b82845260208383010111610b5157816000926020809301838601378301015290565b60031990602081830112610b51576004918235916001600160401b0391828411610b51576101c0908483030112610b515760405193611e1a85611b76565b8381013585526024840135838111610b51578282611e3a92870101611d95565b6020860152604484013560408601526064840135838111610b51578282611e6392870101611d95565b60608601526084840135838111610b51578282611e8292870101611d95565b608086015260a4840135838111610b51578282611ea192870101611d95565b60a086015260c4840135838111610b51578282611ec092870101611d95565b60c0860152611ed160e48501611d66565b60e0860152610104840135610100860152610124840135838111610b51578282611efd92870101611d95565b610120860152610144840135610140860152610164840135928311610b5157611f2892840101611d95565b610160830152610184810135908115158203610b51576101a49161018084015201356101a082015290565b6000546001600160a01b03163303611f6757565b60405162461bcd60e51b815260206004820152601660248201527527b7363c9031b0b63630b1363290313c9037bbb732b960511b6044820152606490fd5b91909167de41ba4fc9d91ad9815260406020918183820152611fd2855160a08484015260e0830190611a0c565b91611fee8487015193603f199485858303016060860152611a0c565b8187015194848483030160808501528080875193848152019601926000905b83821061204657505050505060c06080612043959660018060a01b0360608201511660a085015201519282850301910152611a0c565b90565b845180516001600160a01b0316895283015188840152968701969382019360019091019061200d565b90816020910312610b5157518015158103610b515790565b818110612092575050565b60008155600101612087565b604051916120ab83611b92565b60609182845282602085015282604085015282600094858282015260800152815160208301516040840151918585015160808601519560a08101519660c082015197600160a01b60019003988960e085015116610100850151906101208601519261014087015194610160880151966101808901511515986101a00151996040519d8e9d60208f019d61213d9e611c8f565b03601f198101825261214f9082611bc8565b82604051921660208301526020825261216782611bad565b6040519160208301956001600160401b0396848110888211176122405760405280845260405195602087018781108982111761222c576040526207a1208752604051966397a657c960e01b602089015251602488015260248752860196868810908811176122185750856040526121dd86611b92565b8552608084015260a08301527f00000000000000000000000000000000000000000000000000000000000000001660c082015260e081015290565b634e487b7160e01b81526041600452602490fd5b634e487b7160e01b83526041600452602483fd5b634e487b7160e01b82526041600452602482fd5b61225e8154611b3c565b9081612268575050565b81601f6000931160011461227a575055565b908083918252612299601f60208420940160051c840160018501612087565b5555565b600d6000918281556122b160018201612254565b8260028201556122c360038201612254565b6122cf60048201612254565b6122db60058201612254565b6122e760068201612254565b8260078201558260088201556122ff60098201612254565b82600a820155612311600b8201612254565b82600c8201550155565b3d15612346573d9061232c82611d7a565b9161233a6040519384611bc8565b82523d6000602084013e565b606090565b919290156123ad575081511561235f575090565b3b156123685790565b60405162461bcd60e51b815260206004820152601d60248201527f416464726573733a2063616c6c20746f206e6f6e2d636f6e74726163740000006044820152606490fd5b8251909150156123c05750805190602001fd5b60405162461bcd60e51b8152602060048201529081906123e4906024830190611a0c565b0390fdfea2646970667358221220ba32d5cfd5f2ae4f66e363f1ae02fe500ca73cc2e1464f161cbc87021976186664736f6c63430008140033",
  "linkReferences": {},
  "deployedLinkReferences": {}
}