{
  "_format": "hh-sol-artifact-1",
  "contractName": "ChainlinkEnhancedPriceManager",
  "sourceName": "contracts/ChainlinkEnhancedPriceManager.sol",
  "abi": [
    {
      "inputs": [
        {
          "internalType": "address",
          "name": "_ethUsdFeed",
          "type": "address"
        },
        {
          "internalType": "address",
          "name": "_btcUsdFeed",
          "type": "address"
        },
        {
          "internalType": "address",
          "name": "_usdcUsdFeed",
          "type": "address"
        },
        {
          "internalType": "address",
          "name": "_linkUsdFeed",
          "type": "address"
        }
      ],
      "stateMutability": "nonpayable",
      "type": "constructor"
    },
    {
      "inputs": [
        {
          "internalType": "string",
          "name": "commodity",
          "type": "string"
        }
      ],
      "name": "CommodityNotSupported",
      "type": "error"
    },
    {
      "inputs": [
        {
          "internalType": "string",
          "name": "currency",
          "type": "string"
        }
      ],
      "name": "CurrencyNotSupported",
      "type": "error"
    },
    {
      "inputs": [],
      "name": "InvalidPrice",
      "type": "error"
    },
    {
      "inputs": [],
      "name": "PriceFeedNotSet",
      "type": "error"
    },
    {
      "inputs": [],
      "name": "StalePrice",
      "type": "error"
    },
    {
      "anonymous": false,
      "inputs": [
        {
          "indexed": true,
          "internalType": "string",
          "name": "commodity",
          "type": "string"
        },
        {
          "indexed": false,
          "internalType": "int256",
          "name": "price",
          "type": "int256"
        },
        {
          "indexed": false,
          "internalType": "uint256",
          "name": "timestamp",
          "type": "uint256"
        }
      ],
      "name": "CommodityPriceUpdated",
      "type": "event"
    },
    {
      "anonymous": false,
      "inputs": [
        {
          "indexed": true,
          "internalType": "string",
          "name": "commodity",
          "type": "string"
        },
        {
          "indexed": false,
          "internalType": "uint256",
          "name": "volatility",
          "type": "uint256"
        }
      ],
      "name": "CommodityVolatilityUpdated",
      "type": "event"
    },
    {
      "anonymous": false,
      "inputs": [
        {
          "indexed": true,
          "internalType": "string",
          "name": "country",
          "type": "string"
        },
        {
          "indexed": false,
          "internalType": "uint256",
          "name": "riskScore",
          "type": "uint256"
        }
      ],
      "name": "CountryRiskUpdated",
      "type": "event"
    },
    {
      "anonymous": false,
      "inputs": [
        {
          "indexed": true,
          "internalType": "string",
          "name": "currency",
          "type": "string"
        },
        {
          "indexed": false,
          "internalType": "int256",
          "name": "rate",
          "type": "int256"
        },
        {
          "indexed": false,
          "internalType": "uint256",
          "name": "timestamp",
          "type": "uint256"
        }
      ],
      "name": "CurrencyRateUpdated",
      "type": "event"
    },
    {
      "anonymous": false,
      "inputs": [
        {
          "indexed": true,
          "internalType": "address",
          "name": "from",
          "type": "address"
        },
        {
          "indexed": true,
          "internalType": "address",
          "name": "to",
          "type": "address"
        }
      ],
      "name": "OwnershipTransferRequested",
      "type": "event"
    },
    {
      "anonymous": false,
      "inputs": [
        {
          "indexed": true,
          "internalType": "address",
          "name": "from",
          "type": "address"
        },
        {
          "indexed": true,
          "internalType": "address",
          "name": "to",
          "type": "address"
        }
      ],
      "name": "OwnershipTransferred",
      "type": "event"
    },
    {
      "anonymous": false,
      "inputs": [
        {
          "indexed": true,
          "internalType": "string",
          "name": "feedType",
          "type": "string"
        },
        {
          "indexed": true,
          "internalType": "address",
          "name": "feedAddress",
          "type": "address"
        }
      ],
      "name": "PriceFeedUpdated",
      "type": "event"
    },
    {
      "inputs": [],
      "name": "COMMODITY_STALENESS_THRESHOLD",
      "outputs": [
        {
          "internalType": "uint256",
          "name": "",
          "type": "uint256"
        }
      ],
      "stateMutability": "view",
      "type": "function"
    },
    {
      "inputs": [],
      "name": "DECIMALS",
      "outputs": [
        {
          "internalType": "uint256",
          "name": "",
          "type": "uint256"
        }
      ],
      "stateMutability": "view",
      "type": "function"
    },
    {
      "inputs": [],
      "name": "PRICE_STALENESS_THRESHOLD",
      "outputs": [
        {
          "internalType": "uint256",
          "name": "",
          "type": "uint256"
        }
      ],
      "stateMutability": "view",
      "type": "function"
    },
    {
      "inputs": [],
      "name": "acceptOwnership",
      "outputs": [],
      "stateMutability": "nonpayable",
      "type": "function"
    },
    {
      "inputs": [],
      "name": "btcUsdFeed",
      "outputs": [
        {
          "internalType": "contract AggregatorV3Interface",
          "name": "",
          "type": "address"
        }
      ],
      "stateMutability": "view",
      "type": "function"
    },
    {
      "inputs": [
        {
          "internalType": "string",
          "name": "commodity",
          "type": "string"
        },
        {
          "internalType": "string",
          "name": "supplierCountry",
          "type": "string"
        },
        {
          "internalType": "string",
          "name": "buyerCountry",
          "type": "string"
        },
        {
          "internalType": "uint256",
          "name": "amount",
          "type": "uint256"
        }
      ],
      "name": "calculateTradeRisk",
      "outputs": [
        {
          "internalType": "uint256",
          "name": "riskScore",
          "type": "uint256"
        }
      ],
      "stateMutability": "view",
      "type": "function"
    },
    {
      "inputs": [
        {
          "internalType": "string",
          "name": "",
          "type": "string"
        }
      ],
      "name": "commodityLastUpdate",
      "outputs": [
        {
          "internalType": "uint256",
          "name": "",
          "type": "uint256"
        }
      ],
      "stateMutability": "view",
      "type": "function"
    },
    {
      "inputs": [
        {
          "internalType": "string",
          "name": "",
          "type": "string"
        }
      ],
      "name": "commodityPrices",
      "outputs": [
        {
          "internalType": "int256",
          "name": "",
          "type": "int256"
        }
      ],
      "stateMutability": "view",
      "type": "function"
    },
    {
      "inputs": [
        {
          "internalType": "string",
          "name": "",
          "type": "string"
        }
      ],
      "name": "commodityVolatility",
      "outputs": [
        {
          "internalType": "uint256",
          "name": "",
          "type": "uint256"
        }
      ],
      "stateMutability": "view",
      "type": "function"
    },
    {
      "inputs": [
        {
          "internalType": "uint256",
          "name": "amount",
          "type": "uint256"
        },
        {
          "internalType": "string",
          "name": "fromCurrency",
          "type": "string"
        }
      ],
      "name": "convertToUsd",
      "outputs": [
        {
          "internalType": "uint256",
          "name": "",
          "type": "uint256"
        }
      ],
      "stateMutability": "view",
      "type": "function"
    },
    {
      "inputs": [
        {
          "internalType": "string",
          "name": "",
          "type": "string"
        }
      ],
      "name": "countryRiskScores",
      "outputs": [
        {
          "internalType": "uint256",
          "name": "",
          "type": "uint256"
        }
      ],
      "stateMutability": "view",
      "type": "function"
    },
    {
      "inputs": [
        {
          "internalType": "string",
          "name": "",
          "type": "string"
        }
      ],
      "name": "currencyLastUpdate",
      "outputs": [
        {
          "internalType": "uint256",
          "name": "",
          "type": "uint256"
        }
      ],
      "stateMutability": "view",
      "type": "function"
    },
    {
      "inputs": [
        {
          "internalType": "string",
          "name": "",
          "type": "string"
        }
      ],
      "name": "currencyRates",
      "outputs": [
        {
          "internalType": "int256",
          "name": "",
          "type": "int256"
        }
      ],
      "stateMutability": "view",
      "type": "function"
    },
    {
      "inputs": [],
      "name": "ethUsdFeed",
      "outputs": [
        {
          "internalType": "contract AggregatorV3Interface",
          "name": "",
          "type": "address"
        }
      ],
      "stateMutability": "view",
      "type": "function"
    },
    {
      "inputs": [],
      "name": "getBtcUsdPrice",
      "outputs": [
        {
          "internalType": "int256",
          "name": "price",
          "type": "int256"
        },
        {
          "internalType": "uint256",
          "name": "updatedAt",
          "type": "uint256"
        }
      ],
      "stateMutability": "view",
      "type": "function"
    },
    {
      "inputs": [
        {
          "internalType": "string",
          "name": "commodity",
          "type": "string"
        }
      ],
      "name": "getCommodityPrice",
      "outputs": [
        {
          "internalType": "int256",
          "name": "price",
          "type": "int256"
        },
        {
          "internalType": "uint256",
          "name": "updatedAt",
          "type": "uint256"
        }
      ],
      "stateMutability": "view",
      "type": "function"
    },
    {
      "inputs": [
        {
          "internalType": "string",
          "name": "commodity",
          "type": "string"
        }
      ],
      "name": "getCommodityVolatility",
      "outputs": [
        {
          "internalType": "uint256",
          "name": "",
          "type": "uint256"
        }
      ],
      "stateMutability": "view",
      "type": "function"
    },
    {
      "inputs": [
        {
          "internalType": "string",
          "name": "country",
          "type": "string"
        }
      ],
      "name": "getCountryRisk",
      "outputs": [
        {
          "internalType": "uint256",
          "name": "",
          "type": "uint256"
        }
      ],
      "stateMutability": "view",
      "type": "function"
    },
    {
      "inputs": [
        {
          "internalType": "string",
          "name": "currency",
          "type": "string"
        }
      ],
      "name": "getCurrencyRate",
      "outputs": [
        {
          "internalType": "int256",
          "name": "rate",
          "type": "int256"
        },
        {
          "internalType": "uint256",
          "name": "updatedAt",
          "type": "uint256"
        }
      ],
      "stateMutability": "view",
      "type": "function"
    },
    {
      "inputs": [],
      "name": "getEthUsdPrice",
      "outputs": [
        {
          "internalType": "int256",
          "name": "price",
          "type": "int256"
        },
        {
          "internalType": "uint256",
          "name": "updatedAt",
          "type": "uint256"
        }
      ],
      "stateMutability": "view",
      "type": "function"
    },
    {
      "inputs": [],
      "name": "getUsdcUsdPrice",
      "outputs": [
        {
          "internalType": "int256",
          "name": "price",
          "type": "int256"
        },
        {
          "internalType": "uint256",
          "name": "updatedAt",
          "type": "uint256"
        }
      ],
      "stateMutability": "view",
      "type": "function"
    },
    {
      "inputs": [],
      "name": "linkUsdFeed",
      "outputs": [
        {
          "internalType": "contract AggregatorV3Interface",
          "name": "",
          "type": "address"
        }
      ],
      "stateMutability": "view",
      "type": "function"
    },
    {
      "inputs": [],
      "name": "owner",
      "outputs": [
        {
          "internalType": "address",
          "name": "",
          "type": "address"
        }
      ],
      "stateMutability": "view",
      "type": "function"
    },
    {
      "inputs": [
        {
          "internalType": "address",
          "name": "to",
          "type": "address"
        }
      ],
      "name": "transferOwnership",
      "outputs": [],
      "stateMutability": "nonpayable",
      "type": "function"
    },
    {
      "inputs": [
        {
          "internalType": "string",
          "name": "commodity",
          "type": "string"
        },
        {
          "internalType": "int256",
          "name": "price",
          "type": "int256"
        }
      ],
      "name": "updateCommodityPrice",
      "outputs": [],
      "stateMutability": "nonpayable",
      "type": "function"
    },
    {
      "inputs": [
        {
          "internalType": "string",
          "name": "commodity",
          "type": "string"
        },
        {
          "internalType": "uint256",
          "name": "volatility",
          "type": "uint256"
        }
      ],
      "name": "updateCommodityVolatility",
      "outputs": [],
      "stateMutability": "nonpayable",
      "type": "function"
    },
    {
      "inputs": [
        {
          "internalType": "string",
          "name": "country",
          "type": "string"
        },
        {
          "internalType": "uint256",
          "name": "riskScore",
          "type": "uint256"
        }
      ],
      "name": "updateCountryRisk",
      "outputs": [],
      "stateMutability": "nonpayable",
      "type": "function"
    },
    {
      "inputs": [
        {
          "internalType": "string",
          "name": "feedType",
          "type": "string"
        },
        {
          "internalType": "address",
          "name": "feedAddress",
          "type": "address"
        }
      ],
      "name": "updatePriceFeed",
      "outputs": [],
      "stateMutability": "nonpayable",
      "type": "function"
    },
    {
      "inputs": [],
      "name": "usdcUsdFeed",
      "outputs": [
        {
          "internalType": "contract AggregatorV3Interface",
          "name": "",
          "type": "address"
        }
      ],
      "stateMutability": "view",
      "type": "function"
    }
  ],
  "bytecode": "0x60803461046657601f620016ae38819003918201601f191683019291906001600160401b0384118385101761046b5781608092849260409687528339810103126104665761004c81610481565b61005860208301610481565b906100706060610069868601610481565b9401610481565b92331561042257600160a01b60019003199133836000541617600055600160a01b600190039182809216846002541617600255816003951684865416178555168260045416176004556005931690835416178255825190622723a760e91b90818352600891828285015260238094206412a05f2000905585519081528181016009905283429120558451836247485360e81b918281528484820152206347868c0090558551908152818101600990528342912055845183624b455360e81b91828152848482015220640306dc420090558551908152818101600990528342912055845183622d20a960e91b91828152848482015220636b49d2009055855190815281810160099052834291205584519065436f6666656560d01b93848352600691828085015260268094206314dc9380905587519386855260079485858201528142912055885196875280600b9788868201522060199055885164436f636f6160d81b90818152858a820152602590206441314cf00090558951818152868a820152429060259020558951908152878982015260259020601e905588516311dbdb1960e21b9081815285600482015260249020642e90edd0009055895181815286600482015242906024902055895190815287600482015260249020600f905582818a51816521b7ba3a37b760d11b9182815288808201522063047868c090558b51818152888882015282429120558b51908152898782015220558851664361737361766160c81b9081815285878201526027902063017d784090558951818152868082015242906027902055895190815287868201526027902060149055885193644b656e796160d81b8552600a98858a82819801526025902060199055858b5191644768616e6160d81b835282015260259020601e905589516b536f7574682041667269636160a01b815285600c820152602c902060149055895167426f747377616e6160c01b8152858882015260289020600f90558951664e69676572696160c81b8152858782015260279020602d9055895167457468696f70696160c01b815285888201526028902060329055838a516754616e7a616e696160c01b815286898201526028902055848a5191655567616e646160d01b83528201522060289055828851916255534160e81b8352820152205583855191664765726d616e7960c81b83528201526027902055825161554b60f01b815282600282015260229020600c9055818351916a4e65746865726c616e647360a81b8352820152602b902055516112189081620004968239f35b845162461bcd60e51b815260206004820152601860248201527f43616e6e6f7420736574206f776e657220746f207a65726f00000000000000006044820152606490fd5b600080fd5b634e487b7160e01b600052604160045260246000fd5b51906001600160a01b03821682036104665756fe6040608081526004908136101561001557600080fd5b6000803560e01c806302331c7414610f1657806305b6562514610edf5780630932a21414610cd957806316c5ea5414610c90578063203c82b714610c475780632be50f6314610ba15780632e0f262514610b855780634d9a75e514610b5d57806353496bb914610aa357806356f3be5614610a5a578063573c20f61461099e5780635c40b1f1146108a15780636063e7121461085857806364b607001461080057806379ba5097146107585780638009b7bd1461072f5780638da5cb5b1461070757806393e33c78146106de5780639e8b7912146106c0578063a0a8045e14610668578063a4ca73aa146104be578063a89bbd8c146103f4578063cdb4aef014610313578063d310d14d146102ea578063e020e3df146102a1578063e221bd3b146102a1578063f25b9caa14610280578063f2fde38b146101bc5763fbf8a23a1461015f57600080fd5b346101b95760203660031901126101b9578235906001600160401b0382116101b95750602061019581946101a793369101611019565b818451938285809451938492016110a5565b8101600b815203019020549051908152f35b80fd5b5091903461027c57602036600319011261027c576001600160a01b03823581811693919290849003610278576101f06110c8565b338414610235575050600180546001600160a01b031916831790558254167fed8889f560326eb138920d842192f0eb3dd22b4f139c87a2c57538e05bae12788380a380f35b906020606492519162461bcd60e51b8352820152601760248201527f43616e6e6f74207472616e7366657220746f2073656c660000000000000000006044820152fd5b8480fd5b8280fd5b50903461029d578160031936011261029d5760209051610e108152f35b5080fd5b50346101b95760203660031901126101b9578235906001600160401b0382116101b95750602061019581946102d893369101611019565b8101600a815203019020549051908152f35b50903461029d578160031936011261029d5760035490516001600160a01b039091168152602090f35b508290346101b957806003193601126101b95781546001600160a01b031680156103e45760a08391855194858092633fabe5a360e21b82525afa9182156103d957809381936103a0575b50610e1061036b8442611166565b1161039157831315610384575082519182526020820152f35b835162bfc92160e01b8152fd5b508351630cd5fa0760e11b8152fd5b9092506103c591935060a03d81116103d2575b6103bd8183610ff8565b810190611131565b509492505092918561035d565b503d6103b3565b8451903d90823e3d90fd5b8351637e68a04560e01b81528390fd5b508290346101b95760203660031901126101b9578135906001600160401b0382116101b957506104279036908301611019565b82519161045f602083519481818187019761044381838b6110a5565b81016008815203019020549486518093819287519283916110a5565b81016009815203019020549183156104a05750620151806104808342611166565b11610492575082519182526020820152f35b8351630cd5fa0760e11b8152fd5b845163b3aa8c6160e01b81529182916104ba918301611189565b0390fd5b50346101b95760803660031901126101b9576001600160401b0392803584811161027c576104ef9036908301611019565b9160243585811161029d576105079036908401611019565b9460443590811161029d5761051f9036908401611019565b94606435908551809782518093836020809c8197829783968480970191610545926110a5565b8101600a81520301902054928a519283828193519283910191610567926110a5565b8101600a8152030190205461057b916111d5565b60011c9587519283828193519283910191610595926110a5565b8101600b815203019020549064174876e800811160001461064a575060ff60145b16936028810290808204602814901517156106375760288202918083046028149015171561063757906105e8916111d5565b9160148402938085046014149015171561062457505060649161060a916111d5565b04906064821161061b575b51908152f35b60649150610615565b634e487b7160e01b825260119052602490fd5b634e487b7160e01b835260118452602483fd5b640ba43b7400101561065f5760ff600a6105b6565b60ff60056105b6565b508290346101b957806003193601126101b9576002546001600160a01b031680156103e45760a08391855194858092633fabe5a360e21b82525afa9182156103d957809381936103a05750610e1061036b8442611166565b50903461029d578160031936011261029d5760209051620151808152f35b50903461029d578160031936011261029d5760055490516001600160a01b039091168152602090f35b50903461029d578160031936011261029d57905490516001600160a01b039091168152602090f35b50903461029d578160031936011261029d5760025490516001600160a01b039091168152602090f35b5091903461027c578260031936011261027c57600154916001600160a01b039182841633036107c457505082546001600160a01b03198082163390811786559316600155167f8be0079c531659141344cd1fd0a4f28419497f9722a3daafe3b4186f6b6457e08380a380f35b906020606492519162461bcd60e51b8352820152601660248201527526bab9ba10313290383937b837b9b2b21037bbb732b960511b6044820152fd5b508290346101b957806003193601126101b9576003546001600160a01b031680156103e45760a08391855194858092633fabe5a360e21b82525afa9182156103d957809381936103a05750610e1061036b8442611166565b50346101b95760203660031901126101b9578235906001600160401b0382116101b957506020610195819461088f93369101611019565b81016008815203019020549051908152f35b5091903461027c578060031936011261027c5781356001600160401b03811161099a576108d19036908401611019565b602435926108dd6110c8565b848413156109675750906109577fd5fe59f3b890f412e030c5230dd4f7379ad535679b39e254ca695d0cc9397d0d92610941835186835191602081818701946109278183886110a5565b8101600681520301902055845191829184519283916110a5565b81019060078252602081429303019020556111b5565b928151908152426020820152a280f35b606490602084519162461bcd60e51b8352820152600d60248201526c496e76616c696420707269636560981b6044820152fd5b8380fd5b50346101b957816003193601126101b9576024359280356001600160401b03851161027c57836109d56109ed959636908501611019565b815180968192632a26ef6360e21b8352868301611189565b0381305afa938415610a50578394610a21575b50838102938185041490151715610624576020836305f5e100865191048152f35b9093508481813d8311610a49575b610a398183610ff8565b8101031261027c57519238610a00565b503d610a2f565b85513d85823e3d90fd5b50346101b95760203660031901126101b9578235906001600160401b0382116101b9575060206101958194610a9193369101611019565b81016009815203019020549051908152f35b50913461027c57610ab336611074565b91610abc6110c8565b60648311610b1a575081610b116020927fcb7ce91d6ab0f54f1730686fdf116fc530e83f3e8f5b1b04d8082e892960614194865185818451610b0181838589016110a5565b8101600a815203019020556111b5565b9351908152a280f35b606490602085519162461bcd60e51b8352820152601960248201527f5269736b2073636f7265206d757374206265203c3d20313030000000000000006044820152fd5b50913461027c578260031936011261027c575490516001600160a01b03909116815260209150f35b50903461029d578160031936011261029d576020905160088152f35b508290346101b95760203660031901126101b9578135906001600160401b0382116101b95750610bd49036908301611019565b825191610c0c6020835194818181870197610bf081838b6110a5565b81016006815203019020549486518093819287519283916110a5565b8101600781520301902054918315610c2d5750620151806104808342611166565b8451633a25daa360e21b81529182916104ba918301611189565b50346101b95760203660031901126101b9578235906001600160401b0382116101b9575060206101958194610c7e93369101611019565b81016006815203019020549051908152f35b50346101b95760203660031901126101b9578235906001600160401b0382116101b9575060206101958194610cc793369101611019565b81016007815203019020549051908152f35b5091903461027c578060031936011261027c5781356001600160401b03811161099a57610d099036908401611019565b6024356001600160a01b038116939084900361027857610d9392610d2b6110c8565b82517f7ffda7a2f43427562e5fee12d8c875cfc089dab65bc5edaa49a9737c5c49338c602085019182206611551217d554d160ca1b60208551610d6d81610fc7565b60078152015203610dba575050600280546001600160a01b03191685179055505b6111b5565b7f74b9819a3b3ab6f1735c195541c4352dec722e0e22f92198d9f1719d2e89a7578380a380f35b7f9eacd87d40a22d0633c4d8abeff80d2d24381bf28e23114db31509c61553d01b8451822066109510d7d554d160ca1b60208551610df781610fc7565b60078152015203610e1c575050600380546001600160a01b03191685179055506111b5565b7f5ed9cfc2fb74ac119ce72c8da88dd99862dbee5eae48bcebbe89f75da2cb4f9184518220671554d110d7d554d160c21b60208551610e5a81610fc7565b60088152015203610e7c57505080546001600160a01b031916841790556111b5565b7fea78373c1c3351f7d386f8efe3d01420d88705c7798f1fa92f98a09f3870f249925060206713125392d7d554d160c21b91855190209251610ebd81610fc7565b60088152015203610d8e57600580546001600160a01b031916841790556111b5565b50346101b95760203660031901126101b9578235906001600160401b0382116101b95750602061019581946101a793369101611019565b50913461027c57610f2636611074565b91610f2f6110c8565b60648311610f84575081610b116020927fec0318247fc3ccdbcfac7f74e5da8b421a27ec2f509c821c2873fefd61cf3d9294865185818451610f7481838589016110a5565b8101600b815203019020556111b5565b606490602085519162461bcd60e51b8352820152601960248201527f566f6c6174696c697479206d757374206265203c3d20313030000000000000006044820152fd5b604081019081106001600160401b03821117610fe257604052565b634e487b7160e01b600052604160045260246000fd5b90601f801991011681019081106001600160401b03821117610fe257604052565b81601f8201121561106f578035906001600160401b038211610fe2576040519261104d601f8401601f191660200185610ff8565b8284526020838301011161106f57816000926020809301838601378301015290565b600080fd5b604060031982011261106f57600435906001600160401b03821161106f5761109e91600401611019565b9060243590565b60005b8381106110b85750506000910152565b81810151838201526020016110a8565b6000546001600160a01b031633036110dc57565b60405162461bcd60e51b815260206004820152601660248201527527b7363c9031b0b63630b1363290313c9037bbb732b960511b6044820152606490fd5b519069ffffffffffffffffffff8216820361106f57565b908160a091031261106f576111458161111a565b9160208201519160408101519161116360806060840151930161111a565b90565b9190820391821161117357565b634e487b7160e01b600052601160045260246000fd5b604091602082526111a981518092816020860152602086860191016110a5565b601f01601f1916010190565b6111cd906020604051928284809451938492016110a5565b810103902090565b919082018092116111735756fea2646970667358221220266b22be6db0c948c056a75d0b7fe4eb0f947775cdd76df97af3ec5490cece1764736f6c63430008140033",
  "linkReferences": {},
  "deployedLinkReferences": {}
}