{
  "_format": "hh-sol-artifact-1",
  "contractName": "EarnXPriceManager",
  "sourceName": "contracts/EarnXPriceManager.sol",
  "abi": [
    {
      "inputs": [
        {
          "internalType": "address",
          "name": "_ethUsdFeed",
          "type": "address"
        },
        {
          "internalType": "address",
          "name": "_usdcUsdFeed",
          "type": "address"
        },
        {
          "internalType": "address",
          "name": "_btcUsdFeed",
          "type": "address"
        },
        {
          "internalType": "address",
          "name": "_linkUsdFeed",
          "type": "address"
        }
      ],
      "stateMutability": "nonpayable",
      "type": "constructor"
    },
    {
      "anonymous": false,
      "inputs": [
        {
          "indexed": false,
          "internalType": "string",
          "name": "feed",
          "type": "string"
        },
        {
          "indexed": false,
          "internalType": "string",
          "name": "error",
          "type": "string"
        }
      ],
      "name": "PriceFeedError",
      "type": "event"
    },
    {
      "anonymous": false,
      "inputs": [
        {
          "indexed": false,
          "internalType": "int256",
          "name": "ethPrice",
          "type": "int256"
        },
        {
          "indexed": false,
          "internalType": "int256",
          "name": "usdcPrice",
          "type": "int256"
        },
        {
          "indexed": false,
          "internalType": "int256",
          "name": "btcPrice",
          "type": "int256"
        },
        {
          "indexed": false,
          "internalType": "int256",
          "name": "linkPrice",
          "type": "int256"
        }
      ],
      "name": "PricesUpdated",
      "type": "event"
    },
    {
      "inputs": [],
      "name": "btcUsdFeed",
      "outputs": [
        {
          "internalType": "contract AggregatorV3Interface",
          "name": "",
          "type": "address"
        }
      ],
      "stateMutability": "view",
      "type": "function"
    },
    {
      "inputs": [],
      "name": "calculateMarketVolatility",
      "outputs": [
        {
          "internalType": "uint256",
          "name": "",
          "type": "uint256"
        }
      ],
      "stateMutability": "view",
      "type": "function"
    },
    {
      "inputs": [],
      "name": "ethUsdFeed",
      "outputs": [
        {
          "internalType": "contract AggregatorV3Interface",
          "name": "",
          "type": "address"
        }
      ],
      "stateMutability": "view",
      "type": "function"
    },
    {
      "inputs": [],
      "name": "forceUpdateLivePrices",
      "outputs": [],
      "stateMutability": "nonpayable",
      "type": "function"
    },
    {
      "inputs": [],
      "name": "getFormattedPrices",
      "outputs": [
        {
          "internalType": "string",
          "name": "ethFormatted",
          "type": "string"
        },
        {
          "internalType": "string",
          "name": "usdcFormatted",
          "type": "string"
        },
        {
          "internalType": "string",
          "name": "btcFormatted",
          "type": "string"
        },
        {
          "internalType": "string",
          "name": "linkFormatted",
          "type": "string"
        }
      ],
      "stateMutability": "view",
      "type": "function"
    },
    {
      "inputs": [],
      "name": "getLatestPrices",
      "outputs": [
        {
          "internalType": "int256",
          "name": "ethPrice",
          "type": "int256"
        },
        {
          "internalType": "int256",
          "name": "usdcPrice",
          "type": "int256"
        },
        {
          "internalType": "int256",
          "name": "btcPrice",
          "type": "int256"
        },
        {
          "internalType": "int256",
          "name": "linkPrice",
          "type": "int256"
        },
        {
          "internalType": "uint256",
          "name": "lastUpdate",
          "type": "uint256"
        }
      ],
      "stateMutability": "view",
      "type": "function"
    },
    {
      "inputs": [],
      "name": "getMarketConditions",
      "outputs": [
        {
          "internalType": "uint256",
          "name": "volatility",
          "type": "uint256"
        },
        {
          "internalType": "bool",
          "name": "pricesStale",
          "type": "bool"
        },
        {
          "internalType": "uint256",
          "name": "lastUpdateAge",
          "type": "uint256"
        }
      ],
      "stateMutability": "view",
      "type": "function"
    },
    {
      "inputs": [],
      "name": "initialPricesFetched",
      "outputs": [
        {
          "internalType": "bool",
          "name": "",
          "type": "bool"
        }
      ],
      "stateMutability": "view",
      "type": "function"
    },
    {
      "inputs": [],
      "name": "lastBTCPrice",
      "outputs": [
        {
          "internalType": "int256",
          "name": "",
          "type": "int256"
        }
      ],
      "stateMutability": "view",
      "type": "function"
    },
    {
      "inputs": [],
      "name": "lastETHPrice",
      "outputs": [
        {
          "internalType": "int256",
          "name": "",
          "type": "int256"
        }
      ],
      "stateMutability": "view",
      "type": "function"
    },
    {
      "inputs": [],
      "name": "lastLINKPrice",
      "outputs": [
        {
          "internalType": "int256",
          "name": "",
          "type": "int256"
        }
      ],
      "stateMutability": "view",
      "type": "function"
    },
    {
      "inputs": [],
      "name": "lastMarketUpdate",
      "outputs": [
        {
          "internalType": "uint256",
          "name": "",
          "type": "uint256"
        }
      ],
      "stateMutability": "view",
      "type": "function"
    },
    {
      "inputs": [],
      "name": "lastUSDCPrice",
      "outputs": [
        {
          "internalType": "int256",
          "name": "",
          "type": "int256"
        }
      ],
      "stateMutability": "view",
      "type": "function"
    },
    {
      "inputs": [],
      "name": "linkUsdFeed",
      "outputs": [
        {
          "internalType": "contract AggregatorV3Interface",
          "name": "",
          "type": "address"
        }
      ],
      "stateMutability": "view",
      "type": "function"
    },
    {
      "inputs": [],
      "name": "owner",
      "outputs": [
        {
          "internalType": "address",
          "name": "",
          "type": "address"
        }
      ],
      "stateMutability": "view",
      "type": "function"
    },
    {
      "inputs": [
        {
          "internalType": "int256",
          "name": "_ethPrice",
          "type": "int256"
        },
        {
          "internalType": "int256",
          "name": "_usdcPrice",
          "type": "int256"
        },
        {
          "internalType": "int256",
          "name": "_btcPrice",
          "type": "int256"
        },
        {
          "internalType": "int256",
          "name": "_linkPrice",
          "type": "int256"
        }
      ],
      "name": "setTestPrices",
      "outputs": [],
      "stateMutability": "nonpayable",
      "type": "function"
    },
    {
      "inputs": [],
      "name": "testBtcFeed",
      "outputs": [
        {
          "internalType": "int256",
          "name": "price",
          "type": "int256"
        },
        {
          "internalType": "uint256",
          "name": "updatedAt",
          "type": "uint256"
        },
        {
          "internalType": "bool",
          "name": "isRecent",
          "type": "bool"
        },
        {
          "internalType": "string",
          "name": "status",
          "type": "string"
        }
      ],
      "stateMutability": "view",
      "type": "function"
    },
    {
      "inputs": [],
      "name": "testEthFeed",
      "outputs": [
        {
          "internalType": "int256",
          "name": "price",
          "type": "int256"
        },
        {
          "internalType": "uint256",
          "name": "updatedAt",
          "type": "uint256"
        },
        {
          "internalType": "bool",
          "name": "isRecent",
          "type": "bool"
        },
        {
          "internalType": "string",
          "name": "status",
          "type": "string"
        }
      ],
      "stateMutability": "view",
      "type": "function"
    },
    {
      "inputs": [],
      "name": "testLinkFeed",
      "outputs": [
        {
          "internalType": "int256",
          "name": "price",
          "type": "int256"
        },
        {
          "internalType": "uint256",
          "name": "updatedAt",
          "type": "uint256"
        },
        {
          "internalType": "bool",
          "name": "isRecent",
          "type": "bool"
        },
        {
          "internalType": "string",
          "name": "status",
          "type": "string"
        }
      ],
      "stateMutability": "view",
      "type": "function"
    },
    {
      "inputs": [],
      "name": "testUsdcFeed",
      "outputs": [
        {
          "internalType": "int256",
          "name": "price",
          "type": "int256"
        },
        {
          "internalType": "uint256",
          "name": "updatedAt",
          "type": "uint256"
        },
        {
          "internalType": "bool",
          "name": "isRecent",
          "type": "bool"
        },
        {
          "internalType": "string",
          "name": "status",
          "type": "string"
        }
      ],
      "stateMutability": "view",
      "type": "function"
    },
    {
      "inputs": [],
      "name": "updateLivePrices",
      "outputs": [],
      "stateMutability": "nonpayable",
      "type": "function"
    },
    {
      "inputs": [],
      "name": "usdcUsdFeed",
      "outputs": [
        {
          "internalType": "contract AggregatorV3Interface",
          "name": "",
          "type": "address"
        }
      ],
      "stateMutability": "view",
      "type": "function"
    }
  ],
  "bytecode": "0x6080346200010c57601f6200169838819003918201601f19168301916001600160401b0383118484101762000111578084926080946040528339810103126200010c576200004d8162000127565b6200005b6020830162000127565b91620000786060620000706040840162000127565b920162000127565b644a817c80006004556305f5e1006005556505e96630e800600655639502f9006007556009549360018060a01b03928380928160018060a01b03199716876000541617600055168560015416176001551683600254161760025516906003541617600355610100600160a81b033360081b169060018060a81b031916176009554260085560405161155b90816200013d8239f35b600080fd5b634e487b7160e01b600052604160045260246000fd5b51906001600160a01b03821682036200010c5756fe6040608081526004908136101561001557600080fd5b600091823560e01c8063053951c414610e81578063364f529614610e625780633bf52de114610b475780634c7a719d146106a85780634d9a75e51461067f5780634ed26443146105b057806363b2fc16146105915780636a912e9a146105725780637e933d5a146105165780638009b7bd146104ee5780638050e8ad146104935780638ae284d01461046f5780638da5cb5b1461044257806393e33c7814610419578063b7ddb622146103bd578063c70e7dbb146102e3578063ca22a353146102c4578063d0c80566146102a7578063d310d14d1461027e578063e985120214610256578063f660f1d9146101555763ff61ba5c1461011357600080fd5b3461015157826003193601126101515760a0925054906005549060065460075491600854938151958652602086015284015260608301526080820152f35b8280fd5b5091346102535780600319360112610253575061024f82610241610198610226955485519061018382610f3b565b600382526208aa8960eb1b6020830152611396565b936101c06005548251906101ab82610f3b565b858252635553444360e01b6020830152611396565b926102346102126101ee6006548551906101d982610f3b565b600382526242544360e81b6020830152611396565b926007548551916101fe83610f3b565b8252634c494e4b60e01b6020830152611396565b94835198899860808a5260808a0190610eee565b9088820360208a0152610eee565b9186830390870152610eee565b908382036060850152610eee565b0390f35b80fd5b50503461027a578160031936011261027a5760209060ff6009541690519015158152f35b5080fd5b50503461027a578160031936011261027a5760025490516001600160a01b039091168152602090f35b503461015157826003193601126101515760209250549051908152f35b50503461027a578160031936011261027a576020906007549051908152f35b5091903461027a578160031936011261027a576003548151633fabe5a360e21b8152938392918391829160a091889182906001600160a01b03165afa958682918398610386575b5061034c57505061024f92939450610340611268565b915b5194859485610f13565b945061024f93509050610e106103628642610fdd565b109050801561037957610373611242565b91610342565b61038161121c565b610373565b9097506103aa915060a03d81116103b6575b6103a28183610f6d565b810190610fab565b5092505090963861032a565b503d610398565b5091903461027a578160031936011261027a576001548151633fabe5a360e21b8152938392918391829160a091889182906001600160a01b03165afa958682918398610386575061034c57505061024f92939450610340611268565b50503461027a578160031936011261027a5760035490516001600160a01b039091168152602090f35b50503461027a578160031936011261027a57600954905160089190911c6001600160a01b03168152602090f35b50503461027a578160031936011261027a5760209061048c61128e565b9051908152f35b5091903461027a578160031936011261027a5781548151633fabe5a360e21b8152938392918391829160a091889182906001600160a01b03165afa958682918398610386575061034c57505061024f92939450610340611268565b50503461027a578160031936011261027a57905490516001600160a01b039091168152602090f35b5091903461027a578160031936011261027a576002548151633fabe5a360e21b8152938392918391829160a091889182906001600160a01b03165afa958682918398610386575061034c57505061024f92939450610340611268565b50503461027a578160031936011261027a576020906006549051908152f35b50503461027a578160031936011261027a576020906005549051908152f35b5082903461027a57608036600319011261027a5760095460243591803591606435916044359190600882901c6001600160a01b0316330361064f578490556005859055600682905560078390554260085560ff19166001176009559451918252602082019290925260408101939093526060830152907ffe6841d6b7737212f648cda72f1909550c5dafbf5de3c0406f49ced57f936efd90608090a180f35b606490602089519162461bcd60e51b8352820152600a60248201526927b7363c9037bbb732b960b11b6044820152fd5b50503461027a578160031936011261027a5760015490516001600160a01b039091168152602090f35b50903461015157826003193601126101515782548151633fabe5a360e21b8082526001600160a01b039492869260a0929183908290879082908b165afa8089928a92610b20575b50610ae85750506001610700611000565b6308c379a014610aaa575b610a87575b816001968582828a54168951928380928882525afa808b928c92610a60575b50610a225750508761073f611000565b6308c379a0146109e4575b6109c1575b858282600254168951928380928882525afa808b928c9261099a575b5061095c5750508761077b611000565b6308c379a01461091e575b6108fb575b60035416918587518094819382525afa8091889389936108d2575b505061089b575050836107b7611000565b6308c379a01461085d575b61083a575b6107cf578380f35b7ffe6841d6b7737212f648cda72f1909550c5dafbf5de3c0406f49ced57f936efd9260ff1960095416176009554260085554610830600554926006546007549151948594859094939260609260808301968352602083015260408201520152565b0390a13880808380f35b600080516020611506833981519152835180610855816111d7565b0390a16107c7565b61086561101e565b80610871575b506107c2565b905060008051602061150683398151915261089287928651918291826111ae565b0390a13861086b565b86821390816108bc575b506108b1575b506107c7565b6007555082386108ab565b610e1091506108cb9042610fdd565b10386108a5565b80919294506108ed9350903d106103b6576103a28183610f6d565b5093925050919038806107a6565b60008051602061150683398151915287518061091681611186565b0390a161078b565b61092661101e565b80610932575b50610786565b90506000805160206115068339815191526109538b928a519182918261115e565b0390a13861092c565b909192508982139081610984575b50610978575b50829061078b565b60065586935082610970565b610e1091506109939042610fdd565b103861096a565b9092506109b49150843d86116103b6576103a28183610f6d565b509392505091903861076b565b6000805160206115068339815191528751806109dc81611135565b0390a161074f565b6109ec61101e565b806109f8575b5061074a565b9050600080516020611506833981519152610a198b928a519182918261110c565b0390a1386109f2565b909192508982139081610a4a575b50610a3e575b50829061074f565b60055586935082610a36565b610e109150610a599042610fdd565b1038610a30565b909250610a7a9150843d86116103b6576103a28183610f6d565b509392505091903861072f565b600080516020611506833981519152855180610aa2816110bf565b0390a1610710565b610ab261101e565b80610abe575b5061070b565b9050600080516020611506833981519152610adf899288519182918261108d565b0390a138610ab8565b8882139081610b0a575b50610afe575b50610710565b84556001925038610af8565b610e109150610b199042610fdd565b1038610af2565b909250610b3a9150843d86116103b6576103a28183610f6d565b50939250509190386106ef565b50903461015157826003193601126101515782548151633fabe5a360e21b8082526001600160a01b039492869260a09182908290879082908b165afa889181610e3e575b50610e2457506001610b9b611000565b6308c379a014610de6575b610dc3575b806001968582828a54168951928380928982525afa8a9181610d9f575b50610d80575087610bd7611000565b6308c379a014610d42575b610d1f575b858282600254168951928380928982525afa8a9181610cfb575b50610cdc575087610c10611000565b6308c379a014610c9e575b610c7b575b60035416928587518095819382525afa9182918893610c57575b5050610c4a5750836107b7611000565b8581136108b157506107c7565b610c6e929350803d106103b6576103a28183610f6d565b5050509050903880610c3a565b600080516020611506833981519152875180610c9681611186565b0390a1610c20565b610ca661101e565b80610cb2575b50610c1b565b9050600080516020611506833981519152610cd38b928a519182918261115e565b0390a138610cac565b909150888113610cef575b508190610c20565b60065586935081610ce7565b610d13919250843d86116103b6576103a28183610f6d565b50505090509038610c01565b600080516020611506833981519152875180610d3a81611135565b0390a1610be7565b610d4a61101e565b80610d56575b50610be2565b9050600080516020611506833981519152610d778b928a519182918261110c565b0390a138610d50565b909150888113610d93575b508190610be7565b60055586935081610d8b565b610db7919250843d86116103b6576103a28183610f6d565b50505090509038610bc8565b600080516020611506833981519152855180610dde816110bf565b0390a1610bab565b610dee61101e565b80610dfa575b50610ba6565b9050600080516020611506833981519152610e1b899288519182918261108d565b0390a138610df4565b878113610e32575b50610bab565b84556001925038610e2c565b610e56919250833d85116103b6576103a28183610f6d565b50505090509038610b8b565b50503461027a578160031936011261027a576020906008549051908152f35b50503461027a578160031936011261027a57606090610e9e61128e565b9060085490610ebb610e10610eb38442610fdd565b119242610fdd565b9181519384526020840152820152f35b60005b838110610ede5750506000910152565b8181015183820152602001610ece565b90602091610f0781518092818552858086019101610ecb565b601f01601f1916010190565b9092608092610f38959483526020830152151560408201528160608201520190610eee565b90565b6040810190811067ffffffffffffffff821117610f5757604052565b634e487b7160e01b600052604160045260246000fd5b90601f8019910116810190811067ffffffffffffffff821117610f5757604052565b519069ffffffffffffffffffff82168203610fa657565b600080fd5b908160a0910312610fa657610fbf81610f8f565b91602082015191604081015191610f38608060608401519301610f8f565b91908203918211610fea57565b634e487b7160e01b600052601160045260246000fd5b60009060033d1161100d57565b905060046000803e60005160e01c90565b600060443d10610f3857604051600319913d83016004833e815167ffffffffffffffff918282113d60248401111761107c57818401948551938411611084573d8501016020848701011161107c5750610f3892910160200190610f6d565b949350505050565b50949350505050565b6040808252600790820152661155120bd554d160ca1b6060820152610f3891608082015b916020818403910152610eee565b6040808252600790820152661155120bd554d160ca1b6060820152610f3890608081015b906020818303910152600d81526c2ab735b737bbb71032b93937b960991b602082015260400190565b6040808252600890820152671554d110cbd554d160c21b6060820152610f3891608082016110b1565b6040808252600890820152671554d110cbd554d160c21b6060820152610f3890608081016110e3565b604080825260079082015266109510cbd554d160ca1b6060820152610f3891608082016110b1565b604080825260079082015266109510cbd554d160ca1b6060820152610f3890608081016110e3565b60408082526008908201526713125392cbd554d160c21b6060820152610f3891608082016110b1565b60408082526008908201526713125392cbd554d160c21b6060820152610f3890608081016110e3565b67ffffffffffffffff8111610f5757601f01601f191660200190565b6040519061122982610f3b565b600a8252695374616c65206461746160b01b6020830152565b6040519061124f82610f3b565b600a8252694672657368206461746160b01b6020830152565b6040519061127582610f3b565b600a8252692332b2b21032b93937b960b11b6020830152565b600480546445d964b8009060008282131561137957506445d964b7ff198101908113600116611334575b606481029080820460641490151715611334570490600654600090650574fbde6000918282136000146113495750650574fbde5fff198101908113600116611334575b6064810290808204606414901517156113345704820180921161131f575060011c90565b601190634e487b7160e01b6000525260246000fd5b601183634e487b7160e01b6000525260246000fd5b8082840392128383128116908484139015161761136657506112fb565b634e487b7160e01b815260118452602490fd5b8082840392128383128116908484139015161761136657506112b8565b906024610f38916113bc620f42406305f5e1006113b4818804611424565b960604611424565b60405194826113d5879451809260208088019101610ecb565b8301620e880960ea1b60208201526113f7825180936020602385019101610ecb565b01601760f91b60238201526114158251809360208785019101610ecb565b01036004810184520182610f6d565b80156114e75780816000925b6114cd575061143e82611200565b9161144c6040519384610f6d565b808352601f1961145b82611200565b01908260209236848701375b6114715750505090565b6000198101908111610fea578092600a9160308383068101809111610fea5786518210156114b75760f81b6001600160f81b03191660001a908601840153049182611467565b634e487b7160e01b600052603260045260246000fd5b90916000198114610fea576001019190600a900480611430565b506040516114f481610f3b565b60018152600360fc1b60208201529056fefbf4bbf75e8a63084cf750f9bb1e636be110896666b9bf807afc1dca67c5aac6a264697066735822122070f2474ea97f83d422b2aebad3249995947e17f22b5710345983cead946625ea64736f6c63430008140033",
  "linkReferences": {},
  "deployedLinkReferences": {}
}