{
  "_format": "hh-sol-artifact-1",
  "contractName": "ChainlinkFallbackContract",
  "sourceName": "contracts/ChainlinkFallbackLibrary.sol",
  "abi": [
    {
      "anonymous": false,
      "inputs": [
        {
          "indexed": true,
          "internalType": "uint256",
          "name": "invoiceId",
          "type": "uint256"
        },
        {
          "indexed": false,
          "internalType": "string",
          "name": "service",
          "type": "string"
        },
        {
          "indexed": false,
          "internalType": "string",
          "name": "reason",
          "type": "string"
        }
      ],
      "name": "ChainlinkFallbackTriggered",
      "type": "event"
    },
    {
      "anonymous": false,
      "inputs": [
        {
          "indexed": true,
          "internalType": "uint256",
          "name": "invoiceId",
          "type": "uint256"
        },
        {
          "indexed": false,
          "internalType": "string",
          "name": "dataType",
          "type": "string"
        },
        {
          "indexed": false,
          "internalType": "uint256",
          "name": "value",
          "type": "uint256"
        }
      ],
      "name": "FallbackDataUsed",
      "type": "event"
    },
    {
      "inputs": [
        {
          "internalType": "uint256",
          "name": "invoiceId",
          "type": "uint256"
        },
        {
          "internalType": "address",
          "name": "sender",
          "type": "address"
        },
        {
          "internalType": "string",
          "name": "commodity",
          "type": "string"
        },
        {
          "internalType": "string",
          "name": "country",
          "type": "string"
        }
      ],
      "name": "generatePseudoRandomness",
      "outputs": [
        {
          "internalType": "uint256",
          "name": "",
          "type": "uint256"
        }
      ],
      "stateMutability": "view",
      "type": "function"
    },
    {
      "inputs": [
        {
          "internalType": "string",
          "name": "commodity",
          "type": "string"
        }
      ],
      "name": "getFallbackCommodityPrice",
      "outputs": [
        {
          "internalType": "uint256",
          "name": "",
          "type": "uint256"
        }
      ],
      "stateMutability": "pure",
      "type": "function"
    },
    {
      "inputs": [
        {
          "internalType": "string",
          "name": "country",
          "type": "string"
        }
      ],
      "name": "getFallbackCountryRisk",
      "outputs": [
        {
          "internalType": "uint256",
          "name": "",
          "type": "uint256"
        }
      ],
      "stateMutability": "pure",
      "type": "function"
    },
    {
      "inputs": [
        {
          "internalType": "uint256",
          "name": "deploymentTime",
          "type": "uint256"
        }
      ],
      "name": "getFallbackMarketRisk",
      "outputs": [
        {
          "internalType": "uint256",
          "name": "",
          "type": "uint256"
        }
      ],
      "stateMutability": "view",
      "type": "function"
    },
    {
      "inputs": [
        {
          "internalType": "string",
          "name": "str",
          "type": "string"
        },
        {
          "internalType": "string",
          "name": "substr",
          "type": "string"
        }
      ],
      "name": "stringContains",
      "outputs": [
        {
          "internalType": "bool",
          "name": "",
          "type": "bool"
        }
      ],
      "stateMutability": "pure",
      "type": "function"
    },
    {
      "inputs": [
        {
          "internalType": "string",
          "name": "list",
          "type": "string"
        },
        {
          "internalType": "string",
          "name": "item",
          "type": "string"
        }
      ],
      "name": "stringContainsOrAll",
      "outputs": [
        {
          "internalType": "bool",
          "name": "",
          "type": "bool"
        }
      ],
      "stateMutability": "pure",
      "type": "function"
    }
  ],
  "bytecode": "0x6080806040523461001657610df2908161001c8239f35b600080fdfe6040608081526004908136101561001557600080fd5b600091823560e01c90816311013e3d1461021d57816335b0dc6f146101fd5781634b5c1295146101a05781639ae3e24c1461015c578163cde242d91461008c575063ed63455c1461006557600080fd5b346100885760209061007f6100793661030a565b90610d0f565b90519015158152f35b5080fd5b82843461015557608036600319011261015557602435926001600160a01b03841684036100885767ffffffffffffffff604435818111610158576100d390369084016102ae565b9260643591821161015557509161014a6020959261013c6100fa6103e896369084016102ae565b61013688519586948b860198428a52448c8801526bffffffffffffffffffffffff199060601b1660608701523560748601526094850190610c3a565b90610c3a565b03601f19810183528261028c565b519020069051908152f35b80fd5b8380fd5b8284346101555760203660031901126101555782359067ffffffffffffffff82116101555750610194602093610199923691016102ae565b6107b0565b9051908152f35b505034610088576020906101b33661030a565b6101d8839293516101c38161025a565b6003815262105b1b60ea1b8682015284610d0f565b9283156101ea575b5050519015158152f35b6101f5929350610d0f565b9083806101e0565b828434610155576020366003190112610155575061019960209235610c88565b8284346101555760203660031901126101555782359067ffffffffffffffff82116101555750610255602093610199923691016102ae565b610351565b6040810190811067ffffffffffffffff82111761027657604052565b634e487b7160e01b600052604160045260246000fd5b90601f8019910116810190811067ffffffffffffffff82111761027657604052565b81601f820112156103055780359067ffffffffffffffff821161027657604051926102e3601f8401601f19166020018561028c565b8284526020838301011161030557816000926020809301838601378301015290565b600080fd5b9060406003198301126103055767ffffffffffffffff6004358181116103055783610337916004016102ae565b926024359182116103055761034e916004016102ae565b90565b6040908151906103608261025a565b600680835261037f60209365436f6666656560d01b8582015283610d0f565b8015610785575b61077b576103af84516103988161025a565b6005815264436f636f6160d81b8582015283610d0f565b8015610750575b610746576103dd84516103c88161025a565b600381526254656160e81b8582015283610d0f565b801561071d575b6107135761040d84516103f68161025a565b8281526521b7ba3a37b760d11b8582015283610d0f565b80156106e8575b6106de5761043c84516104268161025a565b60048152635269636560e01b8582015283610d0f565b80156106b4575b6106aa5761046c84516104558161025a565b600581526415da19585d60da1b8582015283610d0f565b801561067f575b6106755761049b84516104858161025a565b600481526311dbdb1960e21b8582015283610d0f565b801561064b575b610641576104cb84516104b48161025a565b8281526529b4b63b32b960d11b8582015283610d0f565b908115610614575b506105e2576104fb83516104e68161025a565b600381526213da5b60ea1b8482015282610d0f565b80156105eb575b6105e25761052d83516105148161025a565b600781526656616e696c6c6160c81b8482015282610d0f565b80156105b5575b6105ab5761055f83516105468161025a565b600781526629b0b3333937b760c91b8482015282610d0f565b92831561057b575b5050506105745761138890565b624c4b4090565b6105a393506639b0b3333937b760c91b9051926105978461025a565b60078452830152610d0f565b388080610567565b5050506207a12090565b506105dd83516105c48161025a565b600781526676616e696c6c6160c81b8482015282610d0f565b610534565b50505061032090565b5061060f83516105fa8161025a565b60038152621bda5b60ea1b8482015282610d0f565b610502565b61063b91508451906106258261025a565b81526539b4b63b32b960d11b8482015282610d0f565b386104d3565b5050505061fde890565b50610670845161065a8161025a565b600481526319dbdb1960e21b8582015283610d0f565b6104a2565b5050505061032090565b506106a5845161068e8161025a565b60058152641dda19585d60da1b8582015283610d0f565b610473565b505050506104b090565b506106d984516106c38161025a565b60048152637269636560e01b8582015283610d0f565b610443565b5050505061070890565b5061070e84516106f78161025a565b8281526531b7ba3a37b760d11b8582015283610d0f565b610414565b50505050613a9890565b50610741845161072c8161025a565b600381526274656160e81b8582015283610d0f565b6103e4565b5050505061106890565b50610776845161075f8161025a565b6005815264636f636f6160d81b8582015283610d0f565b6103b6565b5050505061213490565b506107ab84516107948161025a565b82815265636f6666656560d01b8582015283610d0f565b610386565b6040908151906107bf8261025a565b600982526107e06020926853696e6761706f726560b81b8482015282610d0f565b8015610c09575b8015610bdd575b8015610bb0575b610ba85761082083516108078161025a565b60078152664765726d616e7960c81b8482015282610d0f565b8015610b7d575b8015610b51575b8015610b22575b8015610aef575b610ae757610865835161084e8161025a565b60058152644368696e6160d81b8482015282610d0f565b8015610abc575b8015610a90575b8015610a64575b610a5b576108a3835161088c8161025a565b60058152644b656e796160d81b8482015282610d0f565b8015610a30575b8015610a04575b80156109d8575b6109cf576108e383516108ca8161025a565b60078152664e69676572696160c81b8482015282610d0f565b80156109a1575b8015610973575b61096a5761091e83516109038161025a565b600981526856656e657a75656c6160b81b8482015282610d0f565b928315610939575b505050610933576101c290565b6102ee90565b6109629350675a696d626162776560c01b9051926109568461025a565b60088452830152610d0f565b388080610926565b50505061025890565b5061099c83516109828161025a565b600881526754616e7a616e696160c01b8482015282610d0f565b6108f1565b506109ca83516109b08161025a565b6008815267457468696f70696160c01b8482015282610d0f565b6108ea565b5050506101f490565b506109ff83516109e78161025a565b60068152655567616e646160d01b8482015282610d0f565b6108b8565b50610a2b8351610a138161025a565b60068152655277616e646160d01b8482015282610d0f565b6108b1565b50610a568351610a3f8161025a565b60058152644768616e6160d81b8482015282610d0f565b6108aa565b50505061019090565b50610a8b8351610a738161025a565b60068152654d657869636f60d01b8482015282610d0f565b61087a565b50610ab78351610a9f8161025a565b6006815265109c985e9a5b60d21b8482015282610d0f565b610873565b50610ae28351610acb8161025a565b6005815264496e64696160d81b8482015282610d0f565b61086c565b50505060c890565b50610b1d8351610afe8161025a565b600d81526c556e697465642053746174657360981b8482015282610d0f565b61083c565b50610b4c8351610b318161025a565b60098152684175737472616c696160b81b8482015282610d0f565b610835565b50610b788351610b608161025a565b600681526543616e61646160d01b8482015282610d0f565b61082e565b50610ba38351610b8c8161025a565b60058152642530b830b760d91b8482015282610d0f565b610827565b505050607d90565b50610bd88351610bbf8161025a565b600781526644656e6d61726b60c81b8482015282610d0f565b6107f5565b50610c048351610bec8161025a565b60068152654e6f7277617960d01b8482015282610d0f565b6107ee565b50610c358351610c188161025a565b600b81526a14ddda5d1e995c9b185b9960aa1b8482015282610d0f565b6107e7565b9081519160005b838110610c52575050016000815290565b8060208092840101518185015201610c41565b91908203918211610c7257565b634e487b7160e01b600052601160045260246000fd5b8015610cd35762015180610c9f61016d9242610c65565b0406605a811015610cb05750609690565b60b4811015610cbf575060c890565b61010e1115610cce5761012c90565b606490565b5060c890565b6000198114610c725760010190565b908151811015610cf9570160200190565b634e487b7160e01b600052603260045260246000fd5b908051825110610db5576000905b610d2a8351825190610c65565b8211610dad5760019260005b8251811015610da357808401808511610c72576001600160f81b0319908190610d5f9085610ce8565b511690610d6c8386610ce8565b511603610d8157610d7c90610cd9565b610d36565b5092509060005b610d9b57610d9590610cd9565b90610d1d565b505050600190565b5092919091610d88565b505050600090565b505060009056fea2646970667358221220d871abace456a6cd731d5f4b3b55cff6fbf87e092a8a2948f6bf6732ecb3481264736f6c63430008140033",
  "linkReferences": {},
  "deployedLinkReferences": {}
}