{
  "_format": "hh-sol-artifact-1",
  "contractName": "EarnXVerificationModule",
  "sourceName": "contracts/EarnXVerificationModule.sol",
  "abi": [
    {
      "inputs": [
        {
          "internalType": "uint64",
          "name": "_functionsSubscriptionId",
          "type": "uint64"
        }
      ],
      "stateMutability": "nonpayable",
      "type": "constructor"
    },
    {
      "inputs": [],
      "name": "EmptyArgs",
      "type": "error"
    },
    {
      "inputs": [],
      "name": "EmptySource",
      "type": "error"
    },
    {
      "inputs": [],
      "name": "NoInlineSecrets",
      "type": "error"
    },
    {
      "inputs": [],
      "name": "OnlyRouterCanFulfill",
      "type": "error"
    },
    {
      "anonymous": false,
      "inputs": [
        {
          "indexed": true,
          "internalType": "uint256",
          "name": "invoiceId",
          "type": "uint256"
        },
        {
          "indexed": false,
          "internalType": "bool",
          "name": "isValid",
          "type": "bool"
        },
        {
          "indexed": false,
          "internalType": "uint256",
          "name": "riskScore",
          "type": "uint256"
        }
      ],
      "name": "DocumentVerificationCompleted",
      "type": "event"
    },
    {
      "anonymous": false,
      "inputs": [
        {
          "indexed": true,
          "internalType": "uint256",
          "name": "invoiceId",
          "type": "uint256"
        },
        {
          "indexed": true,
          "internalType": "bytes32",
          "name": "requestId",
          "type": "bytes32"
        }
      ],
      "name": "DocumentVerificationRequested",
      "type": "event"
    },
    {
      "anonymous": false,
      "inputs": [
        {
          "indexed": true,
          "internalType": "bytes32",
          "name": "requestId",
          "type": "bytes32"
        },
        {
          "indexed": false,
          "internalType": "bytes",
          "name": "response",
          "type": "bytes"
        },
        {
          "indexed": false,
          "internalType": "bytes",
          "name": "err",
          "type": "bytes"
        }
      ],
      "name": "FunctionsResponse",
      "type": "event"
    },
    {
      "anonymous": false,
      "inputs": [
        {
          "indexed": true,
          "internalType": "bytes32",
          "name": "id",
          "type": "bytes32"
        }
      ],
      "name": "RequestFulfilled",
      "type": "event"
    },
    {
      "anonymous": false,
      "inputs": [
        {
          "indexed": true,
          "internalType": "bytes32",
          "name": "id",
          "type": "bytes32"
        }
      ],
      "name": "RequestSent",
      "type": "event"
    },
    {
      "inputs": [],
      "name": "VERIFICATION_SOURCE",
      "outputs": [
        {
          "internalType": "string",
          "name": "",
          "type": "string"
        }
      ],
      "stateMutability": "view",
      "type": "function"
    },
    {
      "inputs": [],
      "name": "coreContract",
      "outputs": [
        {
          "internalType": "address",
          "name": "",
          "type": "address"
        }
      ],
      "stateMutability": "view",
      "type": "function"
    },
    {
      "inputs": [
        {
          "internalType": "uint256",
          "name": "",
          "type": "uint256"
        }
      ],
      "name": "creditRating",
      "outputs": [
        {
          "internalType": "string",
          "name": "",
          "type": "string"
        }
      ],
      "stateMutability": "view",
      "type": "function"
    },
    {
      "inputs": [
        {
          "internalType": "uint256",
          "name": "invoiceId",
          "type": "uint256"
        },
        {
          "internalType": "bool",
          "name": "valid",
          "type": "bool"
        },
        {
          "internalType": "uint256",
          "name": "risk",
          "type": "uint256"
        },
        {
          "internalType": "string",
          "name": "rating",
          "type": "string"
        }
      ],
      "name": "directVerify",
      "outputs": [],
      "stateMutability": "nonpayable",
      "type": "function"
    },
    {
      "inputs": [],
      "name": "donID",
      "outputs": [
        {
          "internalType": "bytes32",
          "name": "",
          "type": "bytes32"
        }
      ],
      "stateMutability": "view",
      "type": "function"
    },
    {
      "inputs": [
        {
          "internalType": "bytes32",
          "name": "",
          "type": "bytes32"
        }
      ],
      "name": "functionsRequestToInvoice",
      "outputs": [
        {
          "internalType": "uint256",
          "name": "",
          "type": "uint256"
        }
      ],
      "stateMutability": "view",
      "type": "function"
    },
    {
      "inputs": [],
      "name": "gasLimit",
      "outputs": [
        {
          "internalType": "uint32",
          "name": "",
          "type": "uint32"
        }
      ],
      "stateMutability": "view",
      "type": "function"
    },
    {
      "inputs": [
        {
          "internalType": "uint256",
          "name": "invoiceId",
          "type": "uint256"
        }
      ],
      "name": "getDocumentVerification",
      "outputs": [
        {
          "internalType": "bool",
          "name": "verified",
          "type": "bool"
        },
        {
          "internalType": "bool",
          "name": "valid",
          "type": "bool"
        },
        {
          "internalType": "string",
          "name": "details",
          "type": "string"
        },
        {
          "internalType": "uint256",
          "name": "risk",
          "type": "uint256"
        },
        {
          "internalType": "string",
          "name": "rating",
          "type": "string"
        },
        {
          "internalType": "uint256",
          "name": "timestamp",
          "type": "uint256"
        }
      ],
      "stateMutability": "view",
      "type": "function"
    },
    {
      "inputs": [],
      "name": "getFunctionsConfig",
      "outputs": [
        {
          "internalType": "address",
          "name": "router",
          "type": "address"
        },
        {
          "internalType": "uint64",
          "name": "subscriptionId",
          "type": "uint64"
        },
        {
          "internalType": "uint32",
          "name": "gasLimitConfig",
          "type": "uint32"
        },
        {
          "internalType": "bytes32",
          "name": "donIdConfig",
          "type": "bytes32"
        }
      ],
      "stateMutability": "view",
      "type": "function"
    },
    {
      "inputs": [],
      "name": "getLastFunctionsResponse",
      "outputs": [
        {
          "internalType": "bytes32",
          "name": "lastRequestId",
          "type": "bytes32"
        },
        {
          "internalType": "bytes",
          "name": "lastResponse",
          "type": "bytes"
        },
        {
          "internalType": "bytes",
          "name": "lastError",
          "type": "bytes"
        }
      ],
      "stateMutability": "view",
      "type": "function"
    },
    {
      "inputs": [
        {
          "internalType": "bytes32",
          "name": "requestId",
          "type": "bytes32"
        },
        {
          "internalType": "bytes",
          "name": "response",
          "type": "bytes"
        },
        {
          "internalType": "bytes",
          "name": "err",
          "type": "bytes"
        }
      ],
      "name": "handleOracleFulfillment",
      "outputs": [],
      "stateMutability": "nonpayable",
      "type": "function"
    },
    {
      "inputs": [],
      "name": "i_functionsSubscriptionId",
      "outputs": [
        {
          "internalType": "uint64",
          "name": "",
          "type": "uint64"
        }
      ],
      "stateMutability": "view",
      "type": "function"
    },
    {
      "inputs": [
        {
          "internalType": "uint256",
          "name": "",
          "type": "uint256"
        }
      ],
      "name": "isValid",
      "outputs": [
        {
          "internalType": "bool",
          "name": "",
          "type": "bool"
        }
      ],
      "stateMutability": "view",
      "type": "function"
    },
    {
      "inputs": [
        {
          "internalType": "uint256",
          "name": "",
          "type": "uint256"
        }
      ],
      "name": "isVerified",
      "outputs": [
        {
          "internalType": "bool",
          "name": "",
          "type": "bool"
        }
      ],
      "stateMutability": "view",
      "type": "function"
    },
    {
      "inputs": [
        {
          "internalType": "uint256",
          "name": "",
          "type": "uint256"
        }
      ],
      "name": "riskScore",
      "outputs": [
        {
          "internalType": "uint256",
          "name": "",
          "type": "uint256"
        }
      ],
      "stateMutability": "view",
      "type": "function"
    },
    {
      "inputs": [],
      "name": "s_lastError",
      "outputs": [
        {
          "internalType": "bytes",
          "name": "",
          "type": "bytes"
        }
      ],
      "stateMutability": "view",
      "type": "function"
    },
    {
      "inputs": [],
      "name": "s_lastRequestId",
      "outputs": [
        {
          "internalType": "bytes32",
          "name": "",
          "type": "bytes32"
        }
      ],
      "stateMutability": "view",
      "type": "function"
    },
    {
      "inputs": [],
      "name": "s_lastResponse",
      "outputs": [
        {
          "internalType": "bytes",
          "name": "",
          "type": "bytes"
        }
      ],
      "stateMutability": "view",
      "type": "function"
    },
    {
      "inputs": [
        {
          "internalType": "address",
          "name": "_coreContract",
          "type": "address"
        }
      ],
      "name": "setCoreContract",
      "outputs": [],
      "stateMutability": "nonpayable",
      "type": "function"
    },
    {
      "inputs": [
        {
          "internalType": "uint256",
          "name": "invoiceId",
          "type": "uint256"
        },
        {
          "internalType": "string",
          "name": "documentHash",
          "type": "string"
        },
        {
          "internalType": "string",
          "name": "commodity",
          "type": "string"
        },
        {
          "internalType": "uint256",
          "name": "amount",
          "type": "uint256"
        },
        {
          "internalType": "string",
          "name": "supplierCountry",
          "type": "string"
        },
        {
          "internalType": "string",
          "name": "buyerCountry",
          "type": "string"
        },
        {
          "internalType": "string",
          "name": "exporterName",
          "type": "string"
        },
        {
          "internalType": "string",
          "name": "buyerName",
          "type": "string"
        }
      ],
      "name": "startDocumentVerification",
      "outputs": [
        {
          "internalType": "bytes32",
          "name": "",
          "type": "bytes32"
        }
      ],
      "stateMutability": "nonpayable",
      "type": "function"
    },
    {
      "inputs": [],
      "name": "testDirectRequest",
      "outputs": [
        {
          "internalType": "bytes32",
          "name": "",
          "type": "bytes32"
        }
      ],
      "stateMutability": "nonpayable",
      "type": "function"
    },
    {
      "inputs": [
        {
          "internalType": "uint256",
          "name": "",
          "type": "uint256"
        }
      ],
      "name": "verificationDetails",
      "outputs": [
        {
          "internalType": "string",
          "name": "",
          "type": "string"
        }
      ],
      "stateMutability": "view",
      "type": "function"
    },
    {
      "inputs": [
        {
          "internalType": "uint256",
          "name": "",
          "type": "uint256"
        }
      ],
      "name": "verificationTimestamp",
      "outputs": [
        {
          "internalType": "uint256",
          "name": "",
          "type": "uint256"
        }
      ],
      "stateMutability": "view",
      "type": "function"
    }
  ],
  "bytecode": "0x60c0346100d3576001600160401b0390601f62002f4638819003918201601f1916830191848311848410176100d8578084926020946040528339810103126100d3575190811681036100d35773b83e47c2bc239b3bf370bc41e1459a34b41238d0608052620493e063ffffffff1960005416176000557f66756e2d657468657265756d2d7365706f6c69612d310000000000000000000060015560a052604051612e579081620000ef82396080518181816102c80152611492015260a05181818161040301528181610a1801526110180152f35b600080fd5b634e487b7160e01b600052604160045260246000fdfe6080604052600436101561001257600080fd5b60003560e01c80630ca76175146101875780632d0c64431461018257806337b6d96b1461017d5780633944ea3a146101785780633b332565146101735780634b0795a81461016e5780635f7a87ed14610169578063662a61f3146101645780636cb6d3271461015f5780636e246ecb1461015a5780636e74336b146101555780637b4ca0e8146101505780638cb1cbcd1461014b57806396f8a47d14610146578063b1e2174914610141578063b53632c21461013c578063bb954bcc14610137578063c626669314610132578063e80db5db1461012d578063f11aa65314610128578063f577a50014610123578063f68016b71461011e5763fb07b7111461011957600080fd5b611176565b611152565b611121565b6110eb565b6110c2565b61103c565b610ff8565b610fcc565b610fae565b610ee1565b610e52565b610df2565b610a75565b610a49565b6109d4565b610997565b610894565b610878565b6106a1565b610671565b61046f565b610344565b610279565b634e487b7160e01b600052604160045260246000fd5b6001600160401b0381116101b557604052565b61018c565b604081019081106001600160401b038211176101b557604052565b6102e081019081106001600160401b038211176101b557604052565b90601f801991011681019081106001600160401b038211176101b557604052565b6001600160401b0381116101b557601f01601f191660200190565b81601f820112156102745780359061024482610212565b9261025260405194856101f1565b8284526020838301011161027457816000926020809301838601378301015290565b600080fd5b34610274576060366003190112610274576004356001600160401b03602435818111610274576102ad90369060040161022d565b90604435908111610274576102c690369060040161022d565b7f00000000000000000000000000000000000000000000000000000000000000006001600160a01b031633036103275761030091836127c1565b7f85e1543bf2f84fe80c6badbce3648c8539ad1df4d2b3d822938ca0538be727e6600080a2005b60405163c6829f8360e01b8152600490fd5b600091031261027457565b346102745760008060031936011261046c5761035e611308565b9061037061036a610a93565b83611850565b60405161037c816101ba565b60018152815b60208082101561039d57906060602092828501015201610382565b7feae102016b8d00bb38f05fd3f3c3c461f935624c845f30452a4799b426348bac8461042d6104286103f4896103ef896103d5612364565b6103de826113a9565b526103e8816113a9565b5082611879565b61167d565b835463ffffffff165b600154917f00000000000000000000000000000000000000000000000000000000000000009061143a565b600355565b61044d6104466003546000526006602052604060002090565b6103e79055565b610468600354806103e760405195858796a382526020820190565b0390f35b80fd5b34610274576020366003190112610274576004356000526007602052602060ff604060002054166040519015158152f35b90600182811c921680156104d0575b60208310146104ba57565b634e487b7160e01b600052602260045260246000fd5b91607f16916104af565b60405190600082600454916104ee836104a0565b808352926001908181169081156105765750600114610517575b50610515925003836101f1565b565b6004600090815291507f8a35acfbc15ff81a39ae7d344fd709f28e8600b4aa8c65c6b64bfe7fe36bd19b5b84831061055b5750610515935050810160200138610508565b81935090816020925483858a01015201910190918592610542565b90506020925061051594915060ff191682840152151560051b82010138610508565b60405190600082600554916105ac836104a0565b8083529260019081811690811561057657506001146105d25750610515925003836101f1565b6005600090815291507f036b6384b5eca791c62761152d0c79bb0604c104a5fb6f4eb0703f3154bb3db05b8483106106165750610515935050810160200138610508565b81935090816020925483858a010152019101909185926105fd565b919082519283825260005b84811061065d575050826000602080949584010152601f8019910116010190565b60208183018101518483018201520161063c565b346102745760003660031901126102745761046861068d6104da565b604051918291602083526020830190610631565b34610274576080366003190112610274576024356004358115158203610274576044356064356001600160401b038111610274576106e390369060040161022d565b9260018060a01b036106fa816002541633146111a2565b61072761072261071e610717876000526007602052604060002090565b5460ff1690565b1590565b612cb0565b61074b61073e856000526007602052604060002090565b805460ff19166001179055565b61077482610763866000526008602052604060002090565b9060ff801983541691151516179055565b82610789856000526009602052604060002090565b556107a7856107a286600052600a602052604060002090565b612cfc565b6107c36107be85600052600b602052604060002090565b612dca565b426107d885600052600c602052604060002090565b556040805183151581526020810185905285917f08feababa7031f6d52e6982b68e59ff4cf338649f07987883f6c0b636c49b12391a26002546001600160a01b031616908161082357005b813b15610274576000809461084e6040519788968795869463510ec4d160e11b865260048601612dfc565b03925af180156108735761085e57005b8061086b610871926101a2565b80610339565b005b61142e565b346102745760003660031901126102745761046861068d610598565b34610274576000366003190112610274576003546108b06104da565b906104686108bc610598565b6108d86040519485948552606060208601526060850190610631565b908382036040850152610631565b90600092918054916108f7836104a0565b9182825260019384811690816000146109595750600114610919575b50505050565b90919394506000526020928360002092846000945b838610610945575050505001019038808080610913565b80548587018301529401938590820161092e565b9294505050602093945060ff191683830152151560051b01019038808080610913565b9061051561099092604051938480926108e6565b03836101f1565b3461027457602036600319011261027457600435600052600a6020526104686109cd61068d6040600020604051928380926108e6565b03826101f1565b3461027457600036600319011261027457608063ffffffff600054166001546040519173b83e47c2bc239b3bf370bc41e1459a34b41238d083526001600160401b037f000000000000000000000000000000000000000000000000000000000000000016602084015260408301526060820152f35b346102745760203660031901126102745760043560005260066020526020604060002054604051908152f35b34610274576000366003190112610274576020600154604051908152f35b60405190610aa0826101d5565b6102b582527473756c742e637265646974526174696e677d60293b60581b6102c0837f636f6e737420696e766f6963654964203d20617267735b305d3b636f6e73742060208201527f646f63756d656e7448617368203d20617267735b315d3b636f6e737420636f6d60408201527f6d6f64697479203d20617267735b325d3b636f6e737420616d6f756e74203d2060608201527f617267735b335d3b636f6e737420737570706c696572436f756e747279203d2060808201527f617267735b345d3b636f6e7374206275796572436f756e747279203d2061726760a08201527f735b355d3b636f6e73742072657175657374203d2046756e6374696f6e732e6d60c08201527f616b654874747052657175657374287b75726c3a202768747470733a2f2f656160e08201527f726e782d766572696669636174696f6e2d6170692e6f6e72656e6465722e636f6101008201527f6d2f6170692f76312f766572696669636174696f6e2f7665726966792d6d696e6101208201527f696d616c272c6d6574686f643a2027504f5354272c686561646572733a207b276101408201527f436f6e74656e742d54797065273a20276170706c69636174696f6e2f6a736f6e6101608201527f272c2027582d4150492d4b6579273a20736563726574732e6170694b65797d2c6101808201527f646174613a207b696e766f69636549642c20646f63756d656e74486173682c206101a08201527f636f6d6d6f646974792c20616d6f756e743a207061727365496e7428616d6f756101c08201527f6e74292c20737570706c696572436f756e7472792c206275796572436f756e746101e08201527f72797d7d293b636f6e737420726573706f6e7365203d206177616974207265716102008201527f756573743b69662028726573706f6e73652e6572726f7229207468726f7720456102208201527f72726f722827415049204572726f7227293b636f6e737420726573756c74203d6102408201527f20726573706f6e73652e646174613b72657475726e2046756e6374696f6e732e6102608201527f656e636f6465537472696e672860247b726573756c742e697356616c6964203f6102808201527f2031203a20307d2c247b726573756c742e7269736b53636f72657d2c247b72656102a08201520152565b346102745760003660031901126102745761046861068d610a93565b96959490610e4d9360a09593610e3a9215158a52151560208a015260c060408a015260c0890190610631565b9160608801528682036080880152610631565b930152565b34610274576020806003193601126102745760043590610468600083815260078352604060ff81832054169360088152610eca610ed660ff848620541697600b8452610ed1610ebd868089209860098852600a8282205498522092600052600c602052604060002090565b54968651948580926108e6565b03846101f1565b61097c565b925196879687610e0e565b3461027457610100366003190112610274576024356001600160401b0380821161027457610f146004923690840161022d565b9160443582811161027457610f2c903690830161022d565b9060843583811161027457610f44903690830161022d565b9060a43584811161027457610f5c903690830161022d565b9260c43585811161027457610f74903690840161022d565b5060e4359485116102745761046895610f93610f9e963690850161022d565b5060643592356111e3565b6040519081529081906020820190565b34610274576000366003190112610274576020600354604051908152f35b346102745760203660031901126102745760043560005260096020526020604060002054604051908152f35b346102745760003660031901126102745760206040516001600160401b037f0000000000000000000000000000000000000000000000000000000000000000168152f35b34610274576020366003190112610274576004356001600160a01b03818116918290036102745760025490811661107d576001600160a01b03191617600255005b60405162461bcd60e51b815260206004820152601960248201527f436f726520636f6e747261637420616c726561647920736574000000000000006044820152606490fd5b34610274576000366003190112610274576002546040516001600160a01b039091168152602090f35b3461027457602036600319011261027457600435600052600b6020526104686109cd61068d6040600020604051928380926108e6565b34610274576020366003190112610274576004356000526008602052602060ff604060002054166040519015158152f35b3461027457600036600319011261027457602063ffffffff60005416604051908152f35b3461027457602036600319011261027457600435600052600c6020526020604060002054604051908152f35b156111a957565b60405162461bcd60e51b815260206004820152601260248201527113db9b1e4818dbdc994818dbdb9d1c9858dd60721b6044820152606490fd5b946112b592916103ef916112c39661127a6104289761120d60018060a01b036002541633146111a2565b611215611308565b96611227611221610a93565b89611850565b61122f611351565b956112398d612be5565b611242886113a9565b5261124c876113a9565b50611256876113bb565b52611260866113bb565b5061126a866113cb565b52611274856113cb565b50612be5565b611283846113db565b5261128d836113db565b50611297836113eb565b526112a1826113eb565b506112ab826113fb565b526103e8816113fb565b60005463ffffffff166103fd565b806112da6003546000526006602052604060002090565b5560035480917feae102016b8d00bb38f05fd3f3c3c461f935624c845f30452a4799b426348bac600080a390565b6040519060e082018281106001600160401b038211176101b557604052606060c08360008152600060208201526000604082015282808201528260808201528260a08201520152565b6040519060e082018281106001600160401b038211176101b557604052600682528160005b60c08110611382575050565b806060602080938501015201611376565b634e487b7160e01b600052603260045260246000fd5b8051156113b65760200190565b611393565b8051600110156113b65760400190565b8051600210156113b65760600190565b8051600310156113b65760800190565b8051600410156113b65760a00190565b8051600510156113b65760c00190565b80518210156113b65760209160051b010190565b90816020910312610274575190565b6040513d6000823e3d90fd5b92906020926001600160401b039263ffffffff611479604051978896879663230e93b160e11b885216600487015260a0602487015260a4860190610631565b60016044860152921660648401526084830152038160007f00000000000000000000000000000000000000000000000000000000000000006001600160a01b03165af1908115610873576000916114f5575b50807f1131472297a800fee664d1d89cfa8f7676ff07189ecc53f80bbb5f4969099db8600080a290565b611516915060203d811161151c575b61150e81836101f1565b81019061141f565b386114cb565b503d611504565b60405190611530826101ba565b600c82526b31b7b232a637b1b0ba34b7b760a11b6020830152565b634e487b7160e01b600052602160045260246000fd5b6003111561156b57565b61154b565b6040519061157d826101ba565b60088252676c616e677561676560c01b6020830152565b6001111561156b57565b604051906115ab826101ba565b6006825265736f7572636560d01b6020830152565b604051906115cd826101ba565b60048252636172677360e01b6020830152565b634e487b7160e01b600052601160045260246000fd5b60001981146116055760010190565b6115e0565b60405190611617826101ba565b600f82526e39b2b1b932ba39a637b1b0ba34b7b760891b6020830152565b60405190611642826101ba565b60078252667365637265747360c81b6020830152565b60405190611665826101ba565b600982526862797465734172677360b81b6020830152565b6116856118b2565b90611697611691611523565b83612025565b6116b481516116a581611561565b6116ae81611561565b83611999565b6116bf611691611570565b6116d960408201516116d081611594565b6116ae81611594565b6116e461169161159e565b6116f2606082015183612025565b60a081018051516117f7575b506080810190815151611777575b60c091500180515161171f575b50515190565b9161172b611691611658565b611734826120a9565b60005b83518051821015611764579061175a6117538261175f9461140b565b5185611f70565b6115f6565b611737565b5050915061177181612135565b38611719565b60208101805161178681611561565b61178f81611561565b156117e55760c0926117c86117e0926117af6117a961160a565b88612025565b516117b981611561565b6117c281611561565b86611999565b6117d96117d3611635565b86612025565b5184611f70565b61170c565b60405163a80d31f760e01b8152600490fd5b926118096118036115c0565b84612025565b611812836120a9565b60005b8451805182101561183d579061175a611831826118389461140b565b5186612025565b611815565b5050925061184a82612135565b386116fe565b815115611867576000808252604082015260600152565b6040516322ce3edd60e01b8152600490fd5b8151156118865760a00152565b60405163fe936cb760e01b8152600490fd5b604051906118a5826101ba565b6000602083606081520152565b6040516118be816101ba565b6118c6611898565b80825260208201600081526118d9611898565b506101006020830152604051809252600082526101208201918210610274576000916040525290565b601f1981019190821161160557565b9190820391821161160557565b906020820180921161160557565b603001908160301161160557565b9190820180921161160557565b90611950611898565b50601f81168061197f575b50806020830152604051908183526000825281016020019081106102745760405290565b60200360208111611605578101809111611605573861195b565b908151916119a5611898565b5082515160018101908181116116055760208501518110156119fe575b60c2602061051596519283010153805182116119f6575b5050604051916020830152602082526119f1826101ba565b611f70565b5238806119d9565b8160011b948286046002148315171561160557602081611a3061051598611a2960c295519184611947565b5082611eb8565b50965050506119c2565b908160011b918083046002149015171561160557565b611a58611898565b508051516001810190818111611605576020830151811015611a91575b605b60208451928301015380518211611a8d57505090565b5290565b8160011b8281046002148315171561160557611aba90611ab385519186611947565b5084611eb8565b50611a75565b611ac8611898565b508051516001810190818111611605576020830151811015611afd575b605a60208451928301015380518211611a8d57505090565b8160011b8281046002148315171561160557611b1f90611ab385519186611947565b50611ae5565b611b2d611898565b508051516001810190818111611605576020830151811015611b62575b605960208451928301015380518211611a8d57505090565b8160011b8281046002148315171561160557611b8490611ab385519186611947565b50611b4a565b611b92611898565b508051516001810190818111611605576020830151811015611bc7575b605860208451928301015380518211611a8d57505090565b8160011b8281046002148315171561160557611be990611ab385519186611947565b50611baf565b611bf7611898565b508051516001810190818111611605576020830151811015611c2c575b607b60208451928301015380518211611a8d57505090565b8160011b8281046002148315171561160557611c4e90611ab385519186611947565b50611c14565b611c5c611898565b508051516001810190818111611605576020830151811015611c91575b607a60208451928301015380518211611a8d57505090565b8160011b8281046002148315171561160557611cb390611ab385519186611947565b50611c79565b611cc1611898565b508051516001810190818111611605576020830151811015611cf6575b607960208451928301015380518211611a8d57505090565b8160011b8281046002148315171561160557611d1890611ab385519186611947565b50611cde565b611d26611898565b508051516001810190818111611605576020830151811015611d5b575b607860208451928301015380518211611a8d57505090565b8160011b8281046002148315171561160557611d7d90611ab385519186611947565b50611d43565b90611d8c611898565b508151516001810191828211611605576020840151821015611dbf575b60208451928301015380518211611a8d57505090565b8260011b8381046002148415171561160557611de890611de186519187611947565b5085611eb8565b50611da9565b90611dfb82519183611947565b50611e04611898565b50805190611e10611898565b50611e1e8151831115611f69565b82515192611e2c838561193a565b916020928284809401518211611ea1575b5183815197820101968211611e99575b505001915b81811015611e735760001991036101000a0190811990511690825116179052565b9192611e8e611e88611e94928651815261191e565b9461191e565b92611902565b611e52565b523880611e4d565b611eb3611ead83611a3a565b82611dee565b611e3d565b90611ec1611898565b508051611ecc611898565b50611eda8251821115611f69565b82515191611ee8828461193a565b6020918291828701518111611f52575b865183815197820101968211611f4a575b505001915b81811015611f305760001991036101000a019081199051169082511617905290565b9192611e8e611e88611f45928651815261191e565b611f0e565b523880611f09565b611f64611f5e82611a3a565b88611dee565b611ef8565b1561027457565b8151611fa79291906001600160401b0381169060178211611faa57611f9f9150604060ff845192161790611d83565b505b51611eb8565b50565b5060ff8111611fcf57611fc990611fc18351611b8a565b5082516122fe565b50611fa1565b61ffff8111611fee57611fc990611fe68351611b25565b508251612297565b63ffffffff811161200f57611fc9906120078351611ac0565b50825161222e565b611fc99061201d8351611a50565b5082516121c2565b8151611fa79291906001600160401b038116906017821161205457611f9f9150606060ff845192161790611d83565b5060ff811161206b57611fc990611fc18351611d1e565b61ffff811161208257611fc990611fe68351611cb9565b63ffffffff811161209b57611fc9906120078351611c54565b611fc99061201d8351611bef565b8051906120b4611898565b508151516001810190818111611605576020840151811015612102575b609f60208095519283010153805182116120fa575b505001805190600182018092116116055752565b5238806120e6565b8160011b93828504600214831517156116055760208161212b8297611a29609f95519184611947565b50955050506120d1565b805190612140611898565b50815151600181019081811161160557602084015181101561218f575b60ff6020809551928301015380518211612187575b50500180516000198101919082116116055752565b523880612172565b8160011b9382850460021483151715611605576020816121b88297611a2960ff95519184611947565b509550505061215d565b906121cb611898565b50815151806008019182600811611605576020840151831161220d575b6008845192830101906001600160401b031982511617905280518211611a8d57505090565b8260011b83810460021484151715611605576122299085611dee565b6121e8565b90612237611898565b508151518060040191826004116116055760208401518311612276575b60048451928301019063ffffffff1982511617905280518211611a8d57505090565b8260011b83810460021484151715611605576122929085611dee565b612254565b906122a0611898565b5081515180600201918260021161160557602084015183116122dd575b60028451928301019061ffff1982511617905280518211611a8d57505090565b8260011b83810460021484151715611605576122f99085611dee565b6122bd565b90612307611898565b508151518060010191826001116116055760208401518311612343575b60018451928301019060ff1982511617905280518211611a8d57505090565b8260011b838104600214841517156116055761235f9085611dee565b612324565b60405190612371826101ba565b600382526239393960e81b6020830152565b81811061238e575050565b60008155600101612383565b90601f81116123a7575050565b61051591600052601f6020600020910160051c810190612383565b90601f82116123cf575050565b6105159160046000527f8a35acfbc15ff81a39ae7d344fd709f28e8600b4aa8c65c6b64bfe7fe36bd19b906020601f840160051c83019310612419575b601f0160051c0190612383565b909150819061240c565b90601f8211612430575050565b6105159160056000527f036b6384b5eca791c62761152d0c79bb0604c104a5fb6f4eb0703f3154bb3db0906020601f840160051c8301931061241957601f0160051c0190612383565b9190601f811161248857505050565b610515926000526020600020906020601f840160051c8301931061241957601f0160051c0190612383565b9081516001600160401b0381116101b5576124d8816124d36004546104a0565b6123c2565b602080601f83116001146125145750819293600092612509575b50508160011b916000199060031b1c191617600455565b0151905038806124f2565b90601f1983169461254760046000527f8a35acfbc15ff81a39ae7d344fd709f28e8600b4aa8c65c6b64bfe7fe36bd19b90565b926000905b87821061258457505083600195961061256b575b505050811b01600455565b015160001960f88460031b161c19169055388080612560565b8060018596829496860151815501950193019061254c565b9081516001600160401b0381116101b5576125c1816125bc6005546104a0565b612423565b602080601f83116001146125fd57508192936000926125f2575b50508160011b916000199060031b1c191617600555565b0151905038806125db565b90601f1983169461263060056000527f036b6384b5eca791c62761152d0c79bb0604c104a5fb6f4eb0703f3154bb3db090565b926000905b87821061266d575050836001959610612654575b505050811b01600555565b015160001960f88460031b161c19169055388080612649565b80600185968294968601518155019501930190612635565b909161269c6126aa93604084526040840190610631565b916020818403910152610631565b90565b6126c06126ba82546104a0565b8261239a565b600a6422a92927a960d91b019055565b6126dd6126ba82546104a0565b601a6c29b2b93b34b1b29032b93937b960991b019055565b60405190612702826101ba565b600e82526d22697356616c6964223a7472756560901b6020830152565b61272c6126ba82546104a0565b7f4561726e5820766572696669636174696f6e206661696c6564000000000000329055565b61275e6126ba82546104a0565b6002604160f81b019055565b6127776126ba82546104a0565b7f4561726e5820766572696669636174696f6e20706173736564000000000000329055565b90926080926126aa9594835215156020830152604082015281606082015201906108e6565b61281b906127ce836124b3565b6127d78461259c565b807ff0f413c077269966d7e2dabc8eb21ba825fef41a93078a6ae69923b9c718f44460405180612808888883612685565b0390a26000526006602052604060002090565b54918215612b045761283a61073e846000526007602052604060002090565b4261284f84600052600c602052604060002090565b55511580612afa575b15612a585761286f906128696126f5565b90612b1a565b156129dd5761288b61073e826000526008602052604060002090565b6128a86128a2826000526009602052604060002090565b60199055565b6128c46128bf82600052600a602052604060002090565b612751565b6128e06128db82600052600b602052604060002090565b61276a565b807f08feababa7031f6d52e6982b68e59ff4cf338649f07987883f6c0b636c49b123612919610717836000526008602052604060002090565b61292d836000526009602052604060002090565b54604080519215158352602083019190915290a26002546001600160a01b03169081612957575050565b61296e610717826000526008602052604060002090565b91612983826000526009602052604060002090565b549061299983600052600a602052604060002090565b93813b1561027457600080946129c56040519788968795869463510ec4d160e11b86526004860161279c565b03925af16129d05750565b8061086b610515926101a2565b6129fe6129f4826000526008602052604060002090565b805460ff19169055565b612a1b612a15826000526009602052604060002090565b60639055565b612a37612a3282600052600a602052604060002090565b6126ad565b612a53612a4e82600052600b602052604060002090565b61271f565b6128e0565b50612a706129f4826000526008602052604060002090565b612a87612a15826000526009602052604060002090565b612a9e612a3282600052600a602052604060002090565b612aba612ab582600052600b602052604060002090565b6126d0565b7f08feababa7031f6d52e6982b68e59ff4cf338649f07987883f6c0b636c49b12360405180612af58190606360206040840193600081520152565b0390a2565b5080511515612858565b505050565b9081518110156113b6570160200190565b908151815111612bde576000905b612b358351825190611911565b8211612bd65760019260005b8251811015612bcc57612b6e612b60612b5a838761193a565b84612b09565b516001600160f81b03191690565b612b8b612b7e612b608487612b09565b6001600160f81b03191690565b6001600160f81b031990911603612baa57612ba5906115f6565b612b41565b5092509060005b612bc457612bbe906115f6565b90612b28565b505050600190565b5092919091612bb1565b505050600090565b5050600090565b8015612c9257806000908282935b612c7e5750612c0183610212565b92612c0f60405194856101f1565b80845281601f19612c1f83610212565b013660208701375b612c315750505090565b6000198101908111611605578091600a91612c75612c6c612c5c612c5686860661192c565b60ff1690565b60f81b6001600160f81b03191690565b861a9187612b09565b53049081612c27565b92612c8a600a916115f6565b930480612bf3565b50604051612c9f816101ba565b60018152600360fc1b602082015290565b15612cb757565b60405162461bcd60e51b815260206004820152601860248201527f496e766f69636520616c726561647920766572696669656400000000000000006044820152606490fd5b91909182516001600160401b0381116101b557612d2381612d1d84546104a0565b84612479565b602080601f8311600114612d5f575081929394600092612d54575b50508160011b916000199060031b1c1916179055565b015190503880612d3e565b90601f19831695612d7585600052602060002090565b926000905b888210612db257505083600195969710612d99575b505050811b019055565b015160001960f88460031b161c19169055388080612d8f565b80600185968294968601518155019501930190612d7a565b612dd76126ba82546104a0565b7f44697265637420766572696669636174696f6e206279706173730000000000349055565b90926080926126aa95948352151560208301526040820152816060820152019061063156fea26469706673582212204f8341c0e8fe2f73d25ac0ad61c36e2d2bafa3ac58337328087de4d8d868824664736f6c63430008140033",
  "linkReferences": {},
  "deployedLinkReferences": {}
}