{
  "_format": "hh-sol-artifact-1",
  "contractName": "YieldXCore",
  "sourceName": "contracts/YieldXProtocol.sol",
  "abi": [
    {
      "inputs": [
        {
          "internalType": "address",
          "name": "_invoiceNFT",
          "type": "address"
        },
        {
          "internalType": "address",
          "name": "_usdcToken",
          "type": "address"
        },
        {
          "internalType": "address",
          "name": "_priceManager",
          "type": "address"
        },
        {
          "internalType": "address",
          "name": "_verificationModule",
          "type": "address"
        },
        {
          "internalType": "address",
          "name": "_investmentModule",
          "type": "address"
        },
        {
          "internalType": "address",
          "name": "_vrfModule",
          "type": "address"
        }
      ],
      "stateMutability": "nonpayable",
      "type": "constructor"
    },
    {
      "anonymous": false,
      "inputs": [
        {
          "indexed": true,
          "internalType": "uint256",
          "name": "invoiceId",
          "type": "uint256"
        },
        {
          "indexed": true,
          "internalType": "address",
          "name": "investor",
          "type": "address"
        },
        {
          "indexed": false,
          "internalType": "uint256",
          "name": "amount",
          "type": "uint256"
        },
        {
          "indexed": false,
          "internalType": "uint256",
          "name": "newTotal",
          "type": "uint256"
        }
      ],
      "name": "InvestmentMade",
      "type": "event"
    },
    {
      "anonymous": false,
      "inputs": [
        {
          "indexed": true,
          "internalType": "uint256",
          "name": "invoiceId",
          "type": "uint256"
        },
        {
          "indexed": false,
          "internalType": "uint256",
          "name": "aprBasisPoints",
          "type": "uint256"
        }
      ],
      "name": "InvoiceApproved",
      "type": "event"
    },
    {
      "anonymous": false,
      "inputs": [
        {
          "indexed": true,
          "internalType": "uint256",
          "name": "invoiceId",
          "type": "uint256"
        },
        {
          "indexed": false,
          "internalType": "uint256",
          "name": "totalAmount",
          "type": "uint256"
        },
        {
          "indexed": false,
          "internalType": "uint256",
          "name": "numInvestors",
          "type": "uint256"
        }
      ],
      "name": "InvoiceFullyFunded",
      "type": "event"
    },
    {
      "anonymous": false,
      "inputs": [
        {
          "indexed": true,
          "internalType": "uint256",
          "name": "invoiceId",
          "type": "uint256"
        },
        {
          "indexed": false,
          "internalType": "uint256",
          "name": "fundingAmount",
          "type": "uint256"
        }
      ],
      "name": "InvoiceFunded",
      "type": "event"
    },
    {
      "anonymous": false,
      "inputs": [
        {
          "indexed": true,
          "internalType": "uint256",
          "name": "invoiceId",
          "type": "uint256"
        },
        {
          "indexed": false,
          "internalType": "string",
          "name": "reason",
          "type": "string"
        }
      ],
      "name": "InvoiceRejected",
      "type": "event"
    },
    {
      "anonymous": false,
      "inputs": [
        {
          "indexed": true,
          "internalType": "uint256",
          "name": "invoiceId",
          "type": "uint256"
        },
        {
          "indexed": false,
          "internalType": "uint256",
          "name": "repaymentAmount",
          "type": "uint256"
        },
        {
          "indexed": false,
          "internalType": "uint256",
          "name": "profitDistributed",
          "type": "uint256"
        }
      ],
      "name": "InvoiceRepaid",
      "type": "event"
    },
    {
      "anonymous": false,
      "inputs": [
        {
          "indexed": true,
          "internalType": "uint256",
          "name": "invoiceId",
          "type": "uint256"
        },
        {
          "indexed": true,
          "internalType": "address",
          "name": "supplier",
          "type": "address"
        },
        {
          "indexed": false,
          "internalType": "uint256",
          "name": "amount",
          "type": "uint256"
        },
        {
          "indexed": false,
          "internalType": "uint256",
          "name": "targetFunding",
          "type": "uint256"
        }
      ],
      "name": "InvoiceSubmitted",
      "type": "event"
    },
    {
      "anonymous": false,
      "inputs": [
        {
          "indexed": true,
          "internalType": "uint256",
          "name": "invoiceId",
          "type": "uint256"
        },
        {
          "indexed": false,
          "internalType": "uint256",
          "name": "aprBasisPoints",
          "type": "uint256"
        },
        {
          "indexed": false,
          "internalType": "uint256",
          "name": "riskScore",
          "type": "uint256"
        }
      ],
      "name": "InvoiceVerified",
      "type": "event"
    },
    {
      "inputs": [
        {
          "internalType": "uint256",
          "name": "invoiceId",
          "type": "uint256"
        },
        {
          "internalType": "string",
          "name": "reason",
          "type": "string"
        }
      ],
      "name": "emergencyRejectInvoice",
      "outputs": [],
      "stateMutability": "nonpayable",
      "type": "function"
    },
    {
      "inputs": [],
      "name": "getAllInvoices",
      "outputs": [
        {
          "internalType": "uint256[]",
          "name": "",
          "type": "uint256[]"
        }
      ],
      "stateMutability": "view",
      "type": "function"
    },
    {
      "inputs": [],
      "name": "getContractInfo",
      "outputs": [
        {
          "internalType": "string",
          "name": "name",
          "type": "string"
        },
        {
          "internalType": "string",
          "name": "version_",
          "type": "string"
        },
        {
          "internalType": "address",
          "name": "owner_",
          "type": "address"
        },
        {
          "internalType": "bool",
          "name": "paused_",
          "type": "bool"
        },
        {
          "internalType": "uint256",
          "name": "totalInvoices",
          "type": "uint256"
        }
      ],
      "stateMutability": "view",
      "type": "function"
    },
    {
      "inputs": [
        {
          "internalType": "uint256",
          "name": "invoiceId",
          "type": "uint256"
        }
      ],
      "name": "getInvestmentBasics",
      "outputs": [
        {
          "internalType": "uint256",
          "name": "targetFunding",
          "type": "uint256"
        },
        {
          "internalType": "uint256",
          "name": "currentFunding",
          "type": "uint256"
        },
        {
          "internalType": "uint256",
          "name": "remainingFunding",
          "type": "uint256"
        },
        {
          "internalType": "uint256",
          "name": "numInvestors",
          "type": "uint256"
        }
      ],
      "stateMutability": "view",
      "type": "function"
    },
    {
      "inputs": [],
      "name": "getInvestmentModule",
      "outputs": [
        {
          "internalType": "address",
          "name": "",
          "type": "address"
        }
      ],
      "stateMutability": "view",
      "type": "function"
    },
    {
      "inputs": [],
      "name": "getInvestmentOpportunities",
      "outputs": [
        {
          "internalType": "uint256[]",
          "name": "",
          "type": "uint256[]"
        }
      ],
      "stateMutability": "view",
      "type": "function"
    },
    {
      "inputs": [
        {
          "internalType": "address",
          "name": "investor",
          "type": "address"
        },
        {
          "internalType": "uint256",
          "name": "invoiceId",
          "type": "uint256"
        }
      ],
      "name": "getInvestorData",
      "outputs": [
        {
          "internalType": "uint256",
          "name": "",
          "type": "uint256"
        }
      ],
      "stateMutability": "view",
      "type": "function"
    },
    {
      "inputs": [
        {
          "internalType": "address",
          "name": "investor",
          "type": "address"
        }
      ],
      "name": "getInvestorInvoices",
      "outputs": [
        {
          "internalType": "uint256[]",
          "name": "",
          "type": "uint256[]"
        }
      ],
      "stateMutability": "view",
      "type": "function"
    },
    {
      "inputs": [
        {
          "internalType": "uint256",
          "name": "invoiceId",
          "type": "uint256"
        }
      ],
      "name": "getInvoiceAmount",
      "outputs": [
        {
          "internalType": "uint256",
          "name": "",
          "type": "uint256"
        }
      ],
      "stateMutability": "view",
      "type": "function"
    },
    {
      "inputs": [
        {
          "internalType": "uint256",
          "name": "invoiceId",
          "type": "uint256"
        }
      ],
      "name": "getInvoiceBasics",
      "outputs": [
        {
          "internalType": "uint256",
          "name": "id",
          "type": "uint256"
        },
        {
          "internalType": "address",
          "name": "supplier",
          "type": "address"
        },
        {
          "internalType": "uint256",
          "name": "amount",
          "type": "uint256"
        },
        {
          "internalType": "enum YieldXCore.InvoiceStatus",
          "name": "status",
          "type": "uint8"
        }
      ],
      "stateMutability": "view",
      "type": "function"
    },
    {
      "inputs": [
        {
          "internalType": "uint256",
          "name": "invoiceId",
          "type": "uint256"
        }
      ],
      "name": "getInvoiceBuyer",
      "outputs": [
        {
          "internalType": "address",
          "name": "",
          "type": "address"
        }
      ],
      "stateMutability": "view",
      "type": "function"
    },
    {
      "inputs": [
        {
          "internalType": "uint256",
          "name": "invoiceId",
          "type": "uint256"
        }
      ],
      "name": "getInvoiceCommodity",
      "outputs": [
        {
          "internalType": "string",
          "name": "",
          "type": "string"
        }
      ],
      "stateMutability": "view",
      "type": "function"
    },
    {
      "inputs": [
        {
          "internalType": "uint256",
          "name": "invoiceId",
          "type": "uint256"
        }
      ],
      "name": "getInvoiceFinancials",
      "outputs": [
        {
          "internalType": "uint256",
          "name": "targetFunding",
          "type": "uint256"
        },
        {
          "internalType": "uint256",
          "name": "currentFunding",
          "type": "uint256"
        },
        {
          "internalType": "uint256",
          "name": "aprBasisPoints",
          "type": "uint256"
        },
        {
          "internalType": "uint256",
          "name": "dueDate",
          "type": "uint256"
        }
      ],
      "stateMutability": "view",
      "type": "function"
    },
    {
      "inputs": [
        {
          "internalType": "uint256",
          "name": "invoiceId",
          "type": "uint256"
        }
      ],
      "name": "getInvoiceLocations",
      "outputs": [
        {
          "internalType": "string",
          "name": "supplierCountry",
          "type": "string"
        },
        {
          "internalType": "string",
          "name": "buyerCountry",
          "type": "string"
        }
      ],
      "stateMutability": "view",
      "type": "function"
    },
    {
      "inputs": [
        {
          "internalType": "uint256",
          "name": "invoiceId",
          "type": "uint256"
        }
      ],
      "name": "getInvoiceMetadata",
      "outputs": [
        {
          "internalType": "uint256",
          "name": "createdAt",
          "type": "uint256"
        },
        {
          "internalType": "bool",
          "name": "documentVerified",
          "type": "bool"
        },
        {
          "internalType": "uint256",
          "name": "remainingFunding",
          "type": "uint256"
        }
      ],
      "stateMutability": "view",
      "type": "function"
    },
    {
      "inputs": [
        {
          "internalType": "uint256",
          "name": "invoiceId",
          "type": "uint256"
        }
      ],
      "name": "getInvoiceParties",
      "outputs": [
        {
          "internalType": "address",
          "name": "buyer",
          "type": "address"
        },
        {
          "internalType": "string",
          "name": "exporterName",
          "type": "string"
        },
        {
          "internalType": "string",
          "name": "buyerName",
          "type": "string"
        },
        {
          "internalType": "string",
          "name": "commodity",
          "type": "string"
        }
      ],
      "stateMutability": "view",
      "type": "function"
    },
    {
      "inputs": [
        {
          "internalType": "uint256",
          "name": "invoiceId",
          "type": "uint256"
        }
      ],
      "name": "getInvoiceStatus",
      "outputs": [
        {
          "internalType": "enum YieldXCore.InvoiceStatus",
          "name": "",
          "type": "uint8"
        }
      ],
      "stateMutability": "view",
      "type": "function"
    },
    {
      "inputs": [
        {
          "internalType": "uint256",
          "name": "invoiceId",
          "type": "uint256"
        }
      ],
      "name": "getInvoiceSupplier",
      "outputs": [
        {
          "internalType": "address",
          "name": "",
          "type": "address"
        }
      ],
      "stateMutability": "view",
      "type": "function"
    },
    {
      "inputs": [
        {
          "internalType": "enum YieldXCore.InvoiceStatus",
          "name": "status",
          "type": "uint8"
        }
      ],
      "name": "getInvoicesByStatus",
      "outputs": [
        {
          "internalType": "uint256[]",
          "name": "",
          "type": "uint256[]"
        }
      ],
      "stateMutability": "view",
      "type": "function"
    },
    {
      "inputs": [],
      "name": "getProtocolStats",
      "outputs": [
        {
          "internalType": "uint256",
          "name": "totalInvoices",
          "type": "uint256"
        },
        {
          "internalType": "uint256",
          "name": "totalFundsRaised",
          "type": "uint256"
        },
        {
          "internalType": "uint256",
          "name": "pendingInvoices",
          "type": "uint256"
        },
        {
          "internalType": "uint256",
          "name": "verifiedInvoices",
          "type": "uint256"
        },
        {
          "internalType": "uint256",
          "name": "fundedInvoices",
          "type": "uint256"
        }
      ],
      "stateMutability": "view",
      "type": "function"
    },
    {
      "inputs": [
        {
          "internalType": "address",
          "name": "supplier",
          "type": "address"
        }
      ],
      "name": "getSupplierInvoices",
      "outputs": [
        {
          "internalType": "uint256[]",
          "name": "",
          "type": "uint256[]"
        }
      ],
      "stateMutability": "view",
      "type": "function"
    },
    {
      "inputs": [],
      "name": "getVRFModule",
      "outputs": [
        {
          "internalType": "address",
          "name": "",
          "type": "address"
        }
      ],
      "stateMutability": "view",
      "type": "function"
    },
    {
      "inputs": [],
      "name": "getVerificationModule",
      "outputs": [
        {
          "internalType": "address",
          "name": "",
          "type": "address"
        }
      ],
      "stateMutability": "view",
      "type": "function"
    },
    {
      "inputs": [],
      "name": "initializeProtocol",
      "outputs": [],
      "stateMutability": "nonpayable",
      "type": "function"
    },
    {
      "inputs": [
        {
          "internalType": "uint256",
          "name": "invoiceId",
          "type": "uint256"
        },
        {
          "internalType": "uint256",
          "name": "amount",
          "type": "uint256"
        }
      ],
      "name": "investInInvoice",
      "outputs": [],
      "stateMutability": "nonpayable",
      "type": "function"
    },
    {
      "inputs": [],
      "name": "investmentModule",
      "outputs": [
        {
          "internalType": "contract YieldXInvestmentModule",
          "name": "",
          "type": "address"
        }
      ],
      "stateMutability": "view",
      "type": "function"
    },
    {
      "inputs": [],
      "name": "invoiceCounter",
      "outputs": [
        {
          "internalType": "uint256",
          "name": "",
          "type": "uint256"
        }
      ],
      "stateMutability": "view",
      "type": "function"
    },
    {
      "inputs": [],
      "name": "invoiceNFT",
      "outputs": [
        {
          "internalType": "contract YieldXInvoiceNFT",
          "name": "",
          "type": "address"
        }
      ],
      "stateMutability": "view",
      "type": "function"
    },
    {
      "inputs": [
        {
          "internalType": "uint256",
          "name": "",
          "type": "uint256"
        }
      ],
      "name": "invoices",
      "outputs": [
        {
          "internalType": "uint256",
          "name": "id",
          "type": "uint256"
        },
        {
          "internalType": "address",
          "name": "supplier",
          "type": "address"
        },
        {
          "internalType": "address",
          "name": "buyer",
          "type": "address"
        },
        {
          "internalType": "uint256",
          "name": "amount",
          "type": "uint256"
        },
        {
          "internalType": "string",
          "name": "commodity",
          "type": "string"
        },
        {
          "internalType": "string",
          "name": "supplierCountry",
          "type": "string"
        },
        {
          "internalType": "string",
          "name": "buyerCountry",
          "type": "string"
        },
        {
          "internalType": "string",
          "name": "exporterName",
          "type": "string"
        },
        {
          "internalType": "string",
          "name": "buyerName",
          "type": "string"
        },
        {
          "internalType": "uint256",
          "name": "dueDate",
          "type": "uint256"
        },
        {
          "internalType": "uint256",
          "name": "aprBasisPoints",
          "type": "uint256"
        },
        {
          "internalType": "enum YieldXCore.InvoiceStatus",
          "name": "status",
          "type": "uint8"
        },
        {
          "internalType": "uint256",
          "name": "createdAt",
          "type": "uint256"
        },
        {
          "internalType": "bool",
          "name": "documentVerified",
          "type": "bool"
        },
        {
          "internalType": "uint256",
          "name": "targetFunding",
          "type": "uint256"
        },
        {
          "internalType": "uint256",
          "name": "currentFunding",
          "type": "uint256"
        }
      ],
      "stateMutability": "view",
      "type": "function"
    },
    {
      "inputs": [
        {
          "internalType": "uint256",
          "name": "invoiceId",
          "type": "uint256"
        }
      ],
      "name": "isInvoiceVerified",
      "outputs": [
        {
          "internalType": "bool",
          "name": "",
          "type": "bool"
        }
      ],
      "stateMutability": "view",
      "type": "function"
    },
    {
      "inputs": [
        {
          "internalType": "uint256",
          "name": "invoiceId",
          "type": "uint256"
        },
        {
          "internalType": "bool",
          "name": "isValid",
          "type": "bool"
        },
        {
          "internalType": "uint256",
          "name": "riskScore",
          "type": "uint256"
        },
        {
          "internalType": "string",
          "name": "creditRating",
          "type": "string"
        }
      ],
      "name": "onDocumentVerificationComplete",
      "outputs": [],
      "stateMutability": "nonpayable",
      "type": "function"
    },
    {
      "inputs": [
        {
          "internalType": "uint256",
          "name": "invoiceId",
          "type": "uint256"
        },
        {
          "internalType": "uint256",
          "name": "randomness",
          "type": "uint256"
        }
      ],
      "name": "onVRFComplete",
      "outputs": [],
      "stateMutability": "nonpayable",
      "type": "function"
    },
    {
      "inputs": [],
      "name": "owner",
      "outputs": [
        {
          "internalType": "address",
          "name": "",
          "type": "address"
        }
      ],
      "stateMutability": "view",
      "type": "function"
    },
    {
      "inputs": [],
      "name": "pause",
      "outputs": [],
      "stateMutability": "nonpayable",
      "type": "function"
    },
    {
      "inputs": [],
      "name": "paused",
      "outputs": [
        {
          "internalType": "bool",
          "name": "",
          "type": "bool"
        }
      ],
      "stateMutability": "view",
      "type": "function"
    },
    {
      "inputs": [],
      "name": "priceManager",
      "outputs": [
        {
          "internalType": "contract YieldXPriceManager",
          "name": "",
          "type": "address"
        }
      ],
      "stateMutability": "view",
      "type": "function"
    },
    {
      "inputs": [
        {
          "internalType": "uint256",
          "name": "invoiceId",
          "type": "uint256"
        }
      ],
      "name": "repayInvoice",
      "outputs": [],
      "stateMutability": "nonpayable",
      "type": "function"
    },
    {
      "inputs": [
        {
          "internalType": "address",
          "name": "buyer",
          "type": "address"
        },
        {
          "internalType": "uint256",
          "name": "amount",
          "type": "uint256"
        },
        {
          "internalType": "string",
          "name": "commodity",
          "type": "string"
        },
        {
          "internalType": "string",
          "name": "supplierCountry",
          "type": "string"
        },
        {
          "internalType": "string",
          "name": "buyerCountry",
          "type": "string"
        },
        {
          "internalType": "string",
          "name": "exporterName",
          "type": "string"
        },
        {
          "internalType": "string",
          "name": "buyerName",
          "type": "string"
        },
        {
          "internalType": "uint256",
          "name": "dueDate",
          "type": "uint256"
        },
        {
          "internalType": "string",
          "name": "documentHash",
          "type": "string"
        }
      ],
      "name": "submitInvoice",
      "outputs": [
        {
          "internalType": "uint256",
          "name": "",
          "type": "uint256"
        }
      ],
      "stateMutability": "nonpayable",
      "type": "function"
    },
    {
      "inputs": [
        {
          "internalType": "address",
          "name": "",
          "type": "address"
        },
        {
          "internalType": "uint256",
          "name": "",
          "type": "uint256"
        }
      ],
      "name": "supplierInvoices",
      "outputs": [
        {
          "internalType": "uint256",
          "name": "",
          "type": "uint256"
        }
      ],
      "stateMutability": "view",
      "type": "function"
    },
    {
      "inputs": [
        {
          "internalType": "address",
          "name": "newOwner",
          "type": "address"
        }
      ],
      "name": "transferOwnership",
      "outputs": [],
      "stateMutability": "nonpayable",
      "type": "function"
    },
    {
      "inputs": [],
      "name": "unpause",
      "outputs": [],
      "stateMutability": "nonpayable",
      "type": "function"
    },
    {
      "inputs": [],
      "name": "usdcToken",
      "outputs": [
        {
          "internalType": "contract MockUSDC",
          "name": "",
          "type": "address"
        }
      ],
      "stateMutability": "view",
      "type": "function"
    },
    {
      "inputs": [],
      "name": "verificationModule",
      "outputs": [
        {
          "internalType": "contract YieldXVerificationModule",
          "name": "",
          "type": "address"
        }
      ],
      "stateMutability": "view",
      "type": "function"
    },
    {
      "inputs": [],
      "name": "version",
      "outputs": [
        {
          "internalType": "string",
          "name": "",
          "type": "string"
        }
      ],
      "stateMutability": "pure",
      "type": "function"
    },
    {
      "inputs": [],
      "name": "vrfModule",
      "outputs": [
        {
          "internalType": "contract YieldXVRFModule",
          "name": "",
          "type": "address"
        }
      ],
      "stateMutability": "view",
      "type": "function"
    }
  ],
  "bytecode": "0x610140346200018d57601f62003f3b38819003918201601f19168301916001600160401b03831184841017620001925780849260c0946040528339810103126200018d576200004e81620001a8565b6200005c60208301620001a8565b6200006a60408401620001a8565b906200007960608501620001a8565b6200009560a06200008d60808801620001a8565b9601620001a8565b6001600160a01b0394851660805291841660a05291831660c05290821660e0529181166101009081529116610120908152600080546001600160a01b03191633179055604051613d7d9290919083620001be8439608051838181611b5f015281816124b70152613313015260a0518381816118e001526137cb015260c0518361087b015260e051838181610ec70152818161112601528181612bbc015261321901525182818161022001528181610a1501528181610b190152818161189801528181612112015281816125db015281816132700152818161342801526134b90152518181816102680152818161033901526132c10152f35b600080fd5b634e487b7160e01b600052604160045260246000fd5b51906001600160a01b03821682036200018d5756fe60a0604052600436101561001257600080fd5b6000803560e01c806237dd951461384457806305955297146137fa5780630bf61c291461111057806311eac855146137b5578063178c5b521461376257806321cbf5e0146136f9578063285c8eac146136a357806329c1d099146134e857806336e845fd146134a357806338a7b167146133c85780633c440681146131ec5780633f4ba83a146131ba57806340a3db9b1461270f578063445e9faa146124e65780634bb6f06d146124a15780634e6d1405146122ce57806354fd4d501461225e578063559034df1461202d578063570bdad614611fc25780635c975abb14611f9f5780635d597ab314611f4b5780636c9c118a146117fc57806373114f3c14611727578063771aceef146115015780637cc1f867146113b85780637e37afbb146111b15780638456cb591461117c5780638da5cb5b1461115557806397d4136014611110578063a21d89a214610e7d578063a57b381c14610e5f578063ad10441c14610e0f578063b19782ef14610d8c578063b55eea1114610252578063bc9a310e14610c00578063bee0649e14610ad5578063c20ceb9b146108aa578063c7e1ffe314610865578063c9108b97146106d5578063ccc2405714610545578063e228c7cc146103a1578063efbd43d414610326578063f2fde38b14610297578063f4f5f583146102525763fd3a2c1b1461020b57600080fd5b3461024f578060031936011261024f576040517f00000000000000000000000000000000000000000000000000000000000000006001600160a01b03168152602090f35b80fd5b503461024f578060031936011261024f576040517f00000000000000000000000000000000000000000000000000000000000000006001600160a01b03168152602090f35b503461024f57602036600319011261024f576102b1613902565b8154906001600160a01b03906102ca3383851614613b4a565b169081156102e2576001600160a01b03191617815580f35b606460405162461bcd60e51b815260206004820152602060248201527f4e6577206f776e65722063616e6e6f74206265207a65726f20616464726573736044820152fd5b503461024f5761033536613b34565b50507f00000000000000000000000000000000000000000000000000000000000000006001600160a01b0316330361036a5780f35b60405162461bcd60e51b815260206004820152600f60248201526e4f6e6c7920565246206d6f64756c6560881b6044820152606490fd5b503461024f57602036600319011261024f5760043580151580610539575b6103c890613c09565b8152600360205260408120604051906103e082613946565b8054825260018060a01b038060018301541692602081019384528160028401541660408201526003830154926060820193845260405161042e816104278160048601613a63565b03826139a6565b6080830152604051610447816104278160058601613a63565b60a0830152604051610460816104278160068601613a63565b60c0830152604051610479816104278160078601613a63565b60e0830152604051610492816104278160088601613a63565b6101008301526009810154610120830152600a81015461014083015260ff600b8201541695600987101561052557509181600f879460809861016061052398960152600c81015461018084015260ff600d8201541615156101a0840152600e8101546101c084015201546101e082015251945116905190604051948552602085015260408401526060830190613897565bf35b634e487b7160e01b81526021600452602490fd5b506001548111156103bf565b503461024f57602036600319011261024f57600435801515806106c9575b61056c90613c09565b81526003602052604081206040519161058483613946565b8154835260018060a01b038060018401541660208501526002830154166040840152600382015460608401526040516105c4816104278160048701613a63565b60808401526040516105dd816104278160058701613a63565b60a08401526040516105f6816104278160068701613a63565b60c084015260405161060f816104278160078701613a63565b60e0840152604051610628816104278160088701613a63565b6101008401526009820154926101208101938452600a83015491610140820192835260ff600b85015416906009821015610525575091816106c5936101606101e097940152600c85015461018082015260ff600d8601541615156101a0820152600f600e86015495866101c08401520154958691015251905190604051948594859094939260609260808301968352602083015260408201520152565b0390f35b50600154811115610563565b503461024f57602036600319011261024f5760043580151580610859575b6106fc90613c09565b81526003602052604081209060405161071481613946565b8254815260018060a01b03806001850154166020830152600284015416604082015260038301546060820152604051610754816104278160048801613a63565b6080820152604051926107758461076e8160058501613a63565b03856139a6565b60a08201938452604051926107918461076e8160068601613a63565b60c083019384526040516107ac816104278160078701613a63565b60e08401526040516107c5816104278160088701613a63565b6101008401526009820154610120840152600a82015461014084015260ff600b830154169060098210156105255750916101e0600f61084b96936106c595610160850152600c81015461018085015260ff600d8201541615156101a0850152600e8101546101c085015201549101525191516040519384936040855260408501906138dd565b9083820360208501526138dd565b506001548111156106f3565b503461024f578060031936011261024f576040517f00000000000000000000000000000000000000000000000000000000000000006001600160a01b03168152602090f35b503461024f57602036600319011261024f5760043580151580610ac9575b6108d190613c09565b808252600360205260408220604051916108ea83613946565b8154835260018060a01b03908160018401541660208501528160028401541660408501526003830154606085015260405161092c816104278160048801613a63565b6080850152604051610945816104278160058801613a63565b60a085015260405161095e816104278160068801613a63565b60c0850152604051610977816104278160078801613a63565b60e0850152604051610990816104278160088801613a63565b6101008501526009830154610120850152600a83015461014085015260ff600b840154166009811015610ab557908591610160860152600c84015461018086015260ff600d8501541615156101a08601526101e0600f600e860154956101c08801968752015495019485526024604051809481936338d18b5f60e11b835260048301527f0000000000000000000000000000000000000000000000000000000000000000165afa938415610aa9578094610a7c575b50506106c59051915192610a598484613cf4565b604051948594859094939260609260808301968352602083015260408201520152565b6106c592945090610a9e913d8091833e610a9681836139a6565b810190613c5e565b509050929038610a45565b604051903d90823e3d90fd5b634e487b7160e01b86526021600452602486fd5b506001548111156108c8565b503461024f576020908160031936011261024f5780602491610af5613902565b604051635f70324f60e11b81526001600160a01b03918216600482015293849182907f0000000000000000000000000000000000000000000000000000000000000000165afa918215610bf3578192610b57575b604051806106c58582613af9565b9091503d8083833e610b6981836139a6565b8101908381830312610beb578051906001600160401b038211610bef570181601f82011215610beb57805190610b9e82613c47565b93610bac60405195866139a6565b828552858086019360051b83010193841161024f57508401905b828210610bdc575050506106c591503880610b49565b81518152908401908401610bc6565b8280fd5b8380fd5b50604051903d90823e3d90fd5b503461024f57602036600319011261024f5760043580151580610d80575b610c2790613c09565b8152600360205260408120604051610c3e81613946565b8154815260018060a01b03806001840154166020830152600283015416604082015260038201546060820152604051610c7e816104278160048701613a63565b6080820152604051610c97816104278160058701613a63565b60a0820152604051610cb0816104278160068701613a63565b60c0820152604051610cc9816104278160078701613a63565b60e0820152604051610ce2816104278160088701613a63565b6101008201526009820154610120820152600a82015461014082015260ff600b830154166009811015610d6c5760609350610160820152610d596101e0600c840154938461018085015260ff600d82015416151593846101a0820152600f600e83015492836101c084015201549283910152613cf4565b9060405192835260208301526040820152f35b634e487b7160e01b84526021600452602484fd5b50600154811115610c1e565b503461024f57602080600319360112610e0b576001600160a01b03610daf613902565b1682526004815260408220916040518092808554928381520194835280832092905b828210610df4576106c585610de8818903826139a6565b60405191829182613af9565b835486529485019460019384019390910190610dd1565b5080fd5b503461024f57602036600319011261024f5760ff600d604060209360043580151580610e53575b610e3f90613c09565b815260038552200154166040519015158152f35b50600154811115610e36565b503461024f578060031936011261024f576020600154604051908152f35b503461024f57608036600319011261024f57600435602480358015159081810361110c57604435916064356001600160401b03811161110857610ec49036906004016139e2565b507f00000000000000000000000000000000000000000000000000000000000000006001600160a01b031633036110c457841515806110b8575b1561107f57848652600360205260408620600b81019283549060ff8216600981101561106c5760010361102857600d830160ff199460ff868354169116179055600014610fc057506102bc94858502958587041485151715610fae57606461032096048601809611610fae57509160026040949286600a7fb08f24163c56b1d0b9f8303da54a8aaae5db5ec8eb5847c167142ef36a827b589896015582541617905582519182526020820152a280f35b634e487b7160e01b8852601160045287fd5b919294505060089250161790557f30f1a1ed9ed0adbcb85235780494613b9e2542cc72f0c5ede21be804cd6470d4606060405160208152601c60208201527f4661696c656420646f63756d656e7420766572696669636174696f6e000000006040820152a280f35b60405162461bcd60e51b815260206004820152601f818901527f496e766f696365206e6f7420696e20766572696679696e6720737461747573006044820152606490fd5b634e487b7160e01b8a526021600452878afd5b60405162461bcd60e51b81526020600482015260128186015271125b9d985b1a59081a5b9d9bda58d948125160721b6044820152606490fd5b50600154851115610efe565b60405162461bcd60e51b8152602060048201526018818601527f4f6e6c7920766572696669636174696f6e206d6f64756c6500000000000000006044820152606490fd5b8680fd5b8480fd5b503461024f578060031936011261024f576040517f00000000000000000000000000000000000000000000000000000000000000006001600160a01b03168152602090f35b503461024f578060031936011261024f57546040516001600160a01b039091168152602090f35b503461024f578060031936011261024f576111a160018060a01b038254163314613b4a565b600160ff19600254161760025580f35b503461024f578060031936011261024f57600180546111cf81613d01565b908392805b82811115611223575050506111e882613d01565b925b8281106111ff57604051806106c58682613af9565b8061120d61121e9284613d33565b516112188287613d33565b52613be7565b6111ea565b8086526003602081815260408820906040519261123f84613946565b8254845260018060a01b03918287850154169085015260029182840154166040850152820154606084015260405161127e816104278160048701613a63565b6080840152604051611297816104278160058701613a63565b60a08401526040516112b0816104278160068701613a63565b60c08401526040516112c9816104278160078701613a63565b60e08401526040516112e2816104278160088701613a63565b610100840152600980830154610120850152600a83015493610140810194855260ff80600b86015416928310156113a4579082916101e09493610160830152600c860154610180830152600d8601541615156101a0820152600f600e86015495866101c084015201549384910152149283611399575b508261138f575b5050611374575b61136f90613be7565b6111d4565b93611387818661121861136f9488613d33565b949050611366565b109050388061135f565b511515925038611358565b634e487b7160e01b8c52602160045260248cfd5b503461024f578060031936011261024f5760405163054fd4d560e41b8152908082600481305afa908115610aa9578091611483575b61145f925060018060a01b0390541660ff600254166001549061146d604051946114168661398b565b602286527f5969656c64582050726f746f636f6c202d20466978656420496e766573746d656020870152611b9d60f21b604087015260405196879660a0885260a08801906138dd565b9086820360208801526138dd565b9260408501521515606084015260808301520390f35b90503d8082843e61149481846139a6565b820191602081840312610e0b578051906001600160401b038211610beb57019180601f84011215610e0b578251926114cb846139c7565b916114d960405193846139a6565b84835260208583010111610beb5761145f936114fb91602080850191016138ba565b906113ed565b503461024f578060031936011261024f5760018054909180808085815b8682111561154857505060a095506040519485526020850152604084015260608301526080820152f35b90928382526003602081815260408420906040519261156684613946565b8254845260018060a01b0391828d85015416908501526002918284015416604085015282015460608401526040516115a5816104278160048701613a63565b60808401526040516005906115c08161042781858801613a63565b60a0850152604051916006926115dc8161042781878901613a63565b60c08601526040516115f5816104278160078901613a63565b60e086015260405161160e816104278160088901613a63565b61010086015260099384810154610120870152600a81015461014087015260ff80600b8301541695861015611713576101e091600f91876101608a0152600c8201546101808a0152600d8201541615156101a0890152600e8101546101c0890152015495019485528315801561170a575b156116a157505050505061169561169b91613be7565b93613be7565b9061151e565b9798949783036116c157505050506116bb61169b91613be7565b94613be7565b8298949814918215611700575b50506116df575b5061169b90613be7565b9561169b91936116f16116f992613be7565b975190613bc4565b92906116d5565b14905038806116ce565b508c841461167f565b634e487b7160e01b89526021600452602489fd5b503461024f57602080600319360112610e0b576009600435818110158061110c576001549061175582613d01565b93869560015b848111156117995788888861176f82613d01565b925b82811061178657604051806106c58682613af9565b8061120d6117949284613d33565b611771565b8089526003825260408920600b015460ff16846117e857838110156117e85786146117cd575b6117c890613be7565b61175b565b966117e081896112186117c8948b613d33565b9790506117bf565b634e487b7160e01b8a52602160045260248afd5b503461024f5761180b36613b34565b81151580611f3f575b61181d90613c09565b61182c60ff6002541615613b83565b81835260206003815260408420600b81019260ff8454166009811015611f2b57600203611ed6578015611e8657600f82019182549061186b8383613bc4565b92600e8201918254809511611e3757600101546001600160a01b039081169590929190338714611de457837f0000000000000000000000000000000000000000000000000000000000000000169660405195636eb1769f60e11b875233600488015260249789898901528d6044988c818b818c7f0000000000000000000000000000000000000000000000000000000000000000165afa908115611dd957879291611da8575b5010611d4b5760c48d8f8796958e958d958d9b9a6040519c8d988997630f763bb360e21b8952600489015233908801528601526064850152608484015260a48301528c5af1938415611c93578c94611d1c575b508390556040519081528288820152897ff31343540affa723d26848192c2f28ab76925951531440b6f2e082030394314f60403393a35411156119a5578780f35b855460ff199081166003179096556040516338d18b5f60e11b81526004810188905288818581885afa908115611d115760407f99e22402a0724556366c1d60e161aae013b4360732a8671712931ec53efefffe918a938c918d91611cf4575b50825191825289820152a2868852600385526040882092600b84019360ff8554166009811015611ce157600303611c9e57600f810154956001820190888c60648d88865416926040519586948593630cef37e560e01b855260048501528a8401528d8c8401525af1908115611c93578c91611c59575b5015611c1657839054169060038101549060098101549160ff8854166009811015611c035792828b9795928f94958f9896600c015491600a840154936040519c8d9b8c9a8b9963698a517960e01b8b5260048b01528901528701610180905261018487016004820190611aec91613a63565b91606488015260031991828882030160848901526007820190611b0e91613a63565b878103830160a4890152611b259060088301613a63565b918783030160c488015260060190611b3c91613a63565b9360e48601526101048501526101248401528361014484015261016483015203927f0000000000000000000000000000000000000000000000000000000000000000165af18015611bf857611bc9575b5060057f430f5c27525242f9d67ea1f77d37d42af15eeccaf0b9a743214f3cf6c6062a9e94825416179055604051908152a2388080808080808780f35b8390813d8311611bf1575b611bde81836139a6565b81010312611bec5738611b8c565b600080fd5b503d611bd4565b6040513d89823e3d90fd5b634e487b7160e01b8e526021600452858efd5b60405162461bcd60e51b815260048101899052601b818501527f5472616e7366657220746f20737570706c696572206661696c6564000000000081870152606490fd5b90508881813d8311611c8c575b611c7081836139a6565b81010312611c8857518015158103611c885738611a7a565b8b80fd5b503d611c66565b6040513d8e823e3d90fd5b60405162461bcd60e51b8152600481018890526018818401527f496e766f696365206e6f742066756c6c792066756e646564000000000000000081860152606490fd5b634e487b7160e01b8b526021600452828bfd5b611d0a925090503d808e833e610a9681836139a6565b5038611a04565b6040513d8b823e3d90fd5b9093508881813d8311611d44575b611d3481836139a6565b81010312611bec57519238611964565b503d611d2a565b60405162461bcd60e51b8152600481018c90526031818b01527f496e73756666696369656e74205553444320616c6c6f77616e636520666f7220818a015270696e766573746d656e74206d6f64756c6560781b6064820152608490fd5b8092508d8092503d8311611dd2575b611dc181836139a6565b81010312611bec5785905138611911565b503d611db7565b6040513d84823e3d90fd5b60405162461bcd60e51b815260048101899052602560248201527f537570706c6965722063616e6e6f7420696e7665737420696e206f776e20696e604482015264766f69636560d81b6064820152608490fd5b60405162461bcd60e51b815260048101889052602160248201527f496e766573746d656e742065786365656473207461726765742066756e64696e6044820152606760f81b6064820152608490fd5b60405162461bcd60e51b815260048101849052602260248201527f496e766573746d656e7420616d6f756e74206d75737420626520706f73697469604482015261766560f01b6064820152608490fd5b60405162461bcd60e51b815260048101849052602760248201527f496e766f696365206d75737420626520766572696669656420666f7220696e76604482015266195cdd1b595b9d60ca1b6064820152608490fd5b634e487b7160e01b87526021600452602487fd5b50600154821115611814565b503461024f57602036600319011261024f5760209060043580151580611f93575b611f7590613c09565b8152600382526002604060018060a01b039220015416604051908152f35b50600154811115611f6c565b503461024f578060031936011261024f57602060ff600254166040519015158152f35b503461024f578060031936011261024f57600154611fdf81613d01565b9060015b81811115611ff957604051806106c58582613af9565b60001981018181116120195790806112186120149386613d33565b611fe3565b634e487b7160e01b85526011600452602485fd5b503461024f57602080600319360112610e0b576004359081151580612252575b61205690613c09565b61206560ff6002541615613b83565b8183526003815260408320600b810160ff8154166009811015610ab5576005036122185760028201546001600160a01b0390811633036121dc57908386926084600f6120e4876301e133806120dd6120c1600c84015442613cf4565b6127106120d7600a600387015496015486613bf6565b04613bf6565b0490613bc4565b960154604051958693849263b18ce24f60e01b84528b600485015233602485015289604485015260648401527f0000000000000000000000000000000000000000000000000000000000000000165af19182156121d1578692612180575b50805460ff1916600617905560408051928352928201527f18969ea6899de8b19cc4707e6ceb1d8439082db6291091d6ddaee2649eb3ab919190a280f35b9291508383813d83116121ca575b61219881836139a6565b81010312611bec57915190917f18969ea6899de8b19cc4707e6ceb1d8439082db6291091d6ddaee2649eb3ab91612142565b503d61218e565b6040513d88823e3d90fd5b60405162461bcd60e51b81526004810185905260146024820152734f6e6c792062757965722063616e20726570617960601b6044820152606490fd5b60405162461bcd60e51b8152600481018490526012602482015271125b9d9bda58d9481b9bdd08199d5b99195960721b6044820152606490fd5b5060015482111561204d565b503461024f578060031936011261024f576106c560405161227e8161398b565b602981527f5969656c6458436f72652076342e322e30202d20466978656420496e766573746020820152686d656e7420466c6f7760b81b60408201526040519182916020835260208301906138dd565b503461024f57602036600319011261024f5760043581526003602052604090208054600160a01b6001900391826001820154169260028201541692600382015493604051948580600486019061232391613a63565b0361232e90876139a6565b60405195866123408160058801613a63565b0361234b90886139a6565b6040518061235c8160068901613a63565b0361236790826139a6565b604051806123788160078a01613a63565b0361238390826139a6565b60405191826123958160088b01613a63565b036123a090846139a6565b600988015499600a89015494600b8a015460ff1696600c8b015498600d8c015460ff169a600e8d01549c600f01549d6040518060805252608051602001526080516040015260805160600152610200806080516080015260805101612404916138dd565b6080518082039060a00152612418916138dd565b6080518082039060c0015261242c916138dd565b6080518082039060e00152612440916138dd565b608051808203906101000152612455916138dd565b96608051610120015260805161014001526080516101600161247691613897565b608051610180015215156080516101a001526080516101c001526080516101e0015260805180910390f35b503461024f578060031936011261024f576040517f00000000000000000000000000000000000000000000000000000000000000006001600160a01b03168152602090f35b503461024f57604036600319011261024f576004356024356001600160401b038111610beb5761251a9036906004016139e2565b82546001600160a01b03906125329082163314613b4a565b82151580612703575b61254490613c09565b82845260036020526040842090600b82019182549060ff8216600981101590816117135780159182156126f5575b82156126d0575b50501561267b5786936008600f9360ff1916179055019081546125d9575b5050506125d37f30f1a1ed9ed0adbcb85235780494613b9e2542cc72f0c5ede21be804cd6470d4916040519182916020835260208301906138dd565b0390a280f35b7f000000000000000000000000000000000000000000000000000000000000000016803b15610beb57828091602460405180948193634f74c3d960e11b83528a60048401525af1801561267057612657575b5055827f30f1a1ed9ed0adbcb85235780494613b9e2542cc72f0c5ede21be804cd6470d46125d3612597565b9161266481949293613978565b610beb5791903861262b565b6040513d85823e3d90fd5b60405162461bcd60e51b815260206004820152602760248201527f43616e6e6f742072656a65637420696e766f69636520696e2063757272656e746044820152662073746174757360c81b6064820152608490fd5b9091506126e1576002143880612579565b634e487b7160e01b88526021600452602488fd5b506001811491506000612572565b5060015483111561253b565b503461024f5761012036600319011261024f5761272a613902565b6044356001600160401b038111610beb576127499036906004016139e2565b6064356001600160401b038111610bef576127689036906004016139e2565b6084356001600160401b03811161110c576127879036906004016139e2565b60a4356001600160401b0381116131b6576127a69036906004016139e2565b60c4356001600160401b038111611108576127c59036906004016139e2565b91610104356001600160401b0381116131b2576127e69036906004016139e2565b936127f660ff6002541615613b83565b6024351561316d5762093a8042018042116131595760e4351115613101578551156130c7578251156130895783511561304e578451156130105761283b600154613be7565b96876001556123286024358160243502048103612ffc57888a52600360205260408a2091898355336bffffffffffffffffffffffff60a01b600185015416176001840155600283019060018060a01b03166bffffffffffffffffffffffff60a01b825416179055602435600383015587516001600160401b038111612cff576128c76004840154613a29565b601f8111612fb7575b50806020601f8211600114612f4c578c91612f41575b508160011b916000199060031b1c19161760048301555b82516001600160401b038111612cff5761291a6005840154613a29565b601f8111612efc575b50806020601f8211600114612e92578c91612e87575b508160011b916000199060031b1c19161760058301555b83516001600160401b038111612cff5761296d6006840154613a29565b601f8111612e42575b50806020601f8211600114612dd8578c91612dcd575b508160011b916000199060031b1c19161760068301555b84516001600160401b038111612cff576129c06007840154613a29565b601f8111612d88575b50806020601f8211600114612d1e578c91612d13575b508160011b916000199060031b1c19161760078301555b85516001600160401b038111612cff57612a136008840154613a29565b601f8111612cba575b50806020601f8211600114612c50578c91612c45575b508160011b916000199060031b1c19161760088301555b60e435600983015589600a83015560ff19600b83015416600b83015542600c830155600d820160ff198154169055612710816024350204600e83015589600f830155338a52600460205260408a20805468010000000000000000811015612c3157600181018255612ab991613918565b81549060031b908b821b91600019901b1916179055604051906024358252602435026127109004602082015288339160407fc09ca85b7f8d95a2b1aa708a813e27efbc15cf5c64f2631952d0b0ee34e409e091a3600b01805460ff191660011790556040516396f8a47d60e01b8152600481018890526101006024820152958695612b49906101048801906138dd565b868103600319016044880152612b5e916138dd565b6024356064870152858103600319016084870152612b7b916138dd565b8481036003190160a4860152612b90916138dd565b8381036003190160c4850152612ba5916138dd565b8281036003190160e4840152612bba916138dd565b7f00000000000000000000000000000000000000000000000000000000000000006001600160a01b03169183910381865a94602095f1801561267057612c06575b602082604051908152f35b602090813d8311612c2a575b612c1c81836139a6565b81010312610e0b5781612bfb565b503d612c12565b634e487b7160e01b8c52604160045260248cfd5b905087015138612a32565b9150600884018c5260208c208c925b601f1983168410612ca2576001935082601f19811610612c89575b5050811b016008830155612a49565b89015160001960f88460031b161c191690553880612c7a565b89810151825560209384019360019092019101612c5f565b600884018c5260208c20601f830160051c810160208410612cf8575b601f830160051c82018110612cec575050612a1c565b60008155600101612cd6565b5080612cd6565b634e487b7160e01b8b52604160045260248bfd5b9050860151386129df565b9150600784018c5260208c208c925b601f1983168410612d70576001935082601f19811610612d57575b5050811b0160078301556129f6565b88015160001960f88460031b161c191690553880612d48565b88810151825560209384019360019092019101612d2d565b600784018c5260208c20601f830160051c810160208410612dc6575b601f830160051c82018110612dba5750506129c9565b60008155600101612da4565b5080612da4565b90508501513861298c565b9150600684018c5260208c208c925b601f1983168410612e2a576001935082601f19811610612e11575b5050811b0160068301556129a3565b87015160001960f88460031b161c191690553880612e02565b87810151825560209384019360019092019101612de7565b600684018c5260208c20601f830160051c810160208410612e80575b601f830160051c82018110612e74575050612976565b60008155600101612e5e565b5080612e5e565b905084015138612939565b9150600584018c5260208c208c925b601f1983168410612ee4576001935082601f19811610612ecb575b5050811b016005830155612950565b86015160001960f88460031b161c191690553880612ebc565b86810151825560209384019360019092019101612ea1565b600584018c5260208c20601f830160051c810160208410612f3a575b601f830160051c82018110612f2e575050612923565b60008155600101612f18565b5080612f18565b9050890151386128e6565b9150600484018c5260208c208c925b8b601f1984168510612fa057506001935082601f19811610612f87575b5050811b0160048301556128fd565b8b015160001960f88460031b161c191690553880612f78565b810151825560209384019360019092019101612f5b565b600484018c5260208c20601f830160051c810160208410612ff5575b601f830160051c82018110612fe95750506128d0565b60008155600101612fd3565b5080612fd3565b634e487b7160e01b8a52601160045260248afd5b60405162461bcd60e51b8152602060048201526016602482015275111bd8dd5b595b9d081a185cda081c995c5d5a5c995960521b6044820152606490fd5b60405162461bcd60e51b8152602060048201526013602482015272109d5e595c881b985b59481c995c5d5a5c9959606a1b6044820152606490fd5b60405162461bcd60e51b8152602060048201526016602482015275115e1c1bdc9d195c881b985b59481c995c5d5a5c995960521b6044820152606490fd5b60405162461bcd60e51b815260206004820152601260248201527110dbdb5b5bd91a5d1e481c995c5d5a5c995960721b6044820152606490fd5b60405162461bcd60e51b815260206004820152602a60248201527f4475652064617465206d757374206265206174206c656173742037206461797360448201526920696e2066757475726560b01b6064820152608490fd5b634e487b7160e01b89526011600452602489fd5b60405162461bcd60e51b815260206004820152601760248201527f416d6f756e74206d75737420626520706f7369746976650000000000000000006044820152606490fd5b8780fd5b8580fd5b503461024f578060031936011261024f576131df60018060a01b038254163314613b4a565b60ff196002541660025580f35b503461024f578060031936011261024f5780546001600160a01b0391906132169083163314613b4a565b817f00000000000000000000000000000000000000000000000000000000000000001691823b15610e0b576040519282846024818363c626669360e01b958683523060048401525af18015612670576133b4575b829350817f000000000000000000000000000000000000000000000000000000000000000016803b1561338c578380916024604051809481938783523060048401525af19081156133a9578491613391575b5050817f00000000000000000000000000000000000000000000000000000000000000001690813b1561338c57839160248392604051948593849283523060048401525af1908115612670578391613378575b50507f000000000000000000000000000000000000000000000000000000000000000016803b15613375578180916024604051809481936316391c0160e21b83523060048401525af18015611dd9576133655750f35b61336e90613978565b61024f5780f35b50fd5b61338190613978565b61337557813861330f565b505050fd5b61339a90613978565b6133a55782386132bc565b5050fd5b6040513d86823e3d90fd5b9190926133c090613978565b90829061326a565b503461024f57604036600319011261024f576133e2613902565b602060243580151580613497575b6133f990613c09565b6040516338a7b16760e01b81526001600160a01b039384166004820152602481019190915291829060449082907f0000000000000000000000000000000000000000000000000000000000000000165afa908115611dd957829161346257602082604051908152f35b90506020813d821161348f575b8161347c602093836139a6565b81010312610e0b57602091505138612bfb565b3d915061346f565b506001548111156133f0565b503461024f578060031936011261024f576040517f00000000000000000000000000000000000000000000000000000000000000006001600160a01b03168152602090f35b503461024f57602036600319011261024f5760043580151580613697575b61350f90613c09565b815260036020526040812060405161352681613946565b8154815260018201546001600160a01b03908116602083015260028301548116604080840191825260038501546060850152519261356b8461076e8160048901613a63565b60808101938452604051613586816104278160058a01613a63565b60a082015260405161359f816104278160068a01613a63565b60c0820152604051946135c0866135b98160078501613a63565b03876139a6565b60e08201958652604051966135e3886135dc8160088601613a63565b03896139a6565b61010083019788526009820154610120840152600a82015461014084015260ff600b830154169060098210156105255750916101e0600f61368995936106c5989795610160850152600c81015461018085015260ff600d8201541615156101a0850152600e8101546101c0850152015491015251169351945191519161367b60405196879687526080602088015260808701906138dd565b9085820360408701526138dd565b9083820360608501526138dd565b50600154811115613506565b503461024f57604036600319011261024f576136bd613902565b6001600160a01b031681526004602052604081208054602435929083101561024f5760206136eb8484613918565b90546040519160031b1c8152f35b503461024f57602036600319011261024f57610427613742600460406106c594823580151580613756575b61372d90613c09565b81526003602052200160405192838092613a63565b6040519182916020835260208301906138dd565b50600154811115613724565b503461024f57602036600319011261024f5760ff600b6040602093600435801515806137a9575b61379290613c09565b815260038552200154166105236040518092613897565b50600154811115613789565b503461024f578060031936011261024f576040517f00000000000000000000000000000000000000000000000000000000000000006001600160a01b03168152602090f35b503461024f57602036600319011261024f576003604060209260043580151580613838575b61382890613c09565b8152828452200154604051908152f35b5060015481111561381f565b503461024f57602036600319011261024f576020906004358015158061388b575b61386e90613c09565b81526003825260016040818060a01b039220015416604051908152f35b50600154811115613865565b9060098210156138a45752565b634e487b7160e01b600052602160045260246000fd5b60005b8381106138cd5750506000910152565b81810151838201526020016138bd565b906020916138f6815180928185528580860191016138ba565b601f01601f1916010190565b600435906001600160a01b0382168203611bec57565b80548210156139305760005260206000200190600090565b634e487b7160e01b600052603260045260246000fd5b61020081019081106001600160401b0382111761396257604052565b634e487b7160e01b600052604160045260246000fd5b6001600160401b03811161396257604052565b606081019081106001600160401b0382111761396257604052565b90601f801991011681019081106001600160401b0382111761396257604052565b6001600160401b03811161396257601f01601f191660200190565b81601f82011215611bec578035906139f9826139c7565b92613a0760405194856139a6565b82845260208383010111611bec57816000926020809301838601378301015290565b90600182811c92168015613a59575b6020831014613a4357565b634e487b7160e01b600052602260045260246000fd5b91607f1691613a38565b9060009291805491613a7483613a29565b918282526001938481169081600014613ad65750600114613a96575b50505050565b90919394506000526020928360002092846000945b838610613ac2575050505001019038808080613a90565b805485870183015294019385908201613aab565b9294505050602093945060ff191683830152151560051b01019038808080613a90565b6020908160408183019282815285518094520193019160005b828110613b20575050505090565b835185529381019392810192600101613b12565b6040906003190112611bec576004359060243590565b15613b5157565b60405162461bcd60e51b815260206004820152600a60248201526927b7363c9037bbb732b960b11b6044820152606490fd5b15613b8a57565b60405162461bcd60e51b8152602060048201526012602482015271141c9bdd1bd8dbdb081a5cc81c185d5cd95960721b6044820152606490fd5b91908201809211613bd157565b634e487b7160e01b600052601160045260246000fd5b6000198114613bd15760010190565b81810292918115918404141715613bd157565b15613c1057565b60405162461bcd60e51b815260206004820152600f60248201526e496e76616c696420696e766f69636560881b6044820152606490fd5b6001600160401b0381116139625760051b60200190565b9091606082840312611bec57815192602080840151936040810151906001600160401b038211611bec57019180601f84011215611bec578251613ca081613c47565b93613cae60405195866139a6565b818552838086019260051b820101928311611bec578301905b828210613cd5575050505090565b81516001600160a01b0381168103611bec578152908301908301613cc7565b91908203918211613bd157565b90613d0b82613c47565b613d1860405191826139a6565b8281528092613d29601f1991613c47565b0190602036910137565b80518210156139305760209160051b01019056fea264697066735822122091675ebfccf60488e80bac4ff354bb8bd49b22cc9f8380e89242fd618890e03e64736f6c63430008140033",
  "linkReferences": {},
  "deployedLinkReferences": {}
}