{
  "_format": "hh-sol-artifact-1",
  "contractName": "EarnXRiskCalculator",
  "sourceName": "contracts/EarnXRiskCalculator.sol",
  "abi": [
    {
      "inputs": [
        {
          "internalType": "address",
          "name": "_fallbackContract",
          "type": "address"
        },
        {
          "internalType": "address",
          "name": "_priceManager",
          "type": "address"
        }
      ],
      "stateMutability": "nonpayable",
      "type": "constructor"
    },
    {
      "inputs": [],
      "name": "BASE_APR",
      "outputs": [
        {
          "internalType": "uint256",
          "name": "",
          "type": "uint256"
        }
      ],
      "stateMutability": "view",
      "type": "function"
    },
    {
      "inputs": [],
      "name": "MAX_RISK_APR",
      "outputs": [
        {
          "internalType": "uint256",
          "name": "",
          "type": "uint256"
        }
      ],
      "stateMutability": "view",
      "type": "function"
    },
    {
      "inputs": [
        {
          "internalType": "string",
          "name": "commodity",
          "type": "string"
        },
        {
          "internalType": "string",
          "name": "supplierCountry",
          "type": "string"
        },
        {
          "internalType": "string",
          "name": "buyerCountry",
          "type": "string"
        },
        {
          "internalType": "uint256",
          "name": "amount",
          "type": "uint256"
        },
        {
          "internalType": "uint256",
          "name": "dueDate",
          "type": "uint256"
        },
        {
          "internalType": "uint256",
          "name": "vrfRandomness",
          "type": "uint256"
        }
      ],
      "name": "calculateAPR",
      "outputs": [
        {
          "internalType": "uint256",
          "name": "",
          "type": "uint256"
        }
      ],
      "stateMutability": "view",
      "type": "function"
    },
    {
      "inputs": [],
      "name": "fallbackContract",
      "outputs": [
        {
          "internalType": "contract IChainlinkFallbackContract",
          "name": "",
          "type": "address"
        }
      ],
      "stateMutability": "view",
      "type": "function"
    },
    {
      "inputs": [],
      "name": "owner",
      "outputs": [
        {
          "internalType": "address",
          "name": "",
          "type": "address"
        }
      ],
      "stateMutability": "view",
      "type": "function"
    },
    {
      "inputs": [],
      "name": "priceManager",
      "outputs": [
        {
          "internalType": "contract IPriceManager",
          "name": "",
          "type": "address"
        }
      ],
      "stateMutability": "view",
      "type": "function"
    },
    {
      "inputs": [
        {
          "internalType": "address",
          "name": "_fallbackContract",
          "type": "address"
        }
      ],
      "name": "updateFallbackContract",
      "outputs": [],
      "stateMutability": "nonpayable",
      "type": "function"
    },
    {
      "inputs": [
        {
          "internalType": "address",
          "name": "_priceManager",
          "type": "address"
        }
      ],
      "name": "updatePriceManager",
      "outputs": [],
      "stateMutability": "nonpayable",
      "type": "function"
    }
  ],
  "bytecode": "0x60803461009157601f610a3538819003918201601f19168301916001600160401b0383118484101761009657808492604094855283398101031261009157610052602061004b836100ac565b92016100ac565b60018060a01b03908160018060a01b03199316836000541617600055168160015416176001553390600254161760025560405161097490816100c18239f35b600080fd5b634e487b7160e01b600052604160045260246000fd5b51906001600160a01b03821682036100915756fe608060408181526004918236101561001657600080fd5b600092833560e01c9182630b2467cd146103975750816313ed4dac146101b15781634effe9c3146101695781634fef8ec4146101415781635270e29f146100ec575080638da5cb5b146100c4578063c7e1ffe31461009c5763e4fd18c91461007d57600080fd5b34610098578160031936011261009857602090516103208152f35b5080fd5b503461009857816003193601126100985760015490516001600160a01b039091168152602090f35b503461009857816003193601126100985760025490516001600160a01b039091168152602090f35b83903461009857602036600319011261009857356001600160a01b038181169182900361013d5761012290600254163314610905565b6bffffffffffffffffffffffff60a01b600154161760015580f35b8280fd5b505034610098578160031936011261009857905490516001600160a01b039091168152602090f35b83903461009857602036600319011261009857356001600160a01b038181169182900361013d5761019f90600254163314610905565b81546001600160a01b03191617815580f35b82843461032a5760c036600319011261032a5767ffffffffffffffff908335828111610098576101e49036908601610407565b9160243581811161013d576101fc9036908701610407565b9060443590811161013d5761021761021d9136908801610407565b936104cf565b9261032093840180941161038457825485516326b8f89360e21b80825260209890949193926001600160a01b03169189908590819061025e90828601610486565b0381855afa93841561037a579089939291879561033f575b5061028e949589519586948593849384528301610486565b03915afa9283156103345780936102fb575b50506102d36102c56102f4946102bc6102e9956102de95610463565b60011c90610463565b6102cd6106e3565b90610463565b6102cd60a43561077a565b6102cd60643561078f565b6102cd6084356107d8565b9051908152f35b909192508582813d831161032d575b61031481836103e5565b8101031261032a575051906102d36102c56102a0565b80fd5b503d61030a565b8551903d90823e3d90fd5b84819395929496503d8311610373575b61035981836103e5565b8101031261036f5751928892909161028e610276565b8580fd5b503d61034f565b88513d88823e3d90fd5b634e487b7160e01b835260118652602483fd5b849034610098578160031936011261009857806103e860209252f35b6040810190811067ffffffffffffffff8211176103cf57604052565b634e487b7160e01b600052604160045260246000fd5b90601f8019910116810190811067ffffffffffffffff8211176103cf57604052565b81601f8201121561045e5780359067ffffffffffffffff82116103cf576040519261043c601f8401601f1916602001856103e5565b8284526020838301011161045e57816000926020809301838601378301015290565b600080fd5b9190820180921161047057565b634e487b7160e01b600052601160045260246000fd5b6020808252825181830181905290939260005b8281106104bb57505060409293506000838284010152601f8019910116010190565b818101860151848201604001528501610499565b600054604080516311013e3d60e01b81529092602092909190839082906001600160a01b031681806105048760048301610486565b03915afa80156106d8579083916106af575b505061053b8351610526816103b3565b60038152621bda5b60ea1b848201528261085b565b8015610686575b1561054f5750505060fa90565b610573835161055d816103b3565b600481526319dbdb1960e21b848201528261085b565b801561065a575b1561058757505050609690565b6105ac8351610595816103b3565b60058152641dda19585d60da1b848201528261085b565b8015610630575b156105c05750505060c890565b6105e683516105ce816103b3565b6006815265636f6666656560d01b848201528261085b565b928315610602575b5050506000146105fd5760b490565b606490565b610628935064636f636f6160d81b90519261061c846103b3565b6005845283015261085b565b3880806105ee565b50610655835161063f816103b3565b600481526331b7b93760e11b848201528261085b565b6105b3565b506106818351610669816103b3565b600681526539b4b63b32b960d11b848201528261085b565b61057a565b506106aa8351610695816103b3565b600381526267617360e81b848201528261085b565b610542565b813d83116106d1575b6106c281836103e5565b8101031261045e578138610516565b503d6106b8565b84513d6000823e3d90fd5b6001546040516308ae284d60e41b815290602090829060049082906001600160a01b03165afa90811561076e5760009161073d575b506014811161073757600a810290808204600a14901517156104705790565b5060c890565b906020823d8211610766575b81610756602093836103e5565b8101031261032a57505138610718565b3d9150610749565b6040513d6000823e3d90fd5b8015610788576103e8900690565b506101f490565b64174876e8008110156107c557640ba43b74008110156107bf576402540be40011156107ba57606490565b604b90565b50603290565b50601990565b9190820391821161047057565b62015180906000904281111561081f576107f4915042906107cb565b04601e8111156107bf57603c81111561081957605a10156108145760c890565b609690565b50606490565b506107f4565b60001981146104705760010190565b908151811015610845570160200190565b634e487b7160e01b600052603260045260246000fd5b9080518251106108fe576000905b61087683518251906107cb565b82116108f65760019260005b82518110156108ec576001600160f81b0319806108a86108a28488610463565b85610834565b5116906108b58386610834565b5116036108ca576108c590610825565b610882565b5092509060005b6108e4576108de90610825565b90610869565b505050600190565b50929190916108d1565b505050600090565b5050600090565b1561090c57565b60405162461bcd60e51b815260206004820152600a60248201526927b7363c9037bbb732b960b11b6044820152606490fdfea2646970667358221220ba8bdf5c98fb5218db47e8c4d08c6439ad462f073c00606b817df3be57c9295764736f6c63430008140033",
  "linkReferences": {},
  "deployedLinkReferences": {}
}