{
  "_format": "hh-sol-artifact-1",
  "contractName": "EarnXCore",
  "sourceName": "contracts/EarnXProtocol.sol",
  "abi": [
    {
      "inputs": [
        {
          "internalType": "address",
          "name": "_invoiceNFT",
          "type": "address"
        },
        {
          "internalType": "address",
          "name": "_usdcToken",
          "type": "address"
        },
        {
          "internalType": "address",
          "name": "_priceManager",
          "type": "address"
        },
        {
          "internalType": "address",
          "name": "_verificationModule",
          "type": "address"
        },
        {
          "internalType": "address",
          "name": "_investmentModule",
          "type": "address"
        },
        {
          "internalType": "address",
          "name": "_vrfModule",
          "type": "address"
        }
      ],
      "stateMutability": "nonpayable",
      "type": "constructor"
    },
    {
      "anonymous": false,
      "inputs": [
        {
          "indexed": true,
          "internalType": "uint256",
          "name": "invoiceId",
          "type": "uint256"
        },
        {
          "indexed": true,
          "internalType": "address",
          "name": "investor",
          "type": "address"
        },
        {
          "indexed": false,
          "internalType": "uint256",
          "name": "amount",
          "type": "uint256"
        },
        {
          "indexed": false,
          "internalType": "uint256",
          "name": "newTotal",
          "type": "uint256"
        }
      ],
      "name": "InvestmentMade",
      "type": "event"
    },
    {
      "anonymous": false,
      "inputs": [
        {
          "indexed": true,
          "internalType": "uint256",
          "name": "invoiceId",
          "type": "uint256"
        },
        {
          "indexed": false,
          "internalType": "uint256",
          "name": "aprBasisPoints",
          "type": "uint256"
        }
      ],
      "name": "InvoiceApproved",
      "type": "event"
    },
    {
      "anonymous": false,
      "inputs": [
        {
          "indexed": true,
          "internalType": "uint256",
          "name": "invoiceId",
          "type": "uint256"
        },
        {
          "indexed": false,
          "internalType": "uint256",
          "name": "totalAmount",
          "type": "uint256"
        },
        {
          "indexed": false,
          "internalType": "uint256",
          "name": "numInvestors",
          "type": "uint256"
        }
      ],
      "name": "InvoiceFullyFunded",
      "type": "event"
    },
    {
      "anonymous": false,
      "inputs": [
        {
          "indexed": true,
          "internalType": "uint256",
          "name": "invoiceId",
          "type": "uint256"
        },
        {
          "indexed": false,
          "internalType": "uint256",
          "name": "fundingAmount",
          "type": "uint256"
        }
      ],
      "name": "InvoiceFunded",
      "type": "event"
    },
    {
      "anonymous": false,
      "inputs": [
        {
          "indexed": true,
          "internalType": "uint256",
          "name": "invoiceId",
          "type": "uint256"
        },
        {
          "indexed": false,
          "internalType": "string",
          "name": "reason",
          "type": "string"
        }
      ],
      "name": "InvoiceRejected",
      "type": "event"
    },
    {
      "anonymous": false,
      "inputs": [
        {
          "indexed": true,
          "internalType": "uint256",
          "name": "invoiceId",
          "type": "uint256"
        },
        {
          "indexed": false,
          "internalType": "uint256",
          "name": "repaymentAmount",
          "type": "uint256"
        },
        {
          "indexed": false,
          "internalType": "uint256",
          "name": "profitDistributed",
          "type": "uint256"
        }
      ],
      "name": "InvoiceRepaid",
      "type": "event"
    },
    {
      "anonymous": false,
      "inputs": [
        {
          "indexed": true,
          "internalType": "uint256",
          "name": "invoiceId",
          "type": "uint256"
        },
        {
          "indexed": true,
          "internalType": "address",
          "name": "supplier",
          "type": "address"
        },
        {
          "indexed": false,
          "internalType": "uint256",
          "name": "amount",
          "type": "uint256"
        },
        {
          "indexed": false,
          "internalType": "uint256",
          "name": "targetFunding",
          "type": "uint256"
        }
      ],
      "name": "InvoiceSubmitted",
      "type": "event"
    },
    {
      "anonymous": false,
      "inputs": [
        {
          "indexed": true,
          "internalType": "uint256",
          "name": "invoiceId",
          "type": "uint256"
        },
        {
          "indexed": false,
          "internalType": "uint256",
          "name": "aprBasisPoints",
          "type": "uint256"
        },
        {
          "indexed": false,
          "internalType": "uint256",
          "name": "riskScore",
          "type": "uint256"
        }
      ],
      "name": "InvoiceVerified",
      "type": "event"
    },
    {
      "inputs": [
        {
          "internalType": "uint256",
          "name": "invoiceId",
          "type": "uint256"
        },
        {
          "internalType": "string",
          "name": "reason",
          "type": "string"
        }
      ],
      "name": "emergencyRejectInvoice",
      "outputs": [],
      "stateMutability": "nonpayable",
      "type": "function"
    },
    {
      "inputs": [],
      "name": "getAllInvoices",
      "outputs": [
        {
          "internalType": "uint256[]",
          "name": "",
          "type": "uint256[]"
        }
      ],
      "stateMutability": "view",
      "type": "function"
    },
    {
      "inputs": [],
      "name": "getContractInfo",
      "outputs": [
        {
          "internalType": "string",
          "name": "name",
          "type": "string"
        },
        {
          "internalType": "string",
          "name": "version_",
          "type": "string"
        },
        {
          "internalType": "address",
          "name": "owner_",
          "type": "address"
        },
        {
          "internalType": "bool",
          "name": "paused_",
          "type": "bool"
        },
        {
          "internalType": "uint256",
          "name": "totalInvoices",
          "type": "uint256"
        }
      ],
      "stateMutability": "view",
      "type": "function"
    },
    {
      "inputs": [
        {
          "internalType": "uint256",
          "name": "invoiceId",
          "type": "uint256"
        }
      ],
      "name": "getInvestmentBasics",
      "outputs": [
        {
          "internalType": "uint256",
          "name": "targetFunding",
          "type": "uint256"
        },
        {
          "internalType": "uint256",
          "name": "currentFunding",
          "type": "uint256"
        },
        {
          "internalType": "uint256",
          "name": "remainingFunding",
          "type": "uint256"
        },
        {
          "internalType": "uint256",
          "name": "numInvestors",
          "type": "uint256"
        }
      ],
      "stateMutability": "view",
      "type": "function"
    },
    {
      "inputs": [],
      "name": "getInvestmentModule",
      "outputs": [
        {
          "internalType": "address",
          "name": "",
          "type": "address"
        }
      ],
      "stateMutability": "view",
      "type": "function"
    },
    {
      "inputs": [],
      "name": "getInvestmentOpportunities",
      "outputs": [
        {
          "internalType": "uint256[]",
          "name": "",
          "type": "uint256[]"
        }
      ],
      "stateMutability": "view",
      "type": "function"
    },
    {
      "inputs": [
        {
          "internalType": "address",
          "name": "investor",
          "type": "address"
        },
        {
          "internalType": "uint256",
          "name": "invoiceId",
          "type": "uint256"
        }
      ],
      "name": "getInvestorData",
      "outputs": [
        {
          "internalType": "uint256",
          "name": "",
          "type": "uint256"
        }
      ],
      "stateMutability": "view",
      "type": "function"
    },
    {
      "inputs": [
        {
          "internalType": "address",
          "name": "investor",
          "type": "address"
        }
      ],
      "name": "getInvestorInvoices",
      "outputs": [
        {
          "internalType": "uint256[]",
          "name": "",
          "type": "uint256[]"
        }
      ],
      "stateMutability": "view",
      "type": "function"
    },
    {
      "inputs": [
        {
          "internalType": "uint256",
          "name": "invoiceId",
          "type": "uint256"
        }
      ],
      "name": "getInvoiceAmount",
      "outputs": [
        {
          "internalType": "uint256",
          "name": "",
          "type": "uint256"
        }
      ],
      "stateMutability": "view",
      "type": "function"
    },
    {
      "inputs": [
        {
          "internalType": "uint256",
          "name": "invoiceId",
          "type": "uint256"
        }
      ],
      "name": "getInvoiceBasics",
      "outputs": [
        {
          "internalType": "uint256",
          "name": "id",
          "type": "uint256"
        },
        {
          "internalType": "address",
          "name": "supplier",
          "type": "address"
        },
        {
          "internalType": "uint256",
          "name": "amount",
          "type": "uint256"
        },
        {
          "internalType": "enum EarnXCore.InvoiceStatus",
          "name": "status",
          "type": "uint8"
        }
      ],
      "stateMutability": "view",
      "type": "function"
    },
    {
      "inputs": [
        {
          "internalType": "uint256",
          "name": "invoiceId",
          "type": "uint256"
        }
      ],
      "name": "getInvoiceBuyer",
      "outputs": [
        {
          "internalType": "address",
          "name": "",
          "type": "address"
        }
      ],
      "stateMutability": "view",
      "type": "function"
    },
    {
      "inputs": [
        {
          "internalType": "uint256",
          "name": "invoiceId",
          "type": "uint256"
        }
      ],
      "name": "getInvoiceCommodity",
      "outputs": [
        {
          "internalType": "string",
          "name": "",
          "type": "string"
        }
      ],
      "stateMutability": "view",
      "type": "function"
    },
    {
      "inputs": [
        {
          "internalType": "uint256",
          "name": "invoiceId",
          "type": "uint256"
        }
      ],
      "name": "getInvoiceFinancials",
      "outputs": [
        {
          "internalType": "uint256",
          "name": "targetFunding",
          "type": "uint256"
        },
        {
          "internalType": "uint256",
          "name": "currentFunding",
          "type": "uint256"
        },
        {
          "internalType": "uint256",
          "name": "aprBasisPoints",
          "type": "uint256"
        },
        {
          "internalType": "uint256",
          "name": "dueDate",
          "type": "uint256"
        }
      ],
      "stateMutability": "view",
      "type": "function"
    },
    {
      "inputs": [
        {
          "internalType": "uint256",
          "name": "invoiceId",
          "type": "uint256"
        }
      ],
      "name": "getInvoiceLocations",
      "outputs": [
        {
          "internalType": "string",
          "name": "supplierCountry",
          "type": "string"
        },
        {
          "internalType": "string",
          "name": "buyerCountry",
          "type": "string"
        }
      ],
      "stateMutability": "view",
      "type": "function"
    },
    {
      "inputs": [
        {
          "internalType": "uint256",
          "name": "invoiceId",
          "type": "uint256"
        }
      ],
      "name": "getInvoiceMetadata",
      "outputs": [
        {
          "internalType": "uint256",
          "name": "createdAt",
          "type": "uint256"
        },
        {
          "internalType": "bool",
          "name": "documentVerified",
          "type": "bool"
        },
        {
          "internalType": "uint256",
          "name": "remainingFunding",
          "type": "uint256"
        }
      ],
      "stateMutability": "view",
      "type": "function"
    },
    {
      "inputs": [
        {
          "internalType": "uint256",
          "name": "invoiceId",
          "type": "uint256"
        }
      ],
      "name": "getInvoiceParties",
      "outputs": [
        {
          "internalType": "address",
          "name": "buyer",
          "type": "address"
        },
        {
          "internalType": "string",
          "name": "exporterName",
          "type": "string"
        },
        {
          "internalType": "string",
          "name": "buyerName",
          "type": "string"
        },
        {
          "internalType": "string",
          "name": "commodity",
          "type": "string"
        }
      ],
      "stateMutability": "view",
      "type": "function"
    },
    {
      "inputs": [
        {
          "internalType": "uint256",
          "name": "invoiceId",
          "type": "uint256"
        }
      ],
      "name": "getInvoiceStatus",
      "outputs": [
        {
          "internalType": "enum EarnXCore.InvoiceStatus",
          "name": "",
          "type": "uint8"
        }
      ],
      "stateMutability": "view",
      "type": "function"
    },
    {
      "inputs": [
        {
          "internalType": "uint256",
          "name": "invoiceId",
          "type": "uint256"
        }
      ],
      "name": "getInvoiceSupplier",
      "outputs": [
        {
          "internalType": "address",
          "name": "",
          "type": "address"
        }
      ],
      "stateMutability": "view",
      "type": "function"
    },
    {
      "inputs": [
        {
          "internalType": "enum EarnXCore.InvoiceStatus",
          "name": "status",
          "type": "uint8"
        }
      ],
      "name": "getInvoicesByStatus",
      "outputs": [
        {
          "internalType": "uint256[]",
          "name": "",
          "type": "uint256[]"
        }
      ],
      "stateMutability": "view",
      "type": "function"
    },
    {
      "inputs": [],
      "name": "getProtocolStats",
      "outputs": [
        {
          "internalType": "uint256",
          "name": "totalInvoices",
          "type": "uint256"
        },
        {
          "internalType": "uint256",
          "name": "totalFundsRaised",
          "type": "uint256"
        },
        {
          "internalType": "uint256",
          "name": "pendingInvoices",
          "type": "uint256"
        },
        {
          "internalType": "uint256",
          "name": "verifiedInvoices",
          "type": "uint256"
        },
        {
          "internalType": "uint256",
          "name": "fundedInvoices",
          "type": "uint256"
        }
      ],
      "stateMutability": "view",
      "type": "function"
    },
    {
      "inputs": [
        {
          "internalType": "address",
          "name": "supplier",
          "type": "address"
        }
      ],
      "name": "getSupplierInvoices",
      "outputs": [
        {
          "internalType": "uint256[]",
          "name": "",
          "type": "uint256[]"
        }
      ],
      "stateMutability": "view",
      "type": "function"
    },
    {
      "inputs": [],
      "name": "getVRFModule",
      "outputs": [
        {
          "internalType": "address",
          "name": "",
          "type": "address"
        }
      ],
      "stateMutability": "view",
      "type": "function"
    },
    {
      "inputs": [],
      "name": "getVerificationModule",
      "outputs": [
        {
          "internalType": "address",
          "name": "",
          "type": "address"
        }
      ],
      "stateMutability": "view",
      "type": "function"
    },
    {
      "inputs": [],
      "name": "initializeProtocol",
      "outputs": [],
      "stateMutability": "nonpayable",
      "type": "function"
    },
    {
      "inputs": [
        {
          "internalType": "uint256",
          "name": "invoiceId",
          "type": "uint256"
        },
        {
          "internalType": "uint256",
          "name": "amount",
          "type": "uint256"
        }
      ],
      "name": "investInInvoice",
      "outputs": [],
      "stateMutability": "nonpayable",
      "type": "function"
    },
    {
      "inputs": [],
      "name": "investmentModule",
      "outputs": [
        {
          "internalType": "contract EarnXInvestmentModule",
          "name": "",
          "type": "address"
        }
      ],
      "stateMutability": "view",
      "type": "function"
    },
    {
      "inputs": [],
      "name": "invoiceCounter",
      "outputs": [
        {
          "internalType": "uint256",
          "name": "",
          "type": "uint256"
        }
      ],
      "stateMutability": "view",
      "type": "function"
    },
    {
      "inputs": [],
      "name": "invoiceNFT",
      "outputs": [
        {
          "internalType": "contract EarnXInvoiceNFT",
          "name": "",
          "type": "address"
        }
      ],
      "stateMutability": "view",
      "type": "function"
    },
    {
      "inputs": [
        {
          "internalType": "uint256",
          "name": "",
          "type": "uint256"
        }
      ],
      "name": "invoices",
      "outputs": [
        {
          "internalType": "uint256",
          "name": "id",
          "type": "uint256"
        },
        {
          "internalType": "address",
          "name": "supplier",
          "type": "address"
        },
        {
          "internalType": "address",
          "name": "buyer",
          "type": "address"
        },
        {
          "internalType": "uint256",
          "name": "amount",
          "type": "uint256"
        },
        {
          "internalType": "string",
          "name": "commodity",
          "type": "string"
        },
        {
          "internalType": "string",
          "name": "supplierCountry",
          "type": "string"
        },
        {
          "internalType": "string",
          "name": "buyerCountry",
          "type": "string"
        },
        {
          "internalType": "string",
          "name": "exporterName",
          "type": "string"
        },
        {
          "internalType": "string",
          "name": "buyerName",
          "type": "string"
        },
        {
          "internalType": "uint256",
          "name": "dueDate",
          "type": "uint256"
        },
        {
          "internalType": "uint256",
          "name": "aprBasisPoints",
          "type": "uint256"
        },
        {
          "internalType": "enum EarnXCore.InvoiceStatus",
          "name": "status",
          "type": "uint8"
        },
        {
          "internalType": "uint256",
          "name": "createdAt",
          "type": "uint256"
        },
        {
          "internalType": "bool",
          "name": "documentVerified",
          "type": "bool"
        },
        {
          "internalType": "uint256",
          "name": "targetFunding",
          "type": "uint256"
        },
        {
          "internalType": "uint256",
          "name": "currentFunding",
          "type": "uint256"
        }
      ],
      "stateMutability": "view",
      "type": "function"
    },
    {
      "inputs": [
        {
          "internalType": "uint256",
          "name": "invoiceId",
          "type": "uint256"
        }
      ],
      "name": "isInvoiceVerified",
      "outputs": [
        {
          "internalType": "bool",
          "name": "",
          "type": "bool"
        }
      ],
      "stateMutability": "view",
      "type": "function"
    },
    {
      "inputs": [
        {
          "internalType": "uint256",
          "name": "invoiceId",
          "type": "uint256"
        },
        {
          "internalType": "bool",
          "name": "isValid",
          "type": "bool"
        },
        {
          "internalType": "uint256",
          "name": "riskScore",
          "type": "uint256"
        },
        {
          "internalType": "string",
          "name": "creditRating",
          "type": "string"
        }
      ],
      "name": "onDocumentVerificationComplete",
      "outputs": [],
      "stateMutability": "nonpayable",
      "type": "function"
    },
    {
      "inputs": [
        {
          "internalType": "uint256",
          "name": "invoiceId",
          "type": "uint256"
        },
        {
          "internalType": "uint256",
          "name": "randomness",
          "type": "uint256"
        }
      ],
      "name": "onVRFComplete",
      "outputs": [],
      "stateMutability": "nonpayable",
      "type": "function"
    },
    {
      "inputs": [],
      "name": "owner",
      "outputs": [
        {
          "internalType": "address",
          "name": "",
          "type": "address"
        }
      ],
      "stateMutability": "view",
      "type": "function"
    },
    {
      "inputs": [],
      "name": "pause",
      "outputs": [],
      "stateMutability": "nonpayable",
      "type": "function"
    },
    {
      "inputs": [],
      "name": "paused",
      "outputs": [
        {
          "internalType": "bool",
          "name": "",
          "type": "bool"
        }
      ],
      "stateMutability": "view",
      "type": "function"
    },
    {
      "inputs": [],
      "name": "priceManager",
      "outputs": [
        {
          "internalType": "contract EarnXPriceManager",
          "name": "",
          "type": "address"
        }
      ],
      "stateMutability": "view",
      "type": "function"
    },
    {
      "inputs": [
        {
          "internalType": "uint256",
          "name": "invoiceId",
          "type": "uint256"
        }
      ],
      "name": "repayInvoice",
      "outputs": [],
      "stateMutability": "nonpayable",
      "type": "function"
    },
    {
      "inputs": [
        {
          "internalType": "address",
          "name": "buyer",
          "type": "address"
        },
        {
          "internalType": "uint256",
          "name": "amount",
          "type": "uint256"
        },
        {
          "internalType": "string",
          "name": "commodity",
          "type": "string"
        },
        {
          "internalType": "string",
          "name": "supplierCountry",
          "type": "string"
        },
        {
          "internalType": "string",
          "name": "buyerCountry",
          "type": "string"
        },
        {
          "internalType": "string",
          "name": "exporterName",
          "type": "string"
        },
        {
          "internalType": "string",
          "name": "buyerName",
          "type": "string"
        },
        {
          "internalType": "uint256",
          "name": "dueDate",
          "type": "uint256"
        },
        {
          "internalType": "string",
          "name": "documentHash",
          "type": "string"
        }
      ],
      "name": "submitInvoice",
      "outputs": [
        {
          "internalType": "uint256",
          "name": "",
          "type": "uint256"
        }
      ],
      "stateMutability": "nonpayable",
      "type": "function"
    },
    {
      "inputs": [
        {
          "internalType": "address",
          "name": "",
          "type": "address"
        },
        {
          "internalType": "uint256",
          "name": "",
          "type": "uint256"
        }
      ],
      "name": "supplierInvoices",
      "outputs": [
        {
          "internalType": "uint256",
          "name": "",
          "type": "uint256"
        }
      ],
      "stateMutability": "view",
      "type": "function"
    },
    {
      "inputs": [
        {
          "internalType": "address",
          "name": "newOwner",
          "type": "address"
        }
      ],
      "name": "transferOwnership",
      "outputs": [],
      "stateMutability": "nonpayable",
      "type": "function"
    },
    {
      "inputs": [],
      "name": "unpause",
      "outputs": [],
      "stateMutability": "nonpayable",
      "type": "function"
    },
    {
      "inputs": [],
      "name": "usdcToken",
      "outputs": [
        {
          "internalType": "contract MockUSDC",
          "name": "",
          "type": "address"
        }
      ],
      "stateMutability": "view",
      "type": "function"
    },
    {
      "inputs": [],
      "name": "verificationModule",
      "outputs": [
        {
          "internalType": "contract EarnXVerificationModule",
          "name": "",
          "type": "address"
        }
      ],
      "stateMutability": "view",
      "type": "function"
    },
    {
      "inputs": [],
      "name": "version",
      "outputs": [
        {
          "internalType": "string",
          "name": "",
          "type": "string"
        }
      ],
      "stateMutability": "pure",
      "type": "function"
    },
    {
      "inputs": [],
      "name": "vrfModule",
      "outputs": [
        {
          "internalType": "contract EarnXVRFModule",
          "name": "",
          "type": "address"
        }
      ],
      "stateMutability": "view",
      "type": "function"
    }
  ],
  "bytecode": "0x61014034620001a957601f6200407a38819003918201601f19168301916001600160401b03831184841017620001ae5780849260c094604052833981010312620001a9576200004e81620001c4565b6200005c60208301620001c4565b6200006a60408401620001c4565b906200007960608501620001c4565b6200009560a06200008d60808801620001c4565b9601620001c4565b6001600160a01b0394851660805291841660a05291831660c05290821660e0529181166101009081529116610120908152600080546001600160a01b03191633179055604051613ea09290919083620001da8439608051838181611c52015281816125d60152613413015260a0518381816118a50152818161193c01526138d6015260c0518361087b015260e051838181610ec70152818161112601528181612cbc015261331901525182818161022001528181610a1501528181610b1901528181611901015281816119ca01528181611a6a01528181611b3d0152818161223d015281816126fa015281816133700152818161353301526135c40152518181816102680152818161033901526133c10152f35b600080fd5b634e487b7160e01b600052604160045260246000fd5b51906001600160a01b0382168203620001a95756fe60a0604052600436101561001257600080fd5b6000803560e01c806237dd951461394f57806305955297146139055780630bf61c291461111057806311eac855146138c0578063178c5b521461386d57806321cbf5e014613804578063285c8eac146137ae57806329c1d099146135f357806336e845fd146135ae57806338a7b167146134d35780633c440681146132ec5780633f4ba83a146132ba57806340a3db9b1461280f578063445e9faa146126055780634bb6f06d146125c05780634e6d1405146123ed57806354fd4d501461237e578063559034df14612158578063570bdad6146120ed5780635c975abb146120ca5780635d597ab3146120765780636c9c118a146117fb57806373114f3c14611726578063771aceef146115005780637cc1f867146113b85780637e37afbb146111b15780638456cb591461117c5780638da5cb5b1461115557806397d4136014611110578063a21d89a214610e7d578063a57b381c14610e5f578063ad10441c14610e0f578063b19782ef14610d8c578063b55eea1114610252578063bc9a310e14610c00578063bee0649e14610ad5578063c20ceb9b146108aa578063c7e1ffe314610865578063c9108b97146106d5578063ccc2405714610545578063e228c7cc146103a1578063efbd43d414610326578063f2fde38b14610297578063f4f5f583146102525763fd3a2c1b1461020b57600080fd5b3461024f578060031936011261024f576040517f00000000000000000000000000000000000000000000000000000000000000006001600160a01b03168152602090f35b80fd5b503461024f578060031936011261024f576040517f00000000000000000000000000000000000000000000000000000000000000006001600160a01b03168152602090f35b503461024f57602036600319011261024f576102b1613a0d565b8154906001600160a01b03906102ca3383851614613c55565b169081156102e2576001600160a01b03191617815580f35b606460405162461bcd60e51b815260206004820152602060248201527f4e6577206f776e65722063616e6e6f74206265207a65726f20616464726573736044820152fd5b503461024f5761033536613c3f565b50507f00000000000000000000000000000000000000000000000000000000000000006001600160a01b0316330361036a5780f35b60405162461bcd60e51b815260206004820152600f60248201526e4f6e6c7920565246206d6f64756c6560881b6044820152606490fd5b503461024f57602036600319011261024f5760043580151580610539575b6103c890613d14565b8152600360205260408120604051906103e082613a51565b8054825260018060a01b038060018301541692602081019384528160028401541660408201526003830154926060820193845260405161042e816104278160048601613b6e565b0382613ab1565b6080830152604051610447816104278160058601613b6e565b60a0830152604051610460816104278160068601613b6e565b60c0830152604051610479816104278160078601613b6e565b60e0830152604051610492816104278160088601613b6e565b6101008301526009810154610120830152600a81015461014083015260ff600b8201541695600987101561052557509181600f879460809861016061052398960152600c81015461018084015260ff600d8201541615156101a0840152600e8101546101c084015201546101e0820152519451169051906040519485526020850152604084015260608301906139a2565bf35b634e487b7160e01b81526021600452602490fd5b506001548111156103bf565b503461024f57602036600319011261024f57600435801515806106c9575b61056c90613d14565b81526003602052604081206040519161058483613a51565b8154835260018060a01b038060018401541660208501526002830154166040840152600382015460608401526040516105c4816104278160048701613b6e565b60808401526040516105dd816104278160058701613b6e565b60a08401526040516105f6816104278160068701613b6e565b60c084015260405161060f816104278160078701613b6e565b60e0840152604051610628816104278160088701613b6e565b6101008401526009820154926101208101938452600a83015491610140820192835260ff600b85015416906009821015610525575091816106c5936101606101e097940152600c85015461018082015260ff600d8601541615156101a0820152600f600e86015495866101c08401520154958691015251905190604051948594859094939260609260808301968352602083015260408201520152565b0390f35b50600154811115610563565b503461024f57602036600319011261024f5760043580151580610859575b6106fc90613d14565b81526003602052604081209060405161071481613a51565b8254815260018060a01b03806001850154166020830152600284015416604082015260038301546060820152604051610754816104278160048801613b6e565b6080820152604051926107758461076e8160058501613b6e565b0385613ab1565b60a08201938452604051926107918461076e8160068601613b6e565b60c083019384526040516107ac816104278160078701613b6e565b60e08401526040516107c5816104278160088701613b6e565b6101008401526009820154610120840152600a82015461014084015260ff600b830154169060098210156105255750916101e0600f61084b96936106c595610160850152600c81015461018085015260ff600d8201541615156101a0850152600e8101546101c085015201549101525191516040519384936040855260408501906139e8565b9083820360208501526139e8565b506001548111156106f3565b503461024f578060031936011261024f576040517f00000000000000000000000000000000000000000000000000000000000000006001600160a01b03168152602090f35b503461024f57602036600319011261024f5760043580151580610ac9575b6108d190613d14565b808252600360205260408220604051916108ea83613a51565b8154835260018060a01b03908160018401541660208501528160028401541660408501526003830154606085015260405161092c816104278160048801613b6e565b6080850152604051610945816104278160058801613b6e565b60a085015260405161095e816104278160068801613b6e565b60c0850152604051610977816104278160078801613b6e565b60e0850152604051610990816104278160088801613b6e565b6101008501526009830154610120850152600a83015461014085015260ff600b840154166009811015610ab557908591610160860152600c84015461018086015260ff600d8501541615156101a08601526101e0600f600e860154956101c08801968752015495019485526024604051809481936338d18b5f60e11b835260048301527f0000000000000000000000000000000000000000000000000000000000000000165afa938415610aa9578094610a7c575b50506106c59051915192610a598484613e17565b604051948594859094939260609260808301968352602083015260408201520152565b6106c592945090610a9e913d8091833e610a968183613ab1565b810190613d81565b509050929038610a45565b604051903d90823e3d90fd5b634e487b7160e01b86526021600452602486fd5b506001548111156108c8565b503461024f576020908160031936011261024f5780602491610af5613a0d565b604051635f70324f60e11b81526001600160a01b03918216600482015293849182907f0000000000000000000000000000000000000000000000000000000000000000165afa918215610bf3578192610b57575b604051806106c58582613c04565b9091503d8083833e610b698183613ab1565b8101908381830312610beb578051906001600160401b038211610bef570181601f82011215610beb57805190610b9e82613d6a565b93610bac6040519586613ab1565b828552858086019360051b83010193841161024f57508401905b828210610bdc575050506106c591503880610b49565b81518152908401908401610bc6565b8280fd5b8380fd5b50604051903d90823e3d90fd5b503461024f57602036600319011261024f5760043580151580610d80575b610c2790613d14565b8152600360205260408120604051610c3e81613a51565b8154815260018060a01b03806001840154166020830152600283015416604082015260038201546060820152604051610c7e816104278160048701613b6e565b6080820152604051610c97816104278160058701613b6e565b60a0820152604051610cb0816104278160068701613b6e565b60c0820152604051610cc9816104278160078701613b6e565b60e0820152604051610ce2816104278160088701613b6e565b6101008201526009820154610120820152600a82015461014082015260ff600b830154166009811015610d6c5760609350610160820152610d596101e0600c840154938461018085015260ff600d82015416151593846101a0820152600f600e83015492836101c084015201549283910152613e17565b9060405192835260208301526040820152f35b634e487b7160e01b84526021600452602484fd5b50600154811115610c1e565b503461024f57602080600319360112610e0b576001600160a01b03610daf613a0d565b1682526004815260408220916040518092808554928381520194835280832092905b828210610df4576106c585610de881890382613ab1565b60405191829182613c04565b835486529485019460019384019390910190610dd1565b5080fd5b503461024f57602036600319011261024f5760ff600d604060209360043580151580610e53575b610e3f90613d14565b815260038552200154166040519015158152f35b50600154811115610e36565b503461024f578060031936011261024f576020600154604051908152f35b503461024f57608036600319011261024f57600435602480358015159081810361110c57604435916064356001600160401b03811161110857610ec4903690600401613aed565b507f00000000000000000000000000000000000000000000000000000000000000006001600160a01b031633036110c457841515806110b8575b1561107f57848652600360205260408620600b81019283549060ff8216600981101561106c5760010361102857600d830160ff199460ff868354169116179055600014610fc057506102bc94858502958587041485151715610fae57606461032096048601809611610fae57509160026040949286600a7fb08f24163c56b1d0b9f8303da54a8aaae5db5ec8eb5847c167142ef36a827b589896015582541617905582519182526020820152a280f35b634e487b7160e01b8852601160045287fd5b919294505060089250161790557f30f1a1ed9ed0adbcb85235780494613b9e2542cc72f0c5ede21be804cd6470d4606060405160208152601c60208201527f4661696c656420646f63756d656e7420766572696669636174696f6e000000006040820152a280f35b60405162461bcd60e51b815260206004820152601f818901527f496e766f696365206e6f7420696e20766572696679696e6720737461747573006044820152606490fd5b634e487b7160e01b8a526021600452878afd5b60405162461bcd60e51b81526020600482015260128186015271125b9d985b1a59081a5b9d9bda58d948125160721b6044820152606490fd5b50600154851115610efe565b60405162461bcd60e51b8152602060048201526018818601527f4f6e6c7920766572696669636174696f6e206d6f64756c6500000000000000006044820152606490fd5b8680fd5b8480fd5b503461024f578060031936011261024f576040517f00000000000000000000000000000000000000000000000000000000000000006001600160a01b03168152602090f35b503461024f578060031936011261024f57546040516001600160a01b039091168152602090f35b503461024f578060031936011261024f576111a160018060a01b038254163314613c55565b600160ff19600254161760025580f35b503461024f578060031936011261024f57600180546111cf81613e24565b908392805b82811115611223575050506111e882613e24565b925b8281106111ff57604051806106c58682613c04565b8061120d61121e9284613e56565b516112188287613e56565b52613cf2565b6111ea565b8086526003602081815260408820906040519261123f84613a51565b8254845260018060a01b03918287850154169085015260029182840154166040850152820154606084015260405161127e816104278160048701613b6e565b6080840152604051611297816104278160058701613b6e565b60a08401526040516112b0816104278160068701613b6e565b60c08401526040516112c9816104278160078701613b6e565b60e08401526040516112e2816104278160088701613b6e565b610100840152600980830154610120850152600a83015493610140810194855260ff80600b86015416928310156113a4579082916101e09493610160830152600c860154610180830152600d8601541615156101a0820152600f600e86015495866101c084015201549384910152149283611399575b508261138f575b5050611374575b61136f90613cf2565b6111d4565b93611387818661121861136f9488613e56565b949050611366565b109050388061135f565b511515925038611358565b634e487b7160e01b8c52602160045260248cfd5b503461024f578060031936011261024f5760405163054fd4d560e41b8152908082600481305afa908115610aa9578091611482575b61145e925060018060a01b0390541660ff600254166001549061146c6040519461141686613a96565b602186527f4561726e582050726f746f636f6c202d20466978656420496e766573746d656e6020870152601d60fa1b604087015260405196879660a0885260a08801906139e8565b9086820360208801526139e8565b9260408501521515606084015260808301520390f35b90503d8082843e6114938184613ab1565b820191602081840312610e0b578051906001600160401b038211610beb57019180601f84011215610e0b578251926114ca84613ad2565b916114d86040519384613ab1565b84835260208583010111610beb5761145e936114fa91602080850191016139c5565b906113ed565b503461024f578060031936011261024f5760018054909180808085815b8682111561154757505060a095506040519485526020850152604084015260608301526080820152f35b90928382526003602081815260408420906040519261156584613a51565b8254845260018060a01b0391828d85015416908501526002918284015416604085015282015460608401526040516115a4816104278160048701613b6e565b60808401526040516005906115bf8161042781858801613b6e565b60a0850152604051916006926115db8161042781878901613b6e565b60c08601526040516115f4816104278160078901613b6e565b60e086015260405161160d816104278160088901613b6e565b61010086015260099384810154610120870152600a81015461014087015260ff80600b8301541695861015611712576101e091600f91876101608a0152600c8201546101808a0152600d8201541615156101a0890152600e8101546101c08901520154950194855283158015611709575b156116a057505050505061169461169a91613cf2565b93613cf2565b9061151d565b9798949783036116c057505050506116ba61169a91613cf2565b94613cf2565b82989498149182156116ff575b50506116de575b5061169a90613cf2565b9561169a91936116f06116f892613cf2565b975190613ccf565b92906116d4565b14905038806116cd565b508c841461167e565b634e487b7160e01b89526021600452602489fd5b503461024f57602080600319360112610e0b576009600435818110158061110c576001549061175482613e24565b93869560015b848111156117985788888861176e82613e24565b925b82811061178557604051806106c58682613c04565b8061120d6117939284613e56565b611770565b8089526003825260408920600b015460ff16846117e757838110156117e75786146117cc575b6117c790613cf2565b61175a565b966117df81896112186117c7948b613e56565b9790506117be565b634e487b7160e01b8a52602160045260248afd5b503461024f5761180a36613c3f565b8115158061206a575b61181c90613d14565b61182b60ff6002541615613c8e565b81835260036020526040832090600b82019160ff8354166009811015610ab557600203612015578115611fc55761186682600f830154613ccf565b600e82015410611f765760018101546001600160a01b03163314611f2357604051636eb1769f60e11b81523360048201523060248201526020816044817f00000000000000000000000000000000000000000000000000000000000000006001600160a01b03165afa8015611d8b5783918791611eee575b5010611e93576040516323b872dd60e01b81523360048201526001600160a01b037f00000000000000000000000000000000000000000000000000000000000000008116602483015260448201849052602090829060649082908a907f0000000000000000000000000000000000000000000000000000000000000000165af1908115611d8b578691611e74575b5015611e3857600e81015490600f81015460018060a01b036001830154169060405193630f763bb360e21b85528760048601523360248601528560448601526064850152608484015260a483015260208260c4818960018060a01b037f0000000000000000000000000000000000000000000000000000000000000000165af1918215611d8b578692611e03575b508192600e92600f830155604051908152836020820152857ff31343540affa723d26848192c2f28ab76925951531440b6f2e082030394314f60403393a301541115611a44578280f35b805460ff191660031790556040516338d18b5f60e11b81526004810182905282816024817f00000000000000000000000000000000000000000000000000000000000000006001600160a01b03165afa908115611df85760407f99e22402a0724556366c1d60e161aae013b4360732a8671712931ec53efefffe91849386918791611ddb575b5082519182526020820152a280825260036020526040822060ff600b820154166009811015610d6c57600303611d9657600f810154906001810160018060a01b0381541660405190630cef37e560e01b825285600483015260248201528360448201526020816064818960018060a01b037f0000000000000000000000000000000000000000000000000000000000000000165af1908115611d8b578691611d5c575b5015611d175760018060a01b03905416600382015490600983015460ff600b850154166009811015611d0357918691602093600c870154600a88015491611c2b89611c18611c056040519b8c9a8b9a63698a517960e01b8c5260048c015260248b015261018060448b0152611be96101848b0160048601613b6e565b9060648b0152600760031994858c84030160848d015201613b6e565b828982030160a48a015260088d01613b6e565b908782030160c488015260068b01613b6e565b60e486019490945261010485015261012484015261014483018a90526101648301520381887f00000000000000000000000000000000000000000000000000000000000000006001600160a01b03165af18015611cf857611cc8575b50600b01805460ff191660051790556040519081527f430f5c27525242f9d67ea1f77d37d42af15eeccaf0b9a743214f3cf6c6062a9e90602090a238808280f35b602090813d8311611cf1575b611cde8183613ab1565b81010312611cec5738611c87565b600080fd5b503d611cd4565b6040513d87823e3d90fd5b634e487b7160e01b88526021600452602488fd5b60405162461bcd60e51b815260206004820152601b60248201527f5472616e7366657220746f20737570706c696572206661696c656400000000006044820152606490fd5b611d7e915060203d602011611d84575b611d768183613ab1565b810190613d52565b38611b6d565b503d611d6c565b6040513d88823e3d90fd5b60405162461bcd60e51b815260206004820152601860248201527f496e766f696365206e6f742066756c6c792066756e64656400000000000000006044820152606490fd5b9050611df191503d8088833e610a968183613ab1565b5038611aca565b6040513d85823e3d90fd5b91506020823d602011611e30575b81611e1e60209383613ab1565b81010312611cec57600e9151916119fa565b3d9150611e11565b60405162461bcd60e51b81526020600482015260146024820152731554d110c81d1c985b9cd9995c8819985a5b195960621b6044820152606490fd5b611e8d915060203d602011611d8457611d768183613ab1565b3861196c565b60405162461bcd60e51b815260206004820152602d60248201527f496e73756666696369656e74205553444320616c6c6f77616e636520666f722060448201526c18dbdc994818dbdb9d1c9858dd609a1b6064820152608490fd5b9150506020813d602011611f1b575b81611f0a60209383613ab1565b81010312611cec57829051386118de565b3d9150611efd565b60405162461bcd60e51b815260206004820152602560248201527f537570706c6965722063616e6e6f7420696e7665737420696e206f776e20696e604482015264766f69636560d81b6064820152608490fd5b60405162461bcd60e51b815260206004820152602160248201527f496e766573746d656e742065786365656473207461726765742066756e64696e6044820152606760f81b6064820152608490fd5b60405162461bcd60e51b815260206004820152602260248201527f496e766573746d656e7420616d6f756e74206d75737420626520706f73697469604482015261766560f01b6064820152608490fd5b60405162461bcd60e51b815260206004820152602760248201527f496e766f696365206d75737420626520766572696669656420666f7220696e76604482015266195cdd1b595b9d60ca1b6064820152608490fd5b50600154821115611813565b503461024f57602036600319011261024f57602090600435801515806120be575b6120a090613d14565b8152600382526002604060018060a01b039220015416604051908152f35b50600154811115612097565b503461024f578060031936011261024f57602060ff600254166040519015158152f35b503461024f578060031936011261024f5760015461210a81613e24565b9060015b8181111561212457604051806106c58582613c04565b600019810181811161214457908061121861213f9386613e56565b61210e565b634e487b7160e01b85526011600452602485fd5b503461024f57602080600319360112610e0b576004359081151580612372575b61218190613d14565b61219060ff6002541615613c8e565b8183526003815260408320600b810160ff8154166009811015610ab5576005036123385760028201546001600160a01b0390811633036122fc57908386926084600f61220f876301e133806122086121ec600c84015442613e17565b612710612202600a600387015496015486613d01565b04613d01565b0490613ccf565b960154604051958693849263b18ce24f60e01b84528b600485015233602485015289604485015260648401527f0000000000000000000000000000000000000000000000000000000000000000165af1918215611d8b5786926122ab575b50805460ff1916600617905560408051928352928201527f18969ea6899de8b19cc4707e6ceb1d8439082db6291091d6ddaee2649eb3ab919190a280f35b9291508383813d83116122f5575b6122c38183613ab1565b81010312611cec57915190917f18969ea6899de8b19cc4707e6ceb1d8439082db6291091d6ddaee2649eb3ab9161226d565b503d6122b9565b60405162461bcd60e51b81526004810185905260146024820152734f6e6c792062757965722063616e20726570617960601b6044820152606490fd5b60405162461bcd60e51b8152600481018490526012602482015271125b9d9bda58d9481b9bdd08199d5b99195960721b6044820152606490fd5b50600154821115612178565b503461024f578060031936011261024f576106c560405161239e81613a96565b602881527f4561726e58436f72652076342e322e30202d20466978656420496e766573746d602082015267656e7420466c6f7760c01b60408201526040519182916020835260208301906139e8565b503461024f57602036600319011261024f5760043581526003602052604090208054600160a01b6001900391826001820154169260028201541692600382015493604051948580600486019061244291613b6e565b0361244d9087613ab1565b604051958661245f8160058801613b6e565b0361246a9088613ab1565b6040518061247b8160068901613b6e565b036124869082613ab1565b604051806124978160078a01613b6e565b036124a29082613ab1565b60405191826124b48160088b01613b6e565b036124bf9084613ab1565b600988015499600a89015494600b8a015460ff1696600c8b015498600d8c015460ff169a600e8d01549c600f01549d6040518060805252608051602001526080516040015260805160600152610200806080516080015260805101612523916139e8565b6080518082039060a00152612537916139e8565b6080518082039060c0015261254b916139e8565b6080518082039060e0015261255f916139e8565b608051808203906101000152612574916139e8565b966080516101200152608051610140015260805161016001612595916139a2565b608051610180015215156080516101a001526080516101c001526080516101e0015260805180910390f35b503461024f578060031936011261024f576040517f00000000000000000000000000000000000000000000000000000000000000006001600160a01b03168152602090f35b503461024f57604036600319011261024f576004356024356001600160401b038111610beb57612639903690600401613aed565b82546001600160a01b03906126519082163314613c55565b82151580612803575b61266390613d14565b82845260036020526040842090600b82019182549060ff8216600981101590816117125780159182156127f5575b82156127e4575b50501561278f5786936008600f9360ff1916179055019081546126f8575b5050506126f27f30f1a1ed9ed0adbcb85235780494613b9e2542cc72f0c5ede21be804cd6470d4916040519182916020835260208301906139e8565b0390a280f35b7f000000000000000000000000000000000000000000000000000000000000000016803b15610beb57828091602460405180948193634f74c3d960e11b83528a60048401525af18015611df857612776575b5055827f30f1a1ed9ed0adbcb85235780494613b9e2542cc72f0c5ede21be804cd6470d46126f26126b6565b9161278381949293613a83565b610beb5791903861274a565b60405162461bcd60e51b815260206004820152602760248201527f43616e6e6f742072656a65637420696e766f69636520696e2063757272656e746044820152662073746174757360c81b6064820152608490fd5b909150611d03576002143880612698565b506001811491506000612691565b5060015483111561265a565b503461024f5761012036600319011261024f5761282a613a0d565b6044356001600160401b038111610beb57612849903690600401613aed565b6064356001600160401b038111610bef57612868903690600401613aed565b6084356001600160401b03811161110c57612887903690600401613aed565b60a4356001600160401b0381116132b6576128a6903690600401613aed565b60c4356001600160401b038111611108576128c5903690600401613aed565b91610104356001600160401b0381116132b2576128e6903690600401613aed565b936128f660ff6002541615613c8e565b6024351561326d5762093a8042018042116132595760e4351115613201578551156131c7578251156131895783511561314e578451156131105761293b600154613cf2565b968760015561232860243581602435020481036130fc57888a52600360205260408a2091898355336bffffffffffffffffffffffff60a01b600185015416176001840155600283019060018060a01b03166bffffffffffffffffffffffff60a01b825416179055602435600383015587516001600160401b038111612dff576129c76004840154613b34565b601f81116130b7575b50806020601f821160011461304c578c91613041575b508160011b916000199060031b1c19161760048301555b82516001600160401b038111612dff57612a1a6005840154613b34565b601f8111612ffc575b50806020601f8211600114612f92578c91612f87575b508160011b916000199060031b1c19161760058301555b83516001600160401b038111612dff57612a6d6006840154613b34565b601f8111612f42575b50806020601f8211600114612ed8578c91612ecd575b508160011b916000199060031b1c19161760068301555b84516001600160401b038111612dff57612ac06007840154613b34565b601f8111612e88575b50806020601f8211600114612e1e578c91612e13575b508160011b916000199060031b1c19161760078301555b85516001600160401b038111612dff57612b136008840154613b34565b601f8111612dba575b50806020601f8211600114612d50578c91612d45575b508160011b916000199060031b1c19161760088301555b60e435600983015589600a83015560ff19600b83015416600b83015542600c830155600d820160ff198154169055612710816024350204600e83015589600f830155338a52600460205260408a20805468010000000000000000811015612d3157600181018255612bb991613a23565b81549060031b908b821b91600019901b1916179055604051906024358252602435026127109004602082015288339160407fc09ca85b7f8d95a2b1aa708a813e27efbc15cf5c64f2631952d0b0ee34e409e091a3600b01805460ff191660011790556040516396f8a47d60e01b8152600481018890526101006024820152958695612c49906101048801906139e8565b868103600319016044880152612c5e916139e8565b6024356064870152858103600319016084870152612c7b916139e8565b8481036003190160a4860152612c90916139e8565b8381036003190160c4850152612ca5916139e8565b8281036003190160e4840152612cba916139e8565b7f00000000000000000000000000000000000000000000000000000000000000006001600160a01b03169183910381865a94602095f18015611df857612d06575b602082604051908152f35b602090813d8311612d2a575b612d1c8183613ab1565b81010312610e0b5781612cfb565b503d612d12565b634e487b7160e01b8c52604160045260248cfd5b905087015138612b32565b9150600884018c5260208c208c925b601f1983168410612da2576001935082601f19811610612d89575b5050811b016008830155612b49565b89015160001960f88460031b161c191690553880612d7a565b89810151825560209384019360019092019101612d5f565b600884018c5260208c20601f830160051c810160208410612df8575b601f830160051c82018110612dec575050612b1c565b60008155600101612dd6565b5080612dd6565b634e487b7160e01b8b52604160045260248bfd5b905086015138612adf565b9150600784018c5260208c208c925b601f1983168410612e70576001935082601f19811610612e57575b5050811b016007830155612af6565b88015160001960f88460031b161c191690553880612e48565b88810151825560209384019360019092019101612e2d565b600784018c5260208c20601f830160051c810160208410612ec6575b601f830160051c82018110612eba575050612ac9565b60008155600101612ea4565b5080612ea4565b905085015138612a8c565b9150600684018c5260208c208c925b601f1983168410612f2a576001935082601f19811610612f11575b5050811b016006830155612aa3565b87015160001960f88460031b161c191690553880612f02565b87810151825560209384019360019092019101612ee7565b600684018c5260208c20601f830160051c810160208410612f80575b601f830160051c82018110612f74575050612a76565b60008155600101612f5e565b5080612f5e565b905084015138612a39565b9150600584018c5260208c208c925b601f1983168410612fe4576001935082601f19811610612fcb575b5050811b016005830155612a50565b86015160001960f88460031b161c191690553880612fbc565b86810151825560209384019360019092019101612fa1565b600584018c5260208c20601f830160051c81016020841061303a575b601f830160051c8201811061302e575050612a23565b60008155600101613018565b5080613018565b9050890151386129e6565b9150600484018c5260208c208c925b8b601f19841685106130a057506001935082601f19811610613087575b5050811b0160048301556129fd565b8b015160001960f88460031b161c191690553880613078565b81015182556020938401936001909201910161305b565b600484018c5260208c20601f830160051c8101602084106130f5575b601f830160051c820181106130e95750506129d0565b600081556001016130d3565b50806130d3565b634e487b7160e01b8a52601160045260248afd5b60405162461bcd60e51b8152602060048201526016602482015275111bd8dd5b595b9d081a185cda081c995c5d5a5c995960521b6044820152606490fd5b60405162461bcd60e51b8152602060048201526013602482015272109d5e595c881b985b59481c995c5d5a5c9959606a1b6044820152606490fd5b60405162461bcd60e51b8152602060048201526016602482015275115e1c1bdc9d195c881b985b59481c995c5d5a5c995960521b6044820152606490fd5b60405162461bcd60e51b815260206004820152601260248201527110dbdb5b5bd91a5d1e481c995c5d5a5c995960721b6044820152606490fd5b60405162461bcd60e51b815260206004820152602a60248201527f4475652064617465206d757374206265206174206c656173742037206461797360448201526920696e2066757475726560b01b6064820152608490fd5b634e487b7160e01b89526011600452602489fd5b60405162461bcd60e51b815260206004820152601760248201527f416d6f756e74206d75737420626520706f7369746976650000000000000000006044820152606490fd5b8780fd5b8580fd5b503461024f578060031936011261024f576132df60018060a01b038254163314613c55565b60ff196002541660025580f35b503461024f578060031936011261024f5780546001600160a01b0391906133169083163314613c55565b817f00000000000000000000000000000000000000000000000000000000000000001691823b15610e0b576040519282846024818363c626669360e01b958683523060048401525af18015611df8576134bf575b829350817f000000000000000000000000000000000000000000000000000000000000000016803b15613497578380916024604051809481938783523060048401525af19081156134b457849161349c575b5050817f00000000000000000000000000000000000000000000000000000000000000001690813b1561349757839160248392604051948593849283523060048401525af1908115611df8578391613483575b50507f000000000000000000000000000000000000000000000000000000000000000016803b15613480578180916024604051809481936316391c0160e21b83523060048401525af18015613475576134655750f35b61346e90613a83565b61024f5780f35b6040513d84823e3d90fd5b50fd5b61348c90613a83565b61348057813861340f565b505050fd5b6134a590613a83565b6134b05782386133bc565b5050fd5b6040513d86823e3d90fd5b9190926134cb90613a83565b90829061336a565b503461024f57604036600319011261024f576134ed613a0d565b6020602435801515806135a2575b61350490613d14565b6040516338a7b16760e01b81526001600160a01b039384166004820152602481019190915291829060449082907f0000000000000000000000000000000000000000000000000000000000000000165afa90811561347557829161356d57602082604051908152f35b90506020813d821161359a575b8161358760209383613ab1565b81010312610e0b57602091505138612cfb565b3d915061357a565b506001548111156134fb565b503461024f578060031936011261024f576040517f00000000000000000000000000000000000000000000000000000000000000006001600160a01b03168152602090f35b503461024f57602036600319011261024f57600435801515806137a2575b61361a90613d14565b815260036020526040812060405161363181613a51565b8154815260018201546001600160a01b0390811660208301526002830154811660408084019182526003850154606085015251926136768461076e8160048901613b6e565b60808101938452604051613691816104278160058a01613b6e565b60a08201526040516136aa816104278160068a01613b6e565b60c0820152604051946136cb866136c48160078501613b6e565b0387613ab1565b60e08201958652604051966136ee886136e78160088601613b6e565b0389613ab1565b61010083019788526009820154610120840152600a82015461014084015260ff600b830154169060098210156105255750916101e0600f61379495936106c5989795610160850152600c81015461018085015260ff600d8201541615156101a0850152600e8101546101c0850152015491015251169351945191519161378660405196879687526080602088015260808701906139e8565b9085820360408701526139e8565b9083820360608501526139e8565b50600154811115613611565b503461024f57604036600319011261024f576137c8613a0d565b6001600160a01b031681526004602052604081208054602435929083101561024f5760206137f68484613a23565b90546040519160031b1c8152f35b503461024f57602036600319011261024f5761042761384d600460406106c594823580151580613861575b61383890613d14565b81526003602052200160405192838092613b6e565b6040519182916020835260208301906139e8565b5060015481111561382f565b503461024f57602036600319011261024f5760ff600b6040602093600435801515806138b4575b61389d90613d14565b8152600385522001541661052360405180926139a2565b50600154811115613894565b503461024f578060031936011261024f576040517f00000000000000000000000000000000000000000000000000000000000000006001600160a01b03168152602090f35b503461024f57602036600319011261024f576003604060209260043580151580613943575b61393390613d14565b8152828452200154604051908152f35b5060015481111561392a565b503461024f57602036600319011261024f5760209060043580151580613996575b61397990613d14565b81526003825260016040818060a01b039220015416604051908152f35b50600154811115613970565b9060098210156139af5752565b634e487b7160e01b600052602160045260246000fd5b60005b8381106139d85750506000910152565b81810151838201526020016139c8565b90602091613a01815180928185528580860191016139c5565b601f01601f1916010190565b600435906001600160a01b0382168203611cec57565b8054821015613a3b5760005260206000200190600090565b634e487b7160e01b600052603260045260246000fd5b61020081019081106001600160401b03821117613a6d57604052565b634e487b7160e01b600052604160045260246000fd5b6001600160401b038111613a6d57604052565b606081019081106001600160401b03821117613a6d57604052565b90601f801991011681019081106001600160401b03821117613a6d57604052565b6001600160401b038111613a6d57601f01601f191660200190565b81601f82011215611cec57803590613b0482613ad2565b92613b126040519485613ab1565b82845260208383010111611cec57816000926020809301838601378301015290565b90600182811c92168015613b64575b6020831014613b4e57565b634e487b7160e01b600052602260045260246000fd5b91607f1691613b43565b9060009291805491613b7f83613b34565b918282526001938481169081600014613be15750600114613ba1575b50505050565b90919394506000526020928360002092846000945b838610613bcd575050505001019038808080613b9b565b805485870183015294019385908201613bb6565b9294505050602093945060ff191683830152151560051b01019038808080613b9b565b6020908160408183019282815285518094520193019160005b828110613c2b575050505090565b835185529381019392810192600101613c1d565b6040906003190112611cec576004359060243590565b15613c5c57565b60405162461bcd60e51b815260206004820152600a60248201526927b7363c9037bbb732b960b11b6044820152606490fd5b15613c9557565b60405162461bcd60e51b8152602060048201526012602482015271141c9bdd1bd8dbdb081a5cc81c185d5cd95960721b6044820152606490fd5b91908201809211613cdc57565b634e487b7160e01b600052601160045260246000fd5b6000198114613cdc5760010190565b81810292918115918404141715613cdc57565b15613d1b57565b60405162461bcd60e51b815260206004820152600f60248201526e496e76616c696420696e766f69636560881b6044820152606490fd5b90816020910312611cec57518015158103611cec5790565b6001600160401b038111613a6d5760051b60200190565b9091606082840312611cec57815192602080840151936040810151906001600160401b038211611cec57019180601f84011215611cec578251613dc381613d6a565b93613dd16040519586613ab1565b818552838086019260051b820101928311611cec578301905b828210613df8575050505090565b81516001600160a01b0381168103611cec578152908301908301613dea565b91908203918211613cdc57565b90613e2e82613d6a565b613e3b6040519182613ab1565b8281528092613e4c601f1991613d6a565b0190602036910137565b8051821015613a3b5760209160051b01019056fea2646970667358221220d5c68187ee36e2159305fe3b86835397ccd0c702494e5ce02f1dd8475ee2311464736f6c63430008140033",
  "linkReferences": {},
  "deployedLinkReferences": {}
}